:1000000075C00000A3C00000A1C000009FC0000098
:100010009DC000009BC0000099C0000097C0000078
:1000200095C0000093C0000091C000008FC0000088
:100030008DC000008BC0000089C0000087C0000098
:1000400085C0000083C0000081C000007FC00000A8
:100050007DC000007BC0000079C0000086C40000A5
:1000600075C0000058C600008CC600006FC00000BC
:100070006DC000006BC0000069C0000067C00000D8
:1000800065C0000063C0000061C000005FC00000E8
:10009000CEC6000002C7000059C0000057C00000D3
:1000A00055C0000053C0000051C000004FC0000008
:1000B0004DC000004BC0000049C0000047C0000018
:1000C00045C0000043C0000006C200003CC700005D
:1000D00070C700003BC00000C2C70000F6C70000A8
:1000E00035C00000EA06760702088E0811241FBEFC
:1000F000CFEFD1E2DEBFCDBF00E00CBF12E0A0E049
:10010000B2E0E8E2F2E100E00BBF02C007900D921E
:10011000A032B107D9F724E0A0E2B2E001C01D92FD
:10012000A43CB207E1F710E0C6E7D0E000E006C06B
:1001300021970109802FFE010E940A09C237D107C9
:1001400080E00807A9F72DD20C94120959CF8F929D
:100150009F92AF92BF92CF92DF92EF92FF928091E7
:10016000B80481110FC081E08093B80483E08093CC
:10017000B904FF90EF90DF90CF90BF90AF909F9029
:100180008F900895C090B004D090B104E090B20474
:10019000F090B3048091B904813009F43FC08230FB
:1001A00009F4A8C020E030E44CE955E46091A804CB
:1001B0007091A9048091AA049091AB0473D39B0120
:1001C000AC0160E070E48CE196E422D220E030E003
:1001D00048EC52E486D220E030E040E85FE318D2F9
:1001E0004B015C01A701960178D218160CF4A6C049
:1001F00080E090E0A0E8BFE38093BA049093BB0452
:10020000A093BC04B093BD041092B0041092B1044A
:100210001092B2041092B30481E01EC020E030E0DE
:1002200048E851E4C701B60139D387FD18C080E022
:1002300090E0A0E8BFEB8093BA049093BB04A09336
:10024000BC04B093BD041092B0041092B10410929B
:10025000B2041092B30482E08093B90418C020E085
:1002600030E048E851E4C701B60137D287FF0FC03C
:1002700020E030E040E85FE3C701B601CAD16093F7
:10028000B0047093B1048093B2049093B30420E05F
:1002900030E048EC52E46091B4047091B504809170
:1002A000B6049091B7041DD220E030E040E85FE34F
:1002B000AFD14B015C01C090AC04D090AD04E09094
:1002C000AE04F090AF04AC019B01C701B60105D2AA
:1002D00087FF4CC020E030E040E85FE3C701B60193
:1002E00098D16093AC047093AD048093AE04909366
:1002F000AF043FCF20E030E048E851E4C701B60149
:10030000ECD187FDB5CF20E030E048E851E4C701EB
:10031000B601C4D287FDBBCF1092BA041092BB04C1
:100320001092BC041092BD041092B0041092B1045B
:100330001092B2041092B30483E08ECFA70196010D
:10034000C501B401ABD218160CF0A1CF20E030E00B
:1003500040E85FE3C701B6015CD16093B0047093DD
:10036000B1048093B2049093B304E6CFA501940145
:10037000C701B60193D287FDFCCE209100023091D7
:10038000010240910202509103026091A404709115
:10039000A5048091A6049091A7043AD1209104026B
:1003A0003091050240910602509107027BD22091C4
:1003B00008023091090240910A0250910B0229D1A2
:1003C00020E030E040EA51E423D120E030E04FE784
:1003D00053E468D220E030EC49E853E482D16093E2
:1003E000BE047093BF048093C0049093C104109224
:1003F000AC041092AD041092AE041092AF04B9CECA
:1004000080E090E0AAE7B4E48093B4049093B5044C
:10041000A093B604B093B7040895089526E030E0A1
:1004200040E855E260E070E090E080E000C01092AB
:100430002302109222028930910508F039C0FC0194
:100440008827EB5DFD4F8F4FE5C62E023702400235
:100450004902520259025C025F02650281E090E0AB
:10046000909323028093220280E392E0F4C382E01F
:1004700090E090932302809322028DEC92E0F6CFDD
:1004800084E090E090932302809322028AE693E036
:10049000EDCF88E090E0909323028093220287E0E2
:1004A00094E0E4CF80E190E09093230280932202D5
:1004B000089580E290E0F8CF80E490E0F5CF80E806
:1004C00090E09093230280932202809122029091E7
:1004D00023029160E9CF1F920F920FB60F92112461
:1004E0000BB60F922F933F934F935F936F937F932E
:1004F0008F939F93AF93BF93EF93FF9386E997EE0C
:10050000909325018093240134D0FF91EF91BF9106
:10051000AF919F918F917F916F915F914F913F919B
:100520002F910F900BBE0F900FBE0F901F9018953C
:1005300086E997EE9093250180932401A3E7B0E02C
:100540008C918E7F8C93E0E2F1E080818C7F8083C0
:10055000E1E2F1E08081877E808380818460808316
:1005600080818C7F80838C9181608C93089581E061
:1005700008958091240291E0980F9093240288239B
:1005800049F021E030E03093260220932502809349
:10059000240208957894DBDDF89480912402815040
:1005A000F6CFCF93DF931092C3041092C20427D2E8
:1005B00035DFC0910C02D0910D021982188220DF24
:1005C000F894B6DF2881398181E0232B09F080E09F
:1005D0008093C204789478948091C204811107C0FA
:1005E0001CDFF89490E080E0DF91CF91089528819E
:1005F000398181E0232B09F480E08093C30490913A
:10060000C30481E0911180E08093C204B0DFE4CFA5
:100610005058BB27AA270ED007C1F8D030F0FDD024
:1006200020F031F49F3F11F41EF4EDC00EF4E0957C
:10063000E7FBE3C0E92F09D180F3BA17620773071C
:100640008407950718F071F49EF521C10EF4E0952A
:100650000B2EBA2FA02D0B01B90190010C01CA017C
:10066000A0011124FF27591B99F0593F50F4503E27
:1006700068F11A16F040A22F232F342F4427585F19
:10068000F3CF469537952795A795F0405395C9F731
:100690007EF41F16BA0B620B730B840BBAF09150E9
:1006A000A1F0FF0FBB1F661F771F881FC2F70EC088
:1006B000BA0F621F731F841F48F48795779567955B
:1006C000B795F7959E3F08F0B3CF9395880F08F044
:1006D0009927EE0F9795879508956BD008F481E0E0
:1006E00008950CD0A1C099D040F090D030F021F402
:1006F0005F3F19F082C05111CBC085C0A6D098F3DE
:100700009923C9F35523B1F3951B550BBB27AA2792
:1007100062177307840738F09F5F5F4F220F331F04
:10072000441FAA1FA9F333D00E2E3AF0E0E830D0D0
:1007300091505040E695001CCAF729D0FE2F27D0D3
:10074000660F771F881FBB1F261737074807AB07A1
:10075000B0E809F0BB0B802DBF01FF2793585F4F16
:100760002AF09E3F510568F048C092C05F3FECF30D
:10077000983EDCF3869577956795B795F7959F5FDB
:10078000C9F7880F911D9695879597F90895E1E02F
:10079000660F771F881FBB1F621773078407BA078E
:1007A00020F0621B730B840BBA0BEE1F88F7E095E9
:1007B0000895990F0008550FAA0BE0E8FEEF1616F2
:1007C0001706E807F907C0F012161306E407F50745
:1007D00098F0621B730B840B950B39F40A2661F0B9
:1007E000232B242B252B21F408950A2609F4A1405C
:1007F000A6958FEF811D811D089597F99F6780E869
:1008000070E060E008959FEF80EC089500240A9462
:100810001616170618060906089500240A941216DB
:100820001306140605060895092E0394000C11F40E
:10083000882352F0BB0F40F4BF2B11F460FF04C0BB
:100840006F5F7F4F8F4F9F4F089557FD9058440F14
:10085000551F59F05F3F71F04795880F97FB991F1F
:1008600061F09F3F79F087950895121613061406DC
:10087000551FF2CF4695F1DF08C016161706180669
:10088000991FF1CF86957105610508940895E89444
:10089000BB2766277727CB0197F908958ADF08F4ED
:1008A0008FEF08950BD0C0CFB1DF28F0B6DF18F07E
:1008B000952309F0A2CFA7CF1124EACFC6DFA0F37A
:1008C000959FD1F3950F50E0551F629FF001729FE5
:1008D000BB27F00DB11D639FAA27F00DB11DAA1F04
:1008E000649F6627B00DA11D661F829F2227B00D51
:1008F000A11D621F739FB00DA11D621F839FA00DDC
:10090000611D221F749F3327A00D611D231F849F2B
:10091000600D211D822F762F6A2F11249F57504082
:100920008AF0E1F088234AF0EE0FFF1FBB1F661F1D
:10093000771F881F91505040A9F79E3F510570F0D6
:100940005CCFA6CF5F3FECF3983EDCF386957795BE
:100950006795B795F795E7959F5FC1F7FE2B880FD1
:10096000911D9695879597F908951F920F920FB64E
:100970000F9211242F933F938F939F93AF93BF9325
:100980008091280290912902A0912A02B0912B0215
:100990003091270223E0230F2D3758F50196A11D32
:1009A000B11D209327028093280290932902A093DF
:1009B0002A02B0932B0280912C0290912D02A091DB
:1009C0002E02B0912F020196A11DB11D80932C0221
:1009D00090932D02A0932E02B0932F02BF91AF915E
:1009E0009F918F913F912F910F900FBE0F901F906D
:1009F000189526E8230F0296A11DB11DD2CF789439
:100A000084B5826084BD84B5816084BD85B5826013
:100A100085BD85B5816085BDEEE6F0E080818160B1
:100A20008083E1E8F0E010828081826080838081B1
:100A300081608083E0E8F0E0808181608083E1EB89
:100A4000F0E0808184608083E0EBF0E08081816071
:100A50008083E1E9F0E08081826080838081816031
:100A60008083E0E9F0E0808181608083E1EAF0E06A
:100A7000808182608083808181608083E0EAF0E011
:100A8000808181608083E1E2F1E080818260808307
:100A9000808181608083E0E2F1E0808181608083F9
:100AA000EAE7F0E0808184608083808182608083D7
:100AB0008081816080838081806880831092C10002
:100AC0000895FC01918D228D892F90E0805C9F4FCD
:100AD000821B91098F7399270895FC01918D828D56
:100AE000981731F0828DE80FF11D858D90E0089503
:100AF0008FEF9FEF0895FC01918D828D981761F023
:100B0000A28DAE0FBF2FB11D5D968C91928D9F5F10
:100B10009F73928F90E008958FEF9FEF0895FC01EF
:100B2000538D448D252F30E0842F90E0821B930B52
:100B3000541710F0CF96089501970895FC01A48DE5
:100B4000A80FB92FB11DA35ABF4F2C91848D90E0EF
:100B500001968F739927848FA689B7892C93A089D2
:100B6000B1898C91837080648C93938D848D98135C
:100B700006C00288F389E02D80818F7D80830895EF
:100B8000CF93DF93EC01888D8823B1F0AA89BB89CC
:100B9000E889F9898C9185FD03C0808186FD0CC0B0
:100BA0000FB607FCF7CF8C9185FFF2CF808185FFD0
:100BB000EDCFCE01C3DFEACFDF91CF910895EF9261
:100BC000FF920F931F93CF93DF93EC0181E0888F07
:100BD0009B8D8C8D98131AC0E889F989808185FFD7
:100BE00015C09FB7F894EE89FF896083E889F98979
:100BF00080818370806480839FBF81E090E0DF917B
:100C0000CF911F910F91FF90EF900895F62E0B8DCD
:100C100010E00F5F1F4F0F731127E02E8C8D8E1188
:100C20000BC00FB607FCFACFE889F989808185FFF0
:100C3000F5CFCE0183DFF2CFEB8DEC0FFD2FF11D51
:100C4000E35AFF4FF0829FB7F8940B8FEA89FB8934
:100C500080818062D0CFCF92DF92EF92FF921F937C
:100C6000CF93DF93EC016A017B01122FE889F989A8
:100C700082E08083C11481EED806E104F10499F08A
:100C800060E079E08DE390E0A7019601A1D22150C8
:100C900031094109510956954795379527952115F1
:100CA00080E1380790F0E889F989108260E874E8FB
:100CB0008EE190E0A70196018BD2215031094109C4
:100CC00051095695479537952795EC85FD853083D5
:100CD000EE85FF852083188EEC89FD891083EA89D3
:100CE000FB89808180618083EA89FB8980818860BB
:100CF0008083EA89FB89808180688083EA89FB8917
:100D000080818F7D8083DF91CF911F91FF90EF9045
:100D1000DF90CF9008951F920F920FB60F9211247B
:100D20000BB60F922F938F939F93EF93FF93E091C6
:100D30004002F09141028081E0914602F091470229
:100D400082FD1DC09081809149028F5F8F73209139
:100D50004A02821741F0E0914902F0E0E05DFD4F68
:100D6000958F80934902FF91EF919F918F912F91E1
:100D70000F900BBE0F900FBE0F901F9018958081A3
:100D8000F2CF1F920F920FB60F9211240BB60F9253
:100D90002F933F934F935F936F937F938F939F9383
:100DA000AF93BF93EF93FF9380E392E0C7DEFF9191
:100DB000EF91BF91AF919F918F917F916F915F91D3
:100DC0004F913F912F910F900BBE0F900FBE0F9040
:100DD0001F901895E0E3F2E01382128288EE93E010
:100DE000A0E0B0E084839583A683B78382E192E09C
:100DF0009183808385EC90E09587848784EC90E0F4
:100E00009787868780EC90E0918B808B81EC90E0D7
:100E1000938B828B82EC90E0958B848B86EC90E0B8
:100E2000978B868B118E128E138E148E08951F92BF
:100E30000F920FB60F9211240BB60F922F938F9330
:100E40009F93EF93FF93E091DD02F091DE028081AA
:100E5000E091E302F091E40282FD1DC09081809157
:100E6000E6028F5F8F732091E702821741F0E091D5
:100E7000E602F0E0E353FD4F958F8093E602FF9189
:100E8000EF919F918F912F910F900BBE0F900FBEFE
:100E90000F901F9018958081F2CF1F920F920FB67E
:100EA0000F9211240BB60F922F933F934F935F93A2
:100EB0006F937F938F939F93AF93BF93EF93FF9322
:100EC0008DEC92E03BDEFF91EF91BF91AF919F914E
:100ED0008F917F916F915F914F913F912F910F90E3
:100EE0000BBE0F900FBE0F901F901895EDECF2E027
:100EF0001382128288EE93E0A0E0B0E084839583B1
:100F0000A683B78382E192E0918380838DEC90E0A9
:100F1000958784878CEC90E09787868788EC90E0B3
:100F2000918B808B89EC90E0938B828B8AEC90E0A4
:100F3000958B848B8EEC90E0978B868B118E128E26
:100F4000138E148E08951F920F920FB60F921124D4
:100F50000BB60F922F938F939F93EF93FF93E09194
:100F60007A03F0917B038081E0918003F09181030B
:100F700082FD1DC09081809183038F5F8F732091CC
:100F80008403821741F0E0918303F0E0E659FC4FBF
:100F9000958F80938303FF91EF919F918F912F9174
:100FA0000F900BBE0F900FBE0F901F901895808171
:100FB000F2CF1F920F920FB60F9211240BB60F9221
:100FC0002F933F934F935F936F937F938F939F9351
:100FD000AF93BF93EF93FF938AE693E0AFDDFF916A
:100FE000EF91BF91AF919F918F917F916F915F91A1
:100FF0004F913F912F910F900BBE0F900FBE0F900E
:101000001F901895EAE6F3E01382128288EE93E0CF
:10101000A0E0B0E084839583A683B78382E192E069
:101020009183808385ED90E09587848784ED90E0BF
:101030009787868780ED90E0918B808B81ED90E0A3
:10104000938B828B82ED90E0958B848B86ED90E084
:10105000978B868B118E128E138E148E08951F928D
:101060000F920FB60F9211240BB60F922F938F93FE
:101070009F93EF93FF93E0911704F0911804808100
:10108000E0911D04F0911E0482FD1DC090818091AD
:1010900020048F5F8F7320912104821741F0E0912B
:1010A0002004F0E0E95FFB4F958F80932004FF91CF
:1010B000EF919F918F912F910F900BBE0F900FBECC
:1010C0000F901F9018958081F2CF1F920F920FB64C
:1010D0000F9211240BB60F922F933F934F935F9370
:1010E0006F937F938F939F93AF93BF93EF93FF93F0
:1010F00087E094E023DDFF91EF91BF91AF919F9145
:101100008F917F916F915F914F913F912F910F90B0
:101110000BBE0F900FBE0F901F901895E7E0F4E004
:101120001382128288EE93E0A0E0B0E0848395837E
:10113000A683B78382E192E09183808385E391E087
:101140009587848784E391E09787868780E391E0A1
:10115000918B808B81E391E0938B828B82E391E092
:10116000958B848B86E391E0978B868B118E128E04
:10117000138E148E0895AF92BF92CF92DF92EF92AA
:10118000FF920F931F93CF93DF936C017B018B0131
:10119000040F151FEB015E01AE18BF08C017D10781
:1011A00059F06991D601ED91FC910190F081E02D0B
:1011B000C6011995892B79F7C501DF91CF911F9150
:1011C0000F91FF90EF90DF90CF90BF90AF90089578
:1011D000A1E21A2EAA1BBB1BFD010DC0AA1FBB1F3B
:1011E000EE1FFF1FA217B307E407F50720F0A21BAD
:1011F000B30BE40BF50B661F771F881F991F1A941A
:1012000069F760957095809590959B01AC01BD0143
:10121000CF010895EE0FFF1F881F8BBF0790F69137
:08122000E02D1994F894FFCFB2
:101228000000A041DAF0F93E000020C220020000D0
:101238000000DF05BB088F05C00561057B056D054E
:00000001FF
