:10000000F8C0000026C1000024C1000022C1000089
:1000100020C100001EC100001CC100001AC1000068
:1000200018C1000016C1000014C1000012C1000078
:1000300010C100000EC100000CC100000AC1000088
:1000400008C1000006C1000004C1000002C1000098
:1000500000C10000FEC00000FCC00000DDC40000C4
:10006000F8C00000A1C70000D5C70000F2C0000022
:10007000F0C00000EEC00000ECC00000EAC00000CC
:10008000E8C00000E6C00000E4C00000E2C00000DC
:100090000C9460080C949608DCC00000DAC00000E4
:1000A000D8C00000D6C00000D4C00000D2C00000FC
:1000B000D0C00000CEC00000CCC00000CAC000000C
:1000C000C8C00000C6C00000E2C300000C94EC08E9
:1000D0000C942209BEC000000C9478090C94AE095F
:1000E000B8C0000000000A0B02090C0D0E0807033F
:1000F00004010000000000000000000000000000FB
:1001000000000000000000000000000000000000EF
:1001100012111000000000000000000000000000AC
:100120000000000000000000000001021020200874
:100130000810204010204080020102010804020142
:1001400001020408102040808040201008040201B1
:10015000800402018040201008040201080402010A
:100160000102040810204080010204081020408091
:1001700005050505070508080808020202020A0A23
:100180000808040404040101010101010101030341
:10019000030303030303040707070C0C0C0C0C0CEC
:1001A0000C0C0202020206060606060606060B0BE9
:1001B0000B0B0B0B0B0B00002200250028002B0063
:1001C0002E003100340002010000050108010B017E
:1001D00000002100240027002A002D0030003300F9
:1001E00001010000040107010A013308BF084B099F
:1001F000D70911241FBECFEFD1E2DEBFCDBF00E093
:100200000CBF12E0A0E0B2E0EAEBF4E100E00BBFCB
:1002100002C007900D92AA32B107D9F725E0AAE2F1
:10022000B2E001C01D92A530B207E1F710E0C9EFBE
:10023000D0E000E006C021970109802FFE010E9456
:10024000530AC53FD10780E00807A9F786D30C946D
:100250005B0AD6CECF93DF93882341F0EB01815028
:1002600087D499838883DF91CF910895FB01118210
:100270001082F9CF0F931F938B019C0183E0369579
:100280002795179507958A95D1F7065D1D4F462F3F
:10029000477021E030E0F90102C0EE0FFF1F4A95E0
:1002A000E2F7AF01F80120812423CB01019621114F
:1002B00002C090E080E01F910F9108950F931F936B
:1002C0008B019C0183E036952795179507958A95B4
:1002D000D1F7677081E090E001C0880F6A95EAF776
:1002E000F801E65DFD4F2081452B31F48095822396
:1002F00080831F910F910895822BFACFCF92DF92C6
:10030000EF92FF92CF93DF936B017C0160E086E375
:10031000C816D104E104F10488F486E38C0DB1D44D
:10032000E6012196AE01C701B601C8DFCE01DF911B
:10033000CF91FF90EF90DF90CF9008958C2DEFCF6D
:10034000882341F08150682F70E090E080E050E019
:1003500040E0B4CF0895611101C093C46130E9F366
:1003600062E0FBCF662311F061E0C7C460E0FDCF1F
:100370008F929F92AF92BF92EF92FF920F931F9333
:10038000CF93DF9300D01F92CDB7DEB780900A02E3
:1003900090900B02A0900C02B0900D02A501940168
:1003A0006091CF047091D0048091D1049091D204D7
:1003B0000BD3882341F08092CF049092D004A09276
:1003C000D104B092D20468E370E080E090E052DFA4
:1003D0009093CE048093CD0443E050E0BE016D5F66
:1003E0007F4F38DFE0900002F09001020B811C810A
:1003F0008090060290900702A0900802B090090237
:10040000A50194016091DB047091DC048091DD040E
:100410009091DE04D9D2882341F08092DB0490923F
:10042000DC04A092DD04B092DE0469E370E080E0B9
:1004300090E020DF9093DA048093D90443E050E009
:10044000BE016D5F7F4F06DF80900E0290900F021D
:10045000A0901002B0901102A50194016091C30414
:100460007091C4048091C5049091C604ADD28823D4
:1004700041F08092C3049092C404A092C504B0924B
:10048000C60467E370E080E090E0F4DE9093C2047D
:100490008093C10443E050E0BE016F5F7F4FDADE1E
:1004A0008091FF0481112DC081E08093FF0480932F
:1004B000B9048093BA048093B7048093B80482E0AF
:1004C000809300056091B7048AE04CDF6091B80426
:1004D0008BE048DF6091B9048CE044DF6091BA049E
:1004E0008DE040DF0F900F900F900F90DF91CF9134
:1004F0001F910F91FF90EF90BF90AF909F908F90C2
:10050000089580910005813009F041C09091140256
:10051000992329F01092020510920105D0CF9091F5
:1005200001059130D9F4E016F10638F01092BA04C2
:100530009093B90482E08093010580910205813097
:10054000D9F490911302992309F4BCCF8093B70496
:100550001092B80482E080930205B4CF4091020269
:10056000509103022B813C814217530730F31092C4
:10057000B9048093BA04DFCF80911202882309F472
:10058000A1CF1092B70481E08093B804E4CF20910A
:1005900004023091050289819A812817390730F0C9
:1005A00081E08093000580930105D5CFE016F10628
:1005B00008F488CF81E08093000592E090930105D4
:1005C000CACFAF92BF92CF92DF92EF92FF921F936A
:1005D000CF93DF93CBEBD4E01C8680E0A82E82E0A3
:1005E000B82EF50182859385A485B5858C8B9D8B6E
:1005F000AE8BBF8BC12CD12C7601C394CD86DE8609
:10060000EF86F88A68E370E080E090E077DE9B8B0D
:100610008A8B11E0198B188EF50186819781A08550
:10062000B18588A399A3AAA3BBA3C98EDA8EEB8E4A
:10063000FC8E69E370E080E090E060DE9F8F8E8F3B
:100640001D8F1882F50186859785A089B1898887D5
:100650009987AA87BB87C982DA82EB82FC8267E32B
:1006600070E080E090E04ADE9F838E831D831CAEA5
:10067000C092F804D092F904E092FA04F092FB04DC
:1006800061E08AE068DE1093FC041CAACDAADEAA11
:10069000EFAAF8AE61E08BE05EDE19AF1CA6CDA636
:1006A000DEA6EFA6F8AA61E08CE055DE19AB1CA22D
:1006B000CDA2DEA2EFA2F8A661E08DE04CDE19A784
:1006C000DF91CF911F91FF90EF90DF90CF90BF907F
:1006D000AF9008958091C70481111DC081E080937F
:1006E000C7048091C8049091C904A091CA04B09134
:1006F000CB040197A105B10571F48091CC04882346
:1007000051F068E370E080E090E0B4DD9093CE04B7
:100710008093CD0415DE8091D30481111DC081E04A
:100720008093D3048091D4049091D504A091D604F1
:10073000B091D7040197A105B10571F48091D80457
:10074000882351F069E370E080E090E093DD9093BE
:10075000DA048093D904F4DD8091BB0481111DC0BB
:1007600081E08093BB048091BC049091BD04A09172
:10077000BE04B091BF040197A105B10571F4809149
:10078000C004882351F067E370E080E090E072DD00
:100790009093C2048093C104D3DD8091F70481114A
:1007A00003C081E08093F7048091EF04811103C0BE
:1007B00081E08093EF048091E704811103C081E020
:1007C0008093E7048091DF04811103C081E080936E
:1007D000DF04089526E030E040E855E260E070E094
:1007E00090E080E000C0109236021092350289300D
:1007F000910508F039C0FC018827EF5FFB4F8F4F50
:1008000052C60A0413041C0425042E0435043804BB
:100810003B04410481E090E09093360280933502DE
:1008200083E492E061C382E090E09093360280938B
:10083000350280EE92E0F6CF84E090E090933602AD
:10084000809335028DE793E0EDCF88E090E09093C0
:100850003602809335028AE194E0E4CF80E190E0B3
:100860009093360280933502089580E290E0F8CFAD
:1008700080E490E0F5CF80E890E09093360280939A
:10088000350280913502909136029160E9CF1F9236
:100890000F920FB60F9211240BB60F922F933F9326
:1008A0004F935F936F937F938F939F93AF93BF9378
:1008B000EF93FF9386E997EE9093250180932401AF
:1008C00034D0FF91EF91BF91AF919F918F917F9124
:1008D0006F915F914F913F912F910F900BBE0F90B1
:1008E0000FBE0F901F90189586E997EE9093250103
:1008F00080932401A3E7B0E08C918E7F8C93E0E29B
:10090000F1E080818C7F8083E1E2F1E08081877E6D
:10091000808380818460808380818C7F80838C91C0
:1009200081608C93089581E008958091370291E071
:10093000980F90933702882349F021E030E03093FC
:10094000390220933802809337020895789410DD9D
:10095000F894809137028150F6CFCF93DF931092B5
:10096000040510920305A2D035DFC0911602D09184
:1009700017021982188225DEF894B6DF28813981A2
:1009800081E0232B09F080E080930305789478942C
:1009900080910305811107C09DDEF89490E080E00E
:1009A000DF91CF9108952881398181E0232B09F4CB
:1009B00080E0809304059091040581E0911180E02E
:1009C00080930305B0DFE4CF03D008F481E00895FD
:1009D000990F0008550FAA0BE0E8FEEF1616170650
:1009E000E807F907C0F012161306E407F50798F0B8
:1009F000621B730B840B950B39F40A2661F0232BD1
:100A0000242B252B21F408950A2609F4A140A6954C
:100A10008FEF811D811D08951F920F920FB60F92C7
:100A200011242F933F938F939F93AF93BF93809104
:100A30003B0290913C02A0913D02B0913E02309168
:100A40003A0223E0230F2D3758F50196A11DB11D61
:100A500020933A0280933B0290933C02A0933D0284
:100A6000B0933E0280913F0290914002A0914102DA
:100A7000B09142020196A11DB11D80933F02909357
:100A80004002A0934102B0934202BF91AF919F9167
:100A90008F913F912F910F900FBE0F901F9018953F
:100AA00026E8230F0296A11DB11DD2CF789484B5FC
:100AB000826084BD84B5816084BD85B5826085BD5A
:100AC00085B5816085BDEEE6F0E080818160808340
:100AD000E1E8F0E010828081826080838081816023
:100AE0008083E0E8F0E0808181608083E1EBF0E0EA
:100AF000808184608083E0EBF0E08081816080838E
:100B0000E1E9F0E080818260808380818160808380
:100B1000E0E9F0E0808181608083E1EAF0E08081BB
:100B200082608083808181608083E0EAF0E0808160
:100B300081608083E1E2F1E0808182608083808156
:100B400081608083E0E2F1E0808181608083EAE778
:100B5000F0E08081846080838081826080838081F6
:100B6000816080838081806880831092C1000895B5
:100B7000863308F0865320917B00982F9870277F4A
:100B8000922B90937B002091150290E4299F900175
:100B900011248770822B80937C0080917A0080647E
:100BA00080937A0080917A0086FDFCCF8091780056
:100BB0009091790008958150823108F059C0E82F52
:100BC000F0E08827EA51FA4F8F4F6DC406060A06F7
:100BD000F805FE05020638060D06130617061D0663
:100BE000210625062B062F063806330639063D0654
:100BF000809180008F77809380000895809180009D
:100C00008F7DF9CF80918000877FF5CF84B58F7776
:100C100084BD089584B58F7DFBCF8091B0008F7720
:100C20008093B00008958091B0008F7DF9CF8091BE
:100C300090008F77809390000895809190008F7D31
:100C4000F9CF80919000877FF5CF8091A0008F77BA
:100C50008093A00008958091A0008F7DF9CF8091AE
:100C6000A000877FF5CF809120018F7780932001AE
:100C70000895809120018F7DF9CF80912001877F99
:100C8000F5CFCF93DF9390E0FC01E65DFE4F24911A
:100C900080599E4FFC0184918823C9F090E0880F11
:100CA000991FFC01E053FE4FA591B491FC01EA5459
:100CB000FE4FC591D49161110DC09FB7F8948C91EE
:100CC000209582238C938881282328839FBFDF91DE
:100CD000CF910895623051F49FB7F8943C91822FE0
:100CE000809583238C93E8812E2BEFCF8FB7F894D8
:100CF000EC912E2B2C938FBFEACF1F93CF93DF93D2
:100D0000282F30E0F901EC51FF4F8491F901E65DA5
:100D1000FE4FD491F901E059FE4FC491CC23A1F0CC
:100D2000162F811148DFEC2FF0E0EE0FFF1FEA5481
:100D3000FE4FA591B4918FB7F894EC91111108C0B2
:100D4000D095DE23DC938FBFDF91CF911F91089563
:100D5000DE2BF8CFFC01918D228D892F90E0805CF5
:100D60009F4F821B91098F7399270895FC01918DE4
:100D7000828D981731F0828DE80FF11D858D90E0FE
:100D800008958FEF9FEF0895FC01918D828D981744
:100D900061F0A28DAE0FBF2FB11D5D968C91928D2B
:100DA0009F5F9F73928F90E008958FEF9FEF08955C
:100DB000FC01538D448D252F30E0842F90E0821B61
:100DC000930B541710F0CF96089501970895FC01E6
:100DD000A48DA80FB92FB11DA35ABF4F2C91848D9C
:100DE00090E001968F739927848FA689B7892C93F9
:100DF000A089B1898C91837080648C93938D848D4C
:100E0000981306C00288F389E02D80818F7D80834E
:100E10000895CF93DF93EC01888D8823B1F0AA89E0
:100E2000BB89E889F9898C9185FD03C0808186FDA5
:100E30000CC00FB607FCF7CF8C9185FFF2CF8081F5
:100E400085FFEDCFCE01C3DFEACFDF91CF910895CB
:100E5000EF92FF920F931F93CF93DF93EC0181E00A
:100E6000888F9B8D8C8D98131AC0E889F9898081B1
:100E700085FF15C09FB7F894EE89FF896083E889E4
:100E8000F98980818370806480839FBF81E090E0D6
:100E9000DF91CF911F910F91FF90EF900895F62E63
:100EA0000B8D10E00F5F1F4F0F731127E02E8C8DFD
:100EB0008E110BC00FB607FCFACFE889F989808143
:100EC00085FFF5CFCE0183DFF2CFEB8DEC0FFD2F49
:100ED000F11DE35AFF4FF0829FB7F8940B8FEA8918
:100EE000FB8980818062D0CFCF92DF92EF92FF9218
:100EF0001F93CF93DF93EC016A017B01122FE889E6
:100F0000F98982E08083C11481EED806E104F104FE
:100F100099F060E079E08DE390E0A7019601A1D21D
:100F20002150310941095109569547953795279523
:100F3000211580E1380790F0E889F989108260E88E
:100F400074E88EE190E0A70196018BD2215031091F
:100F5000410951095695479537952795EC85FD85AB
:100F60003083EE85FF852083188EEC89FD89108300
:100F7000EA89FB89808180618083EA89FB8980819D
:100F800088608083EA89FB89808180688083EA8920
:100F9000FB8980818F7D8083DF91CF911F91FF90AE
:100FA000EF90DF90CF9008951F920F920FB60F929F
:100FB00011240BB60F922F938F939F93EF93FF9370
:100FC000E0915302F09154028081E0915902F09136
:100FD0005A0282FD1DC0908180915C028F5F8F73E9
:100FE00020915D02821741F0E0915C02F0E0ED5B40
:100FF000FD4F958F80935C02FF91EF919F918F91B0
:101000002F910F900BBE0F900FBE0F901F90189551
:101010008081F2CF1F920F920FB60F9211240BB660
:101020000F922F933F934F935F936F937F938F9381
:101030009F93AF93BF93EF93FF9383E492E0C7DE58
:10104000FF91EF91BF91AF919F918F917F916F91A0
:101050005F914F913F912F910F900BBE0F900FBE5C
:101060000F901F901895E3E4F2E01382128288EE4D
:1010700093E0A0E0B0E084839583A683B7838CE1FE
:1010800092E09183808385EC90E09587848784EC5F
:1010900090E09787868780EC90E0918B808B81EC45
:1010A00090E0938B828B82EC90E0958B848B86EC26
:1010B00090E0978B868B118E128E138E148E08956E
:1010C0001F920F920FB60F9211240BB60F922F930F
:1010D0008F939F93EF93FF93E091F002F091F102D1
:1010E0008081E091F602F091F70282FD1DC09081AF
:1010F0008091F9028F5F8F732091FA02821741F07D
:10110000E091F902F0E0E052FD4F958F8093F902F3
:10111000FF91EF919F918F912F910F900BBE0F90A8
:101120000FBE0F901F9018958081F2CF1F920F92E3
:101130000FB60F9211240BB60F922F933F934F933C
:101140005F936F937F938F939F93AF93BF93EF932F
:10115000FF9380EE92E03BDEFF91EF91BF91AF9164
:101160009F918F917F916F915F914F913F912F91BF
:101170000F900BBE0F900FBE0F901F901895E0EED2
:10118000F2E01382128288EE93E0A0E0B0E0848364
:101190009583A683B7838CE192E0918380838DEC65
:1011A00090E0958784878CEC90E09787868788EC21
:1011B00090E0918B808B89EC90E0938B828B8AEC12
:1011C00090E0958B848B8EEC90E0978B868B118EC4
:1011D000128E138E148E08951F920F920FB60F92D7
:1011E00011240BB60F922F938F939F93EF93FF933E
:1011F000E0918D03F0918E038081E0919303F09153
:10120000940382FD1DC09081809196038F5F8F7340
:1012100020919703821741F0E0919603F0E0E358A4
:10122000FC4F958F80939603FF91EF919F918F9143
:101230002F910F900BBE0F900FBE0F901F9018951F
:101240008081F2CF1F920F920FB60F9211240BB62E
:101250000F922F933F934F935F936F937F938F934F
:101260009F93AF93BF93EF93FF938DE793E0AFDD31
:10127000FF91EF91BF91AF919F918F917F916F916E
:101280005F914F913F912F910F900BBE0F900FBE2A
:101290000F901F901895EDE7F3E01382128288EE0D
:1012A00093E0A0E0B0E084839583A683B7838CE1CC
:1012B00092E09183808385ED90E09587848784ED2B
:1012C00090E09787868780ED90E0918B808B81ED11
:1012D00090E0938B828B82ED90E0958B848B86EDF2
:1012E00090E0978B868B118E128E138E148E08953C
:1012F0001F920F920FB60F9211240BB60F922F93DD
:101300008F939F93EF93FF93E0912A04F0912B0426
:101310008081E0913004F091310482FD1DC0908104
:10132000809133048F5F8F7320913404821741F0D2
:10133000E0913304F0E0E65EFB4F958F8093330439
:10134000FF91EF919F918F912F910F900BBE0F9076
:101350000FBE0F901F9018958081F2CF1F920F92B1
:101360000FB60F9211240BB60F922F933F934F930A
:101370005F936F937F938F939F93AF93BF93EF93FD
:10138000FF938AE194E023DDFF91EF91BF91AF914C
:101390009F918F917F916F915F914F913F912F918D
:1013A0000F900BBE0F900FBE0F901F901895EAE1A3
:1013B000F4E01382128288EE93E0A0E0B0E0848330
:1013C0009583A683B7838CE192E09183808385E344
:1013D00091E09587848784E391E09787868780E30F
:1013E00091E0918B808B81E391E0938B828B82E300
:1013F00091E0958B848B86E391E0978B868B118EA1
:10140000128E138E148E0895AF92BF92CF92DF92F8
:10141000EF92FF920F931F93CF93DF936C017B01A9
:101420008B01040F151FEB015E01AE18BF08C0173A
:10143000D10759F06991D601ED91FC910190F081AD
:10144000E02DC6011995892B79F7C501DF91CF9160
:101450001F910F91FF90EF90DF90CF90BF90AF90D2
:101460000895A1E21A2EAA1BBB1BFD010DC0AA1FE5
:10147000BB1FEE1FFF1FA217B307E407F50720F0FD
:10148000A21BB30BE40BF50B661F771F881F991F78
:101490001A9469F760957095809590959B01AC01C1
:1014A000BD01CF010895EE0FFF1F881F8BBF07906E
:0A14B000F691E02D1994F894FFCF97
:1014BA00000200020002000080BF000080BF00009E
:1014CA0080BF000000013302000000002807040A60
:0A14DA00D8060907AA06C406B606E4
:00000001FF
