:100000000C9449010C947A010C947A010C947A01B5
:100010000C947A010C947A010C947A010C947A0174
:100020000C947A010C947A010C947A010C947A0164
:100030000C947A010C947A010C947A010C947A0154
:100040000C947A010C9471040C947A010C947A014A
:100050000C947A010C947A010C947A010C949D030F
:100060000C947A010C947A010C947A010C947A0124
:100070000C947A010C947A010C947A010C947A0114
:100080000C9443040C947A010C947A010C947A0138
:100090000C947A010C947A010C947A010C947A01F4
:1000A0000C947A010C947A010C9415040C947A0146
:1000B0000C947A010C947A010C947A010C94E70365
:1000C0000C947A010C947A010C947A010C947A01C4
:1000D0000C947A010C947A010C947A010C947A01B4
:1000E0000C947A010C9424020C9449020C94E107BC
:1000F0000C941C020C947E080C9457020C94310250
:100100000C9450080C9437080C945A080C94FF0770
:100110000C9435020C944D020C9420020C9428028D
:100120000C9416020C9423080C9478080C94510239
:100130000C945B020C943B020C9446080C94EB0765
:100140000C94F5070C943F020C9411080C94E607EC
:100150000C9456020C9443020C9409080C942D083C
:100160000C946E080C942B020C9464080C941908DF
:10017000000020002300260029002C002F00320060
:100180000001000003010601090100002100240014
:1001900027002A002D003000330001010000040177
:1001A00007010A0100002200250028002B002E0074
:1001B0003100340002010000050108010B010505B2
:1001C0000505070508080808020202020A0A0808CD
:1001D00004040404010101010101010103030303FB
:1001E00003030303040707070C0C0C0C0C0C0C0C8A
:1001F0000202020206060606060606060B0B0B0B9B
:100200000B0B0B0B010210202008081020401020BF
:1002100040800201020108040201010204081020CA
:1002200040808040201008040201800402018040C8
:100230002010080402010804020101020408102031
:100240004080010204081020408000000A0B0209CF
:100250000C0D0E0807030401000000000000000060
:10026000000000000000000000000000000000008E
:10027000000000000000121110000000000000004B
:10028000000000000000000000000000000000006E
:100290007E0811241FBECFEFD1E2DEBFCDBF00E04C
:1002A0000CBF12E0A0E0B2E0E0EAF6E100E00BBF34
:1002B00002C007900D92A030B107D9F722E0A0E06C
:1002C000B2E001C01D92A13CB207E1F711E0C9E420
:1002D000D1E000E006C021970109802FFE010E94B5
:1002E000460BC834D10780E00807A9F70E949F0495
:1002F0000C944E0B0C940000CF92DF92EF92FF9281
:10030000DC01A03282E0B807D4F5A53BB10514F0BA
:10031000A4EBB0E04091BF0228E830E0241B310993
:1003200047FD3395220F331F220F331F6901330F0F
:10033000EE08FF084091C00228E532E0241B310995
:1003400047FD3395220F331F220F331F032E000C5E
:10035000440B550B2C193D094E095F09B7FF02C02C
:10036000B0E0A0E00E94C30824EB30E040E050E0A1
:100370000E949908C20ED31EE41EF51ED601E0911C
:10038000BE02E03380F52091BF0288E890E0821B36
:10039000910927FD9395880F991F880F991FA8171A
:1003A000B90784F02091C00288E592E0821B910990
:1003B00027FD9395880F991F880F991FA817B907D4
:1003C0000CF4CD010297880F991F4FB7F8942E2F88
:1003D00030E0F901EE0FFF1FE20FF31FE25DFD4F6A
:1003E000928381834FBFFF90EF90DF90CF9008956D
:1003F0008150823108F05AC0E82FF0E08827EC5F86
:10040000FD4F8F4F0C94460B2402280216021C024B
:10041000200256022B02310235023B023F02430208
:1004200049024D025602510257025B028091800040
:100430008F77809380000895809180008F7DF9CF21
:1004400080918000877FF5CF84B58F7784BD089534
:1004500084B58F7DFBCF8091B0008F778093B00003
:1004600008958091B0008F7DF9CF809190008F77B3
:10047000809390000895809190008F7DF9CF8091B6
:100480009000877FF5CF8091A0008F778093A000A8
:1004900008958091A0008F7DF9CF8091A000877F83
:1004A000F5CF809120018F7780932001089580916E
:1004B00020018F7DF9CF80912001877FF5CF1F9399
:1004C000CF93DF93282F30E0F901E65BFD4F849155
:1004D000F901EC5FFD4FD491F901E254FE4FC49154
:1004E000CC23A9F0162F81110E94F801EC2FF0E027
:1004F000EE0FFF1FEC55FE4FA591B4918FB7F89406
:10050000EC91111108C0D095DE23DC938FBFDF91F1
:10051000CF911F910895DE2BF8CFCF93DF9390E01A
:10052000FC01EC5FFD4F249182549E4FFC018491AD
:100530008823D1F090E0880F991FFC01E657FE4F09
:10054000A591B491FC01EC55FE4FC591D491611178
:100550000EC09FB7F8948C91E22FE0958E238C9378
:100560002881E223E8839FBFDF91CF9108958FB761
:10057000F894EC91E22BEC938FBFF6CF3FB7F89451
:1005800080912A0290912B02A0912C02B0912D0211
:1005900026B5A89B05C02F3F19F00196A11DB11DDE
:1005A0003FBFBA2FA92F982F8827BC01CD01620F1A
:1005B000711D811D911D42E0660F771F881F991FD5
:1005C0004A95D1F70895AF92BF92CF92DF92EF9202
:1005D000FF920F931F93CF93DF936B017A01EC018E
:1005E000CF5FDD4F28813CE0389F8001399F100D9F
:1005F0001124A0900002B12C27FF1FC0FB01118223
:10060000108288818F5F888388819801280F311D2F
:1006100087FD3A95F6012A153B051CF488818C303C
:10062000C4F180819181049680349C4908F473C0A0
:10063000F60180819181049670C088819801280F0D
:10064000311D87FD3A952A153B05DCF68881A80106
:10065000480F511D87FD5A95FA01EE0FFF1FE40F59
:10066000F51FE25DFD4F808186FFCBCF8881F801C9
:10067000E80FF11D87FDFA95CF01EE0FFF1FE80F80
:10068000F91FE25DFD4F808160E08F730E945F0281
:10069000B8CF808191812881A801420F511D27FD8B
:1006A0005A959A01FA01EE0FFF1FE20FF31FE25D68
:1006B000FD4F21813281820F931FF7019183808347
:1006C00088819801280F311D87FD3A95F901EE0FB9
:1006D000FF1FE20FF31FE25DFD4F808186FF22C006
:1006E0008881080F111D87FD1A95F801EE0FFF1F75
:1006F000E00FF11FE25DFD4F808161E08F73DF91BC
:10070000CF911F910F91FF90EF90DF90CF90BF900E
:10071000AF900C945F0280E49CE9F70191838083A1
:100720008FEF8883DF91CF911F910F91FF90EF9012
:10073000DF90CF90BF90AF9008951F920F920FB6A9
:100740000F9211242F933F938F939F93AF93BF9357
:100750008091260290912702A0912802B09129024F
:100760003091250223E0230F2D3758F50196A11D66
:10077000B11D209325028093260290932702A09317
:100780002802B093290280912A0290912B02A09115
:100790002C02B0912D020196A11DB11D80932A0259
:1007A00090932B02A0932C02B0932D02BF91AF9196
:1007B0009F918F913F912F910F900FBE0F901F909F
:1007C000189526E8230F0296A11DB11DD2CF1F92C6
:1007D0000F920FB60F9211240BB60F922F933F93E7
:1007E0004F935F936F937F938F939F93AF93BF9339
:1007F000EF93FF9348E251E064E271E090E080E023
:100800000E94E302FF91EF91BF91AF919F918F9171
:100810007F916F915F914F913F912F910F900BBE00
:100820000F900FBE0F901F9018951F920F920FB64A
:100830000F9211240BB60F922F933F934F935F9318
:100840006F937F938F939F93AF93BF93EF93FF9398
:1008500048EA50E064EA70E083E090E00E94E3023E
:10086000FF91EF91BF91AF919F918F917F916F9188
:100870005F914F913F912F910F900BBE0F900FBE44
:100880000F901F9018951F920F920FB60F92112480
:100890000BB60F922F933F934F935F936F937F937A
:1008A0008F939F93AF93BF93EF93FF9348E950E0EB
:1008B00064E970E082E090E00E94E302FF91EF9132
:1008C000BF91AF919F918F917F916F915F914F9168
:1008D0003F912F910F900BBE0F900FBE0F901F9066
:1008E00018951F920F920FB60F9211240BB60F920C
:1008F0002F933F934F935F936F937F938F939F9328
:10090000AF93BF93EF93FF9348E850E064E870E043
:1009100081E090E00E94E302FF91EF91BF91AF91DF
:100920009F918F917F916F915F914F913F912F9107
:100930000F900BBE0F900FBE0F901F9018957894DC
:1009400084B5826084BD84B5816084BD85B58260D4
:1009500085BD85B5816085BD80916E008160809385
:100960006E001092810080918100826080938100EE
:1009700080918100816080938100809180008160FE
:10098000809380008091B10084608093B100809159
:10099000B00081608093B00080919100826080936C
:1009A00091008091910081608093910080919000EE
:1009B0008160809390008091A10082608093A1006B
:1009C0008091A10081608093A1008091A00081604E
:1009D0008093A00080912101826080932101809109
:1009E00021018160809321018091200181608093A9
:1009F000200180917A00846080937A0080917A004F
:100A0000826080937A0080917A00816080937A007E
:100A100080917A00806880937A001092C10060E033
:100A200082E00E948D0260E086E30E948D02809148
:100A3000BE02803308F052C061E088E00E948D025F
:100A40008091BE02282F30E0F901EE0FFF1FE20F68
:100A5000F31FE25DFD4F9081907C9860908310922F
:100A6000BF021092C0022CE0622F0E943A0B829FBC
:100A7000B001112430E020E0AB01420F531FFA0116
:100A8000EE0FFF1FE40FF51FE25DFD4F908196FD15
:100A900017C02F5F3F4F2C30310571F7813009F0BF
:100AA00001C11092800082E0809381001092850045
:100AB00010928400B19A80916F00826080936F00E1
:100AC000E091BE028E2F90E0FC01EE0FFF1FE80FB9
:100AD000F91FE25DFD4F80818064808361E089E0E1
:100AE0000E948D0261E08AE00E948D0261E08BE04D
:100AF0000E948D0260E089E00E945F0261E08AE06E
:100B00000E945F0261E08BE00E948D0260E08BE05A
:100B10000E945F0290E080E00E947C0120E0222E93
:100B200020E0322E00E4C3E0D1E015E080917B00AC
:100B3000877F80937B0000937C0080917A008064A3
:100B400080937A0080917A0086FDFCCF60917800D6
:100B500070917900072E000C880B990B0E94180ADF
:100B60004B015C0180921D0290921E02A0921F0216
:100B7000B0922002ECE4F2E08491E6E0F2E0F4903E
:100B8000E0ECF1E0E49070E060E0EE2099F081119B
:100B90000E94F801EE2DF0E0EE0FFF1FE059FE4F2E
:100BA000A591B4918C91F82291E080E009F490E055
:100BB000692F782F072E000C880B990B0E94180ABA
:100BC0006093210270932202809323029093240267
:100BD00020911102211192C0D0931102C0931202F0
:100BE000609115027091160280911702909118027F
:100BF0000E94E0096115710591F0169FA001179FF1
:100C0000500D11242091130230911402CA01820F59
:100C1000931F90931402809313020E947C016091B1
:100C2000190270911A0280911B0290911C020E947D
:100C3000E0094B017B0161E08BE00E948D02811491
:100C4000910409F097C160E08BE00E945F020E946E
:100C5000BE024B015C0184E6C82ED12CE12CF12CA4
:100C60000E94BE02681979098A099B09683E73408F
:100C700081059105A8F321E0C21AD108E108F10825
:100C800088EE880E83E0981EA11CB11CC114D1040B
:100C9000E104F10429F72114310409F447CF0E943B
:100CA000000040CF823061F4109290008093910058
:100CB000109295001092940088BB8093710000CF31
:100CC000833069F41092A00082E08093A10010921A
:100CD000A5001092A40089BB80937200F1CE81110F
:100CE000EFCE1092200182E0809321011092250125
:100CF000109224018ABB80937300E2CEC090090257
:100D0000D0900A02E0900B02F0900C0220911202A7
:100D10002130F1F1223009F4ADC020E030E44CE99B
:100D200055E40E94CD0A9B01AC0160E070E48CE1C7
:100D300096E40E94FC0820E030E048EC52E40E9477
:100D40006E0920E030E040E85FE30E94FC082B01E0
:100D50003C01AC019B01C701B6010E94C80A87FD96
:100D6000B0C080E090E0A0E8BFE3809315029093CC
:100D70001602A0931702B093180210920902109263
:100D80000A0210920B0210920C02D093120221C0A0
:100D900020E030E04CE052E4C701B6010E94C80AEE
:100DA00087FD4DC080E090E0A0E8BFEB8093150286
:100DB00090931602A0931702B093180210920902A2
:100DC00010920A0210920B0210920C0292E0909381
:100DD000120220E030E048EC52E460910D02709184
:100DE0000E0280910F02909110020E946E0920E085
:100DF00030E040E85FE30E94FC082B013C01C0901A
:100E00000502D0900602E0900702F0900802A701C8
:100E100096010E94C80A18160CF06CC020E030E061
:100E200040E85FE3C701B6010E94FD086093050238
:100E3000709306028093070290930802D1CE20E0BF
:100E400030E04CE052E4C701B6010E94690987FF17
:100E5000C0CF20E030E040E85FE3C701B6010E9468
:100E6000FD086093090270930A0280930B0290932D
:100E70000C02AFCF20E030E04CE052E4C701B601F5
:100E80000E94690987FDE5CF20E030E04CE052E4A4
:100E9000C701B6010E94C80A87FD9BCF10921502B8
:100EA0001092160210921702109218021092090264
:100EB00010920A0210920B0210920C02C0931202BE
:100EC00088CFA3019201C701B6010E94690987FF7B
:100ED00080CF20E030E040E85FE3C701B6010E9428
:100EE000FD086093090270930A0280930B029093AD
:100EF0000C02E4CFA7019601C301B2010E94690967
:100F000018160CF46DCE20E030E040EA51E4C50143
:100F1000B4010E94FC082AED30EF49EF5EE30E9425
:100F2000CD0A20E030E040E252E40E94FC0820E0DC
:100F300030E040EA51E40E94FC0820E030E04FE756
:100F400053E40E94CD0A20E030EC49E853E40E94CB
:100F50006E096093190270931A0280931B0290939A
:100F60001C021092050210920602109207021092C3
:100F7000080236CEAFEF8A16910411F461E064CE18
:100F8000E5E5F2E08491EFEFE80FE23108F0B0C060
:100F9000F0E08827E153F84F8F4F0C94460BE107A0
:100FA000E607EB07F507FF07780809081108190895
:100FB00023082D0837084608500878085A0864089E
:100FC0006E0884B5806884BD87BC41CE84B58062DC
:100FD00084BD88BC3CCE8091800080688093800076
:100FE000909289008092880032CE80918000806249
:100FF0008093800090928B0080928A0028CE80910E
:10100000800088608093800090928D0080928C0098
:101010001ECE8091B00080688093B0008092B300B3
:1010200016CE8091B00080628093B0008092B400B0
:101030000ECE8091900080688093900090929900ED
:101040008092980004CE80919000806280939000FE
:1010500090929B0080929A00FACD809190008860D7
:101060008093900090929D0080929C00F0CD8091A2
:10107000A00080688093A0008091A0008F7B809367
:10108000A0009092A9008092A800E1CD8091A000DC
:1010900080628093A0009092AB008092AA00D7CD8E
:1010A0008091A00088608093A0009092AD00809213
:1010B000AC00CDCD8091200180688093200190927A
:1010C000290180922801C3CD809120018062809304
:1010D000200190922B0180922A01B9CD80912001AC
:1010E00088608093200190922D0180922C01AFCDD9
:1010F000F0E8EF16F1040CF041CFA5CD809100028D
:10110000803398F491E0980F909300028093BE0290
:1011100090E0FC01EE0FFF1FE80FF91FE25DFD4FAD
:1011200088EB9BE09283818308958FEF8093BE02CA
:101130000895052E97FB1EF400940E94B00857FDF9
:1011400007D00E94CB0807FC03D04EF40C94B008E3
:1011500050954095309521953F4F4F4F5F4F0895E3
:1011600090958095709561957F4F8F4F9F4F089513
:101170000E94ED08A59F900DB49F900DA49F800D37
:10118000911D11240895B7FF0C94B8080E94B80867
:10119000821B930B0895A1E21A2EAA1BBB1BFD0113
:1011A0000DC0AA1FBB1FEE1FFF1FA217B307E40746
:1011B000F50720F0A21BB30BE40BF50B661F771F9E
:1011C000881F991F1A9469F760957095809590957E
:1011D0009B01AC01BD01CF010895A29FB001B39F57
:1011E000C001A39F700D811D1124911DB29F700D30
:1011F000811D1124911D08955058BB27AA270E94D4
:1012000014090C948E0A0E94800A38F00E94870A02
:1012100020F039F49F3F19F426F40C947D0A0EF463
:10122000E095E7FB0C94770AE92F0E949F0A58F398
:10123000BA17620773078407950720F079F4A6F5BB
:101240000C94C10A0EF4E0950B2EBA2FA02D0B01C1
:10125000B90190010C01CA01A0011124FF27591BFB
:1012600099F0593F50F4503E68F11A16F040A22F01
:10127000232F342F4427585FF3CF46953795279572
:10128000A795F0405395C9F77EF41F16BA0B620B71
:10129000730B840BBAF09150A1F0FF0FBB1F661FB8
:1012A000771F881FC2F70EC0BA0F621F731F841FFB
:1012B00048F4879577956795B795F7959E3F08F021
:1012C000B0CF9395880F08F09927EE0F97958795E3
:1012D00008950E94530A08F481E008950E9482094B
:1012E0000C948E0A0E94870A58F00E94800A40F0EF
:1012F00029F45F3F29F00C94770A51110C94C20A2B
:101300000C947D0A0E949F0A68F39923B1F3552338
:1013100091F3951B550BBB27AA2762177307840708
:1013200038F09F5F5F4F220F331F441FAA1FA9F39E
:1013300035D00E2E3AF0E0E832D091505040E6958C
:10134000001CCAF72BD0FE2F29D0660F771F881FED
:10135000BB1F261737074807AB07B0E809F0BB0BE0
:10136000802DBF01FF2793585F4F3AF09E3F5105F4
:1013700078F00C94770A0C94C20A5F3FE4F3983E2D
:10138000D4F3869577956795B795F7959F5FC9F7DD
:10139000880F911D9695879597F90895E1E0660F5E
:1013A000771F881FBB1F621773078407BA0720F0D7
:1013B000621B730B840BBA0BEE1F88F7E095089540
:1013C0000E94E7096894B1110C94C20A08950E9422
:1013D000A70A88F09F5798F0B92F9927B751B0F016
:1013E000E1F0660F771F881F991F1AF0BA95C9F7A9
:1013F00014C0B13091F00E94C10AB1E008950C947C
:10140000C10A672F782F8827B85F39F0B93FCCF32E
:10141000869577956795B395D9F73EF49095809525
:10142000709561957F4F8F4F9F4F0895E89409C045
:1014300097FB3EF490958095709561957F4F8F4F07
:101440009F4F9923A9F0F92F96E9BB279395F6951D
:10145000879577956795B795F111F8CFFAF4BB0F9B
:1014600011F460FF1BC06F5F7F4F8F4F9F4F16C0FF
:10147000882311F096E911C0772321F09EE8872F89
:10148000762F05C0662371F096E8862F70E060E045
:101490002AF09A95660F771F881FDAF7880F9695BE
:1014A000879597F90895990F0008550FAA0BE0E862
:1014B000FEEF16161706E807F907C0F01216130616
:1014C000E407F50798F0621B730B840B950B39F456
:1014D0000A2661F0232B242B252B21F408950A26BC
:1014E00009F4A140A6958FEF811D811D089597F9FC
:1014F0009F6780E870E060E008959FEF80EC0895BA
:1015000000240A94161617061806090608950024E2
:101510000A9412161306140605060895092E03945C
:10152000000C11F4882352F0BB0F40F4BF2B11F4D0
:1015300060FF04C06F5F7F4F8F4F9F4F089557FD2F
:101540009058440F551F59F05F3F71F04795880F31
:1015500097FB991F61F09F3F79F0879508951216C8
:1015600013061406551FF2CF4695F1DF08C0161674
:1015700017061806991FF1CF869571056105089425
:101580000895E894BB2766277727CB0197F908953C
:101590000E94530A08F48FEF08950E94E00A0C9409
:1015A0008E0A0E94800A38F00E94870A20F0952354
:1015B00011F00C94770A0C947D0A11240C94C20A41
:1015C0000E949F0A70F3959FC1F3950F50E0551F3D
:1015D000629FF001729FBB27F00DB11D639FAA2788
:1015E000F00DB11DAA1F649F6627B00DA11D661FD7
:1015F000829F2227B00DA11D621F739FB00DA11DF8
:10160000621F839FA00D611D221F749F3327A00DB1
:10161000611D231F849F600D211D822F762F6A2F4D
:1016200011249F5750409AF0F1F088234AF0EE0FB2
:10163000FF1FBB1F661F771F881F91505040A9F7DF
:101640009E3F510580F00C94770A0C94C20A5F3FCC
:10165000E4F3983ED4F3869577956795B795F7951B
:10166000E7959F5FC1F7FE2B880F911D9695879593
:1016700097F90895991B79E004C0991F961708F00F
:10168000961B881F7A95C9F780950895EE0FFF1F66
:10169000881F8BBF0790F691E02D1994F894FFCF27
:00000001FF
