:100000000C9462000C948A000C948A000C948A0070
:100010000C948A000C948A000C948A000C948A0038
:100020000C948A000C948A000C948A000C94FF01B2
:100030000C948A000C948A000C948A000C948A0018
:100040000C94B5010C948A000C948A000C948A00DC
:100050000C948A000C948A000C948A000C948A00F8
:100060000C948A000C948A000000000023002600F3
:10007000290000000000240027002A0000000000E2
:10008000250028002B0004040404040404040202D4
:100090000202020203030303030301020408102007
:1000A0004080010204081020010204081020000012
:1000B0000008000201000003040700000000000027
:1000C0000000C00511241FBECFEFD8E0DEBFCDBFBA
:1000D00011E0A0E0B1E0E0E2F1E102C005900D9294
:1000E000A030B107D9F721E0A0E0B1E001C01D9236
:1000F000A235B207E1F710E0C2E6D0E004C02197D4
:10010000FE010E948808C136D107C9F70E94BB02D0
:100110000C948E080C940000CF92DF92EF92FF9225
:10012000DC01A03282E0B807D4F5A53BB10514F09C
:10013000A4EBB0E04091500128E830E0241B3109E5
:1001400047FD3395220F331F220F331F6901330FF1
:10015000EE08FF084091510128E532E0241B3109E7
:1001600047FD3395220F331F220F331F032E000C40
:10017000440B550B2C193D094E095F09B7FF02C00E
:10018000B0E0A0E00E94050624EB30E040E050E043
:100190000E94DB05C20ED31EE41EF51ED601E091BF
:1001A0004F01EC3080F52091500188E890E0821BEF
:1001B000910927FD9395880F991F880F991FA817FC
:1001C000B90784F02091510188E592E0821B9109E2
:1001D00027FD9395880F991F880F991FA817B907B6
:1001E0000CF4CD010297880F991F4FB7F8942E2F6A
:1001F00030E0F901EE0FFF1FE20FF31FE55DFE4F48
:10020000928381834FBFFF90EF90DF90CF9008954E
:10021000833081F028F4813099F08230A9F008957C
:100220008730A9F08830C9F08430B1F48091800023
:100230008F7D03C0809180008F7780938000089528
:1002400084B58F7784BD089584B58F7DFBCF809171
:10025000B0008F778093B00008958091B0008F7DBB
:10026000F9CF1F93CF93DF93282F30E0F901E255A8
:10027000FF4F8491F901E656FF4FD491F901EA57F7
:10028000FF4FC491CC23A9F0162F81110E940801C1
:10029000EC2FF0E0EE0FFF1FE458FF4FA591B49153
:1002A0008FB7F894EC91111108C0D095DE23DC9340
:1002B0008FBFDF91CF911F910895DE2BF8CFCF93A1
:1002C000DF9390E0FC01E656FF4F24918A579F4F41
:1002D000FC0184918823D1F090E0880F991FFC01E4
:1002E000EE58FF4FA591B491FC01E458FF4FC59122
:1002F000D49161110EC09FB7F8948C91E22FE095D4
:100300008E238C932881E223E8839FBFDF91CF91D6
:1003100008958FB7F894EC91E22BEC938FBFF6CF52
:100320003FB7F8948091270190912801A09129016D
:10033000B0912A0126B5A89B05C02F3F19F0019660
:10034000A11DB11D3FBFBA2FA92F982F8827BC012F
:10035000CD01620F711D811D911D42E0660F771F57
:10036000881F991F4A95D1F708951F920F920FB6D3
:100370000F9211242F933F938F939F93AF93BF932B
:100380008091230190912401A0912501B091260133
:100390003091220123E0230F2D3758F50196A11D3E
:1003A000B11D209322018093230190932401A093F7
:1003B0002501B09326018091270190912801A091F9
:1003C0002901B0912A010196A11DB11D8093270139
:1003D00090932801A0932901B0932A01BF91AF9176
:1003E0009F918F913F912F910F900FBE0F901F9073
:1003F000189526E8230F0296A11DB11DD2CF1F929A
:100400000F920FB60F9211242F933F934F935F9348
:100410006F937F938F939F93AF93BF93CF93DF930C
:10042000EF93FF9380910101C0910001D0E087FF1D
:1004300024C01092850010928400809101018F5F8A
:100440008093010180910101082E000C990B8C17FB
:100450009D0724F4809101018C30C4F180918400C7
:1004600090918500049680349C4908F47AC080916C
:10047000840090918500049676C080910101082E39
:10048000000C990B8C179D07C4F6E09101018E2F8B
:10049000EE0F990BFC01EE0FFF1FE80FF91FE55D52
:1004A000FE4F808186FFC9CFE09101018E2FEE0FB4
:1004B000990BFC01EE0FFF1FE80FF91FE55DFE4FE2
:1004C000808160E08F730E943101B7CF209184005A
:1004D00030918500E09101018E2FEE0F990BFC0108
:1004E000EE0FFF1FE80FF91FE55DFE4F818192813E
:1004F000820F931F9093890080938800E0910101FF
:100500008E2FEE0F990BFC01EE0FFF1FE80FF91F66
:10051000E55DFE4F808186FF11C0E09101018E2FC5
:10052000EE0F990BFC01EE0FFF1FE80FF91FE55DC1
:10053000FE4F808161E08F730E943101FF91EF9146
:10054000DF91CF91BF91AF919F918F917F916F91EB
:100550005F914F913F912F910F900FBE0F901F9081
:10056000189580E49CE990938900809388008FEF30
:1005700080930101E3CF789484B5826084BD84B513
:10058000816084BD85B5826085BD85B5816085BD8E
:1005900080916E00816080936E0010928100809146
:1005A00081008260809381008091810081608093CE
:1005B0008100809180008160809380008091B100F3
:1005C00084608093B1008091B00081608093B0001E
:1005D00080917A00846080937A0080917A008260B2
:1005E00080937A0080917A00816080937A00809174
:1005F0007A00806880937A001092C10060E082E007
:100600000E945F0160E08EE00E945F0180914F01D7
:100610008C3008F051C061E088E00E945F01809159
:100620004F01282F30E0F901EE0FFF1FE20FF31FFB
:10063000E55DFE4F9081907C986090831092500110
:10064000109251012CE0622F0E947C08829FB00121
:10065000112430E020E0AB01420F531FFA01EE0FEE
:10066000FF1FE40FF51FE55DFE4F908196FD16C05C
:100670002F5F3F4F2C30310571F781110FC0109261
:10068000800082E0809381001092850010928400A7
:10069000B19A80916F00826080936F00E0914F016A
:1006A0008E2F90E0FC01EE0FFF1FE80FF91FE55DB4
:1006B000FE4F80818064808361E089E00E945F0159
:1006C00061E08AE00E945F0161E08BE00E945F01CF
:1006D00060E089E00E94310161E08AE00E9431011E
:1006E00061E08BE00E945F0160E08BE00E943101DD
:1006F00090E080E00E948C0020E0222E20E0322E4C
:1007000000E4C3E0D1E015E000937C0080917A0022
:10071000806480937A0080917A0086FDFCCF60919E
:10072000780070917900072E000C880B990B0E94BD
:100730005A074B015C0180921A0190921B01A09212
:100740001C01B0921D01E0EBF0E08491ECE9F0E0D7
:10075000F490E8E8F0E0E49070E060E0EE2099F0DA
:1007600081110E940801EE2DF0E0EE0FFF1FE85905
:10077000FF4FA591B4918C91F82291E080E009F4AB
:1007800090E0692F782F072E000C880B990B0E94A0
:100790005A0760931E0170931F018093200190936C
:1007A000210120910E01211166C0D0930E01C0934A
:1007B0000F016091120170911301809114019091C9
:1007C00015010E9422076115710591F0169FA00185
:1007D000179F500D11242091100130911101CA0171
:1007E000820F931F90931101809310010E948C003F
:1007F0006091160170911701809118019091190173
:100800000E9422074B017B0161E08BE00E945F01A7
:100810008114910409F06BC160E08BE00E9431010A
:100820000E9490014B015C0184E6C82ED12CE12C82
:10083000F12C0E949001681979098A099B09683E88
:10084000734081059105A8F321E0C21AD108E1089F
:10085000F10888EE880E83E0981EA11CB11CC1141B
:10086000D104E104F10429F72114310409F44CCF37
:100870000E94000045CFC0900601D0900701E09093
:100880000801F090090120910F012130E9F1223097
:1008900009F4ACC020E030E44CE955E40E940F08B4
:1008A0009B01AC0160E070E48CE196E40E943E069E
:1008B00020E030E048EC52E40E94B00620E030E056
:1008C00040E85FE30E943E062B013C01A701960130
:1008D0000E94AB0618160CF4B0C080E090E0A0E8CF
:1008E000BFE38093120190931301A0931401B0937E
:1008F0001501109206011092070110920801109242
:100900000901D0930F0121C020E030E04CE052E417
:10091000C701B6010E940A0887FD4DC080E090E043
:10092000A0E8BFEB8093120190931301A0931401F0
:10093000B093150110920601109207011092080160
:100940001092090192E090930F0120E030E048EC12
:1009500052E460910A0170910B0180910C01909119
:100960000D010E94B00620E030E040E85FE30E9405
:100970003E062B013C01C0900201D0900301E090A3
:100980000401F0900501A70196010E940A081816BB
:100990000CF06DC020E030E040E85FE3C701B60135
:1009A0000E943F066093020170930301809304014B
:1009B00090930501FECE20E030E04CE052E4C70108
:1009C000B6010E94AB0687FFC0CF20E030E040E8D0
:1009D0005FE3C701B6010E943F0660930601709372
:1009E00007018093080190930901AFCF20E030E028
:1009F0004CE052E4C701B6010E94AB0687FDE5CF8B
:100A000020E030E04CE052E4C701B6010E940A0841
:100A100087FD9BCF109212011092130110921401C6
:100A20001092150110920601109207011092080110
:100A300010920901C0930F0188CFA7019601C3014D
:100A4000B2010E940A0818160CF07FCF20E030E0B7
:100A500040E85FE3C701B6010E943F0660930601CC
:100A6000709307018093080190930901E3CFA701D8
:100A70009601C301B2010E94AB0618160CF499CE80
:100A800020E030E040EA51E4C501B4010E943E0696
:100A90002AED30EF49EF5EE30E940F0820E030E0DE
:100AA00040E252E40E943E0620E030E040EA51E499
:100AB0000E943E0620E030E04FE753E40E940F081A
:100AC00020E030EC49E853E40E94B0066093160140
:100AD00070931701809318019093190110920201ED
:100AE00010920301109204011092050162CEAFEF43
:100AF0008A16910411F461E090CEE9EBF0E0849164
:100B0000833021F148F48130B9F08230D1F0F0E83F
:100B1000EF16F10484F780CE873011F1883041F16F
:100B20008430A9F780918000806280938000909249
:100B30008B0080928A0074CE84B5806884BD87BCA7
:100B40006FCE84B5806284BD88BC6ACE80918000FF
:100B5000806880938000909289008092880060CEA7
:100B60008091B00080688093B0008092B30058CE2E
:100B70008091B00080628093B0008092B40050CE2B
:100B8000809100018C3098F491E0980F90930001CF
:100B900080934F0190E0FC01EE0FFF1FE80FF91F5B
:100BA000E55DFE4F88EB9BE09283818308958FEF94
:100BB00080934F010895052E97FB1EF400940E9428
:100BC000F20557FD07D00E940D0607FC03D04EF436
:100BD0000C94F20550954095309521953F4F4F4F1D
:100BE0005F4F089590958095709561957F4F8F4FD9
:100BF0009F4F08950E942F06A59F900DB49F900DC2
:100C0000A49F800D911D11240895B7FF0C94FA053F
:100C10000E94FA05821B930B0895A1E21A2EAA1BCB
:100C2000BB1BFD010DC0AA1FBB1FEE1FFF1FA2179C
:100C3000B307E407F50720F0A21BB30BE40BF50B99
:100C4000661F771F881F991F1A9469F76095709522
:100C5000809590959B01AC01BD01CF010895A29FA5
:100C6000B001B39FC001A39F700D811D1124911D80
:100C7000B29F700D811D1124911D08955058BB27FE
:100C8000AA270E9456060C94D0070E94C20738F08B
:100C90000E94C90720F039F49F3F19F426F40C9400
:100CA000BF070EF4E095E7FB0C94B907E92F0E940B
:100CB000E10758F3BA17620773078407950720F016
:100CC00079F4A6F50C9403080EF4E0950B2EBA2FD8
:100CD000A02D0B01B90190010C01CA01A001112442
:100CE000FF27591B99F0593F50F4503E68F11A16EE
:100CF000F040A22F232F342F4427585FF3CF46957F
:100D000037952795A795F0405395C9F77EF41F16A0
:100D1000BA0B620B730B840BBAF09150A1F0FF0F6A
:100D2000BB1F661F771F881FC2F70EC0BA0F621F56
:100D3000731F841F48F4879577956795B795F79546
:100D40009E3F08F0B0CF9395880F08F09927EE0FDB
:100D50009795879508950E94950708F481E0089576
:100D60000E94C4060C94D0070E94C90758F00E9444
:100D7000C20740F029F45F3F29F00C94B9075111E4
:100D80000C9404080C94BF070E94E10768F39923B0
:100D9000B1F3552391F3951B550BBB27AA27621777
:100DA0007307840738F09F5F5F4F220F331F441F84
:100DB000AA1FA9F335D00E2E3AF0E0E832D09150B8
:100DC0005040E695001CCAF72BD0FE2F29D0660FA5
:100DD000771F881FBB1F261737074807AB07B0E8E8
:100DE00009F0BB0B802DBF01FF2793585F4F3AF0EE
:100DF0009E3F510578F00C94B9070C9404085F3FAE
:100E0000E4F3983ED4F3869577956795B795F79573
:100E10009F5FC9F7880F911D9695879597F908955B
:100E2000E1E0660F771F881FBB1F621773078407F7
:100E3000BA0720F0621B730B840BBA0BEE1F88F706
:100E4000E09508950E9429076894B1110C94040854
:100E500008950E94E90788F09F5798F0B92F9927C5
:100E6000B751B0F0E1F0660F771F881F991F1AF095
:100E7000BA95C9F714C0B13091F00E940308B1E0EF
:100E800008950C940308672F782F8827B85F39F0EE
:100E9000B93FCCF3869577956795B395D9F73EF42E
:100EA00090958095709561957F4F8F4F9F4F0895D6
:100EB000E89409C097FB3EF49095809570956195F4
:100EC0007F4F8F4F9F4F9923A9F0F92F96E9BB27AA
:100ED0009395F695879577956795B795F111F8CF26
:100EE000FAF4BB0F11F460FF1BC06F5F7F4F8F4F91
:100EF0009F4F16C0882311F096E911C0772321F087
:100F00009EE8872F762F05C0662371F096E8862F1E
:100F100070E060E02AF09A95660F771F881FDAF775
:100F2000880F9695879597F90895990F0008550FA2
:100F3000AA0BE0E8FEEF16161706E807F907C0F05F
:100F400012161306E407F50798F0621B730B840B67
:100F5000950B39F40A2661F0232B242B252B21F441
:100F600008950A2609F4A140A6958FEF811D811DE1
:100F7000089597F99F6780E870E060E008959FEF1B
:100F800080EC089500240A94161617061806090620
:100F9000089500240A9412161306140605060895EF
:100FA000092E0394000C11F4882352F0BB0F40F477
:100FB000BF2B11F460FF04C06F5F7F4F8F4F9F4FB7
:100FC000089557FD9058440F551F59F05F3F71F039
:100FD0004795880F97FB991F61F09F3F79F08795A0
:100FE0000895121613061406551FF2CF4695F1DF29
:100FF00008C0161617061806991FF1CF86957105B9
:10100000610508940895E894BB2766277727CB01EC
:1010100097F908950E94950708F48FEF08950E94AC
:1010200022080C94D0070E94C20738F00E94C9071A
:1010300020F0952311F00C94B9070C94BF071124EC
:101040000C9404080E94E10770F3959FC1F3950F7B
:1010500050E0551F629FF001729FBB27F00DB11D3C
:10106000639FAA27F00DB11DAA1F649F6627B00DCC
:10107000A11D661F829F2227B00DA11D621F739FB5
:10108000B00DA11D621F839FA00D611D221F749FC3
:101090003327A00D611D231F849F600D211D822F0A
:1010A000762F6A2F11249F5750409AF0F1F0882331
:1010B0004AF0EE0FFF1FBB1F661F771F881F91505E
:1010C0005040A9F79E3F510580F00C94B9070C944D
:1010D00004085F3FE4F3983ED4F3869577956795CF
:1010E000B795F795E7959F5FC1F7FE2B880F911D88
:1010F0009695879597F90895991B79E004C0991FF3
:10110000961708F0961B881F7A95C9F78095089561
:10111000EE0FFF1F0590F491E02D0994F894FFCF96
:00000001FF
