:1000000075C00000A3C00000A1C000009FC0000098
:100010009DC000009BC0000099C0000097C0000078
:1000200095C0000093C0000091C000008FC0000088
:100030008DC000008BC0000089C0000087C0000098
:1000400085C0000083C0000081C000007FC00000A8
:100050007DC000007BC0000079C00000E0C400004B
:1000600075C00000B2C60000E6C600006FC0000008
:100070006DC000006BC0000069C0000067C00000D8
:1000800065C0000063C0000061C000005FC00000E8
:1000900028C700005CC7000059C0000057C000001E
:1000A00055C0000053C0000051C000004FC0000008
:1000B0004DC000004BC0000049C0000047C0000018
:1000C00045C0000043C0000036C2000096C70000D3
:1000D000CAC700003BC000000C9489080C94BF08FC
:1000E00035C000004407D0075C08E80811241FBE93
:1000F000CFEFD1E2DEBFCDBF00E00CBF12E0A0E049
:10010000B2E0EAE3F3E100E00BBF02C007900D921A
:10011000AE31B107D9F724E0AEE1B2E001C01D92E3
:10012000A43BB207E1F710E0C6E7D0E000E006C06C
:1001300021970109802FFE010E947809C237D1075B
:1001400080E00807A9F75DD20C949B0959CFCF92A4
:10015000DF92EF92FF926B017C019F7720E030E00D
:1001600040E859E5FDD287FF26C020E030E040E0BE
:100170005FE3C701B601ECD387FD0CC020E030E09F
:1001800040E05FE3C701B60174D2FF90EF90DF90CB
:10019000CF9016C320E030E040E05FEBC701B6012E
:1001A000D7D318167CF420E030E0A901C701B601CE
:1001B000D3D36B017C01C701B601FF90EF90DF90B4
:1001C000CF90089520E030E040E05FE3C701B60142
:1001D0004FD2FF90EF90DF90CF90AFC2CF92DF92DF
:1001E000EF92FF920F931F93CF93DF938091AC0414
:1001F00081110FC081E08093AC0483E08093AD0453
:10020000DF91CF911F910F91FF90EF90DF90CF90F2
:100210000895C091AA04D091AB048091AD048130BF
:1002200009F49CC0823009F4AAC020E030E44CE913
:1002300055E46091A2047091A3048091A40490916C
:10024000A5048AD384DF6B017C0120E030E040E824
:1002500057E486D26FEF7FEF87FF0DC020E030E0DC
:10026000A901C701B60174D370E060E087FD03C047
:10027000C701B60179D200E117E2061B170B20E097
:1002800030E040E857E4C701B6016AD287FF96C064
:1002900020E030E0A901C701B6015AD387FD07C0AD
:1002A000C701B60161D26131774208F087C0C80149
:1002B00064E670E0E7D7C29708F483C06F5F7F4FB2
:1002C00061507109C617D70708F07FC020E030E001
:1002D00040E857E4C701B60143D26FEF7FEF87FFD5
:1002E0000DC020E030E0A901C701B60131D370E0B4
:1002F00060E087FD03C0C701B60136D200E117E216
:10030000061B170B20E030E040E857E4C701B601B8
:1003100027D287FF65C020E030E0A901C701B60100
:1003200017D387FD07C0C701B6011ED261317742DE
:1003300008F056C0C80164E670E0A4D7C29708F47C
:1003400052C06F5F7F4F61507109C617D707F8F42D
:100350002196D093AB04C093AA042EC0C131D1051D
:1003600088F08FEF9FEF9093AF048093AE041092CC
:10037000AB041092AA0482E08093AD0408C0C1319E
:10038000D10590F42196D093AB04C093AA04809138
:10039000A8049091A9048930910548F5019690939D
:1003A000A9048093A8042CCF1092AF041092AE043D
:1003B0001092AB041092AA0483E0DECF10E000E0BC
:1003C00076CF6115710509F07BCF81E090E09093C5
:1003D000AF048093AE041092AB041092AA04CCCF69
:1003E00010E000E0A7CF6115710589F2ACCF209134
:1003F000A6043091A704220F331F8091040290912C
:10040000050244E0969587954A95E1F7281B390B3C
:10041000A0910802B091090279D79C0136952795E1
:100420008091020290910302959587959595879505
:10043000280F391F220F331F809106029091070267
:10044000E3E096958795EA95E1F7281B390BA09193
:100450000002B091010254D7FFE0959587957795FA
:100460006795FA95D1F77093B1046093B004109238
:10047000A9041092A804C4CE0895089526E030E09F
:1004800040E855E260E070E090E080E000C010924B
:100490002102109220028930910508F039C0FC0138
:1004A0008827EB5AFD4F8F4F23C75E026702700209
:1004B0007902820289028C028F02950281E090E02B
:1004C00090932102809320028EE292E01EC482E08B
:1004D00090E090932102809320028BEC92E0F6CF83
:1004E00084E090E0909321028093200288E693E0DC
:1004F000EDCF88E090E0909321028093200285E088
:1005000094E0E4CF80E190E0909321028093200278
:10051000089580E290E0F8CF80E490E0F5CF80E8A5
:1005200090E090932102809320028091200290918C
:1005300021029160E9CF1F920F920FB60F92112402
:100540000BB60F922F933F934F935F936F937F93CD
:100550008F939F93AF93BF93EF93FF9386E997EEAB
:10056000909325018093240134D0FF91EF91BF91A6
:10057000AF919F918F917F916F915F914F913F913B
:100580002F910F900BBE0F900FBE0F901F901895DC
:1005900086E997EE9093250180932401A3E7B0E0CC
:1005A0008C918E7F8C93E0E2F1E080818C7F808360
:1005B000E1E2F1E08081877E8083808184608083B6
:1005C00080818C7F80838C9181608C93089581E001
:1005D00008958091220291E0980F9093220288233F
:1005E00049F021E030E030932402209323028093ED
:1005F000220208957894F2DDF894809122028150CD
:10060000F6CFCF93DF931092B3041092B20451D27D
:1006100035DFC0910A02D0910B02198218822CDFBB
:10062000F894B6DF2881398181E0232B09F080E03E
:100630008093B204789478948091B204811107C0B9
:100640001CDFF89490E080E0DF91CF91089528813D
:10065000398181E0232B09F480E08093B3049091E9
:10066000B30481E0911180E08093B204B0DFE4CF65
:100670005058BB27AA270ED01AC10BD130F010D189
:1006800020F031F49F3F11F41EF400C10EF4E09508
:10069000E7FBCDC0E92F1CD180F3BA1762077307BF
:1006A0008407950718F071F49EF54BC10EF4E095A0
:1006B0000B2EBA2FA02D0B01B90190010C01CA011C
:1006C000A0011124FF27591B99F0593F50F4503EC7
:1006D00068F11A16F040A22F232F342F4427585FB9
:1006E000F3CF469537952795A795F0405395C9F7D1
:1006F0007EF41F16BA0B620B730B840BBAF0915089
:10070000A1F0FF0FBB1F661F771F881FC2F70EC027
:10071000BA0F621F731F841F48F4879577956795FA
:10072000B795F7959E3F08F0B3CF9395880F08F0E3
:100730009927EE0F979587950895ECD080F09F3715
:1007400040F491110EF4FEC060E070E080E89FE399
:10075000089526F01B16611D711D811D6EC088C095
:1007600042D008F481E00895BBD088F09F5790F004
:10077000B92F9927B751A0F0D1F0660F771F881FC6
:10078000991F1AF0BA95C9F712C0B13081F0D9D0CB
:10079000B1E00895D6C0672F782F8827B85F39F069
:1007A000B93FCCF3869577956795B395D9F73EF425
:1007B00090958095709561957F4F8F4F9F4F0895CD
:1007C000A9D080F09F3740F491110EF0BBC060E0DB
:1007D00070E080E89FEB089526F41B16611D711DE3
:1007E000811D2BC045C0990F0008550FAA0BE0E8EA
:1007F000FEEF16161706E807F907C0F012161306E3
:10080000E407F50798F0621B730B840B950B39F422
:100810000A2661F0232B242B252B21F408950A2688
:1008200009F4A140A6958FEF811D811D089597F9C8
:100830009F6780E870E060E00895882371F4772373
:1008400021F09850872B762F07C0662311F4992743
:100850000DC09051862B70E060E02AF09A95660FEB
:10086000771F881FDAF7880F9695879597F908956F
:100870009F3F31F0915020F4879577956795B79514
:10088000880F911D9695879597F908959FEF80ECB5
:10089000089500240A9416161706180609060895E6
:1008A00000240A9412161306140605060895092E4C
:1008B0000394000C11F4882352F0BB0F40F4BF2BBB
:1008C00011F460FF04C06F5F7F4F8F4F9F4F0895FB
:1008D00057FD9058440F551F59F05F3F71F04795F1
:1008E000880F97FB991F61F09F3F79F087950895D6
:1008F000121613061406551FF2CF4695F1DF08C0F5
:10090000161617061806991FF1CF86957105610511
:1009100008940895E5DFA0F0BEE7B91788F4BB2777
:100920009F3860F41616B11D672F782F8827985FBF
:10093000F7CF869577956795B11D93959639C8F34E
:100940000895E894BB2766277727CB0197F9089588
:100950004ADF08F48FEF08950BD0A9CF9ADF28F073
:100960009FDF18F0952309F062CF90CF1124EACFD2
:10097000AFDFA0F3959FD1F3950F50E0551F629F15
:10098000F001729FBB27F00DB11D639FAA27F00DE8
:10099000B11DAA1F649F6627B00DA11D661F829F0F
:1009A0002227B00DA11D621F739FB00DA11D621FF4
:1009B000839FA00D611D221F749F3327A00D611D11
:1009C000231F849F600D211D822F762F6A2F1124F3
:1009D0009F5750408AF0E1F088234AF0EE0FFF1F46
:1009E000BB1F661F771F881F91505040A9F79E3F7D
:1009F000510570F01CCFA6CF5F3FECF3983EDCF3BF
:100A0000869577956795B795F795E7959F5FC1F7B9
:100A1000FE2B880F911D9695879597F908951F9243
:100A20000F920FB60F9211242F933F938F939F93A2
:100A3000AF93BF938091260290912702A091280244
:100A4000B09129023091250223E0230F2D3758F56C
:100A50000196A11DB11D209325028093260290933B
:100A60002702A0932802B093290280912A02909134
:100A70002B02A0912C02B0912D020196A11DB11D57
:100A800080932A0290932B02A0932C02B0932D0204
:100A9000BF91AF919F918F913F912F910F900FBE7A
:100AA0000F901F90189526E8230F0296A11DB11DE7
:100AB000D2CF789484B5826084BD84B5816084BDD2
:100AC00085B5826085BD85B5816085BDEEE6F0E0C7
:100AD000808181608083E1E8F0E010828081826023
:100AE0008083808181608083E0E8F0E080818160A4
:100AF0008083E1EBF0E0808184608083E0EBF0E0D4
:100B0000808181608083E1E9F0E080818260808380
:100B1000808181608083E0E9F0E080818160808372
:100B2000E1EAF0E08081826080838081816080835F
:100B3000E0EAF0E0808181608083E1E2F1E08081A1
:100B400082608083808181608083E0E2F1E0808147
:100B500081608083EAE7F0E0808184608083808127
:100B600082608083808181608083808180688083CF
:100B70001092C1000895FC01918D228D892F90E083
:100B8000805C9F4F821B91098F7399270895FC0108
:100B9000918D828D981731F0828DE80FF11D858D32
:100BA00090E008958FEF9FEF0895FC01918D828D65
:100BB000981761F0A28DAE0FBF2FB11D5D968C917D
:100BC000928D9F5F9F73928F90E008958FEF9FEFBC
:100BD0000895FC01538D448D252F30E0842F90E043
:100BE000821B930B541710F0CF9608950197089528
:100BF000FC01A48DA80FB92FB11DA35ABF4F2C9192
:100C0000848D90E001968F739927848FA689B78988
:100C10002C93A089B1898C91837080648C93938D7F
:100C2000848D981306C00288F389E02D80818F7D22
:100C300080830895CF93DF93EC01888D8823B1F0F2
:100C4000AA89BB89E889F9898C9185FD03C08081D7
:100C500086FD0CC00FB607FCF7CF8C9185FFF2CF55
:100C6000808185FFEDCFCE01C3DFEACFDF91CF9149
:100C70000895EF92FF920F931F93CF93DF93EC01B0
:100C800081E0888F9B8D8C8D98131AC0E889F98933
:100C9000808185FF15C09FB7F894EE89FF89608336
:100CA000E889F98980818370806480839FBF81E0B7
:100CB00090E0DF91CF911F910F91FF90EF900895F9
:100CC000F62E0B8D10E00F5F1F4F0F731127E02ED4
:100CD0008C8D8E110BC00FB607FCFACFE889F9890D
:100CE000808185FFF5CFCE0183DFF2CFEB8DEC0F56
:100CF000FD2FF11DE35AFF4FF0829FB7F8940B8F41
:100D0000EA89FB8980818062D0CFCF92DF92EF9217
:100D1000FF921F93CF93DF93EC016A017B01122FA7
:100D2000E889F98982E08083C11481EED806E10464
:100D3000F10499F060E079E08DE390E0A70196017D
:100D4000B5D221503109410951095695479537953A
:100D50002795211580E1380790F0E889F9891082FC
:100D600060E874E88EE190E0A70196019FD22150DF
:100D70003109410951095695479537952795EC85D5
:100D8000FD853083EE85FF852083188EEC89FD89F3
:100D90001083EA89FB89808180618083EA89FB89ED
:100DA000808188608083EA89FB8980818068808374
:100DB000EA89FB8980818F7D8083DF91CF911F91AC
:100DC000FF90EF90DF90CF9008951F920F920FB693
:100DD0000F9211240BB60F922F938F939F93EF9343
:100DE000FF93E0913E02F0913F028081E091440246
:100DF000F091450282FD1DC09081809147028F5F76
:100E00008F7320914802821741F0E0914702F0E091
:100E1000E25DFD4F958F80934702FF91EF919F9187
:100E20008F912F910F900BBE0F900FBE0F901F90C0
:100E300018958081F2CF1F920F920FB60F92112456
:100E40000BB60F922F933F934F935F936F937F93C4
:100E50008F939F93AF93BF93EF93FF938EE292E0B4
:100E6000C7DEFF91EF91BF91AF919F918F917F91DD
:100E70006F915F914F913F912F910F900BBE0F900B
:100E80000FBE0F901F901895EEE2F2E013821282CF
:100E900088EE93E0A0E0B0E084839583A683B783D7
:100EA00080E192E09183808385EC90E09587848750
:100EB00084EC90E09787868780EC90E0918B808B24
:100EC00081EC90E0938B828B82EC90E0958B848B0D
:100ED00086EC90E0978B868B118E128E138E148E7B
:100EE00008951F920F920FB60F9211240BB60F9216
:100EF0002F938F939F93EF93FF93E091DB02F091F9
:100F0000DC028081E091E102F091E20282FD1DC0ED
:100F100090818091E4028F5F8F732091E5028217A8
:100F200041F0E091E402F0E0E553FD4F958F8093AE
:100F3000E402FF91EF919F918F912F910F900BBE43
:100F40000F900FBE0F901F9018958081F2CF1F92C7
:100F50000F920FB60F9211240BB60F922F933F935F
:100F60004F935F936F937F938F939F93AF93BF93B1
:100F7000EF93FF938BEC92E03BDEFF91EF91BF91FB
:100F8000AF919F918F917F916F915F914F913F9121
:100F90002F910F900BBE0F900FBE0F901F901895C2
:100FA000EBECF2E01382128288EE93E0A0E0B0E076
:100FB00084839583A683B78380E192E091838083C5
:100FC0008DEC90E0958784878CEC90E097878687FE
:100FD00088EC90E0918B808B89EC90E0938B828BF6
:100FE0008AEC90E0958B848B8EEC90E0978B868BCF
:100FF000118E128E138E148E08951F920F920FB6BB
:101000000F9211240BB60F922F938F939F93EF9310
:10101000FF93E0917803F09179038081E0917E0362
:10102000F0917F0382FD1DC09081809181038F5FCD
:101030008F7320918203821741F0E0918103F0E0E9
:10104000E859FC4F958F80938103FF91EF919F9119
:101050008F912F910F900BBE0F900FBE0F901F908E
:1010600018958081F2CF1F920F920FB60F92112424
:101070000BB60F922F933F934F935F936F937F9392
:101080008F939F93AF93BF93EF93FF9388E693E083
:10109000AFDDFF91EF91BF91AF919F918F917F91C4
:1010A0006F915F914F913F912F910F900BBE0F90D9
:1010B0000FBE0F901F901895E8E6F3E0138212829E
:1010C00088EE93E0A0E0B0E084839583A683B783A5
:1010D00080E192E09183808385ED90E0958784871D
:1010E00084ED90E09787868780ED90E0918B808BF0
:1010F00081ED90E0938B828B82ED90E0958B848BD9
:1011000086ED90E0978B868B118E128E138E148E47
:1011100008951F920F920FB60F9211240BB60F92E3
:101120002F938F939F93EF93FF93E0911504F0918A
:1011300016048081E0911B04F0911C0482FD1DC007
:10114000908180911E048F5F8F7320911F048217FE
:1011500041F0E0911E04F0E0EB5FFB4F958F809330
:101160001E04FF91EF919F918F912F910F900BBED5
:101170000F900FBE0F901F9018958081F2CF1F9295
:101180000F920FB60F9211240BB60F922F933F932D
:101190004F935F936F937F938F939F93AF93BF937F
:1011A000EF93FF9385E094E023DDFF91EF91BF91F2
:1011B000AF919F918F917F916F915F914F913F91EF
:1011C0002F910F900BBE0F900FBE0F901F90189590
:1011D000E5E0F4E01382128288EE93E0A0E0B0E054
:1011E00084839583A683B78380E192E09183808393
:1011F00085E391E09587848784E391E097878687EC
:1012000080E391E0918B808B81E391E0938B828BE3
:1012100082E391E0958B848B86E391E0978B868BBC
:10122000118E128E138E148E0895AF92BF92CF92AC
:10123000DF92EF92FF920F931F93CF93DF936C0196
:101240007B018B01040F151FEB015E01AE18BF0877
:10125000C017D10759F06991D601ED91FC91019029
:10126000F081E02DC6011995892B79F7C501DF9131
:10127000CF911F910F91FF90EF90DF90CF90BF9093
:10128000AF900895AA1BBB1B51E107C0AA1FBB1F4B
:10129000A617B70710F0A61BB70B881F991F5A9502
:1012A000A9F780959095BC01CD010895A1E21A2E71
:1012B000AA1BBB1BFD010DC0AA1FBB1FEE1FFF1FFA
:1012C000A217B307E407F50720F0A21BB30BE40B4A
:1012D000F50B661F771F881F991F1A9469F7609591
:1012E0007095809590959B01AC01BD01CF0108954B
:1012F000EE0FFF1F881F8BBF0790F691E02D19940A
:1013000005D0332312F48A1B9B0B10C0A29FB0019F
:10131000B39FC001A39F700D811D1124911DB29F29
:10132000700D811D1124911D0895F0DFB7FF089500
:0A133000821B930B0895F894FFCF81
:10133A007A7600B000A000A0F1F91E0200000000B9
:0E134A0039061509E9051A06BB05D505C705C4
:00000001FF
