:1000000075C00000A1C000009FC000009DC000009E
:100010009BC0000099C0000097C0000095C0000080
:1000200093C0000091C000008FC000008DC0000090
:100030008BC0000089C0000087C0000085C00000A0
:1000400083C0000081C000007FC000007DC00000B0
:100050007BC0000079C0000077C00000B4C300007E
:1000600073C0000086C50000BAC500006DC0000066
:100070006BC0000069C0000067C0000065C00000E0
:1000800063C0000061C000005FC000005DC00000F0
:10009000FCC5000030C6000057C0000055C000007D
:1000A00053C0000051C000004FC000004DC0000010
:1000B0004BC0000049C0000047C0000045C0000020
:1000C00043C0000041C0000060C100006AC60000DB
:1000D0009EC6000039C00000F0C6000024C7000022
:1000E00033C000001806A4063007BC0711241FBE49
:1000F000CFEFD1E2DEBFCDBF00E00CBF12E0A0E049
:10010000B2E0EAECF0E100E00BBF02C007900D9214
:10011000A032B107D9F724E0A0E2B2E001C01D92FD
:10012000A83BB207E1F710E0C6E7D0E000E005C069
:1001300021970109802FFE01AFD7C237D10780E098
:100140000807B1F788D1BFC75BCF8091AE0481119A
:1001500007C081E08093AE0483E08093AF040895EC
:10016000E091AC04F091AD048091AF04813089F14D
:10017000823009F43FC02091A4043091A504A8E87E
:10018000B3E192D76115710521E08207910520F056
:100190006FEF7FEF80E090E090E080E0613127E258
:1001A000720728F420E137E2C901861B970B64E649
:1001B00070E03CD7C297E8F16F5F7F4F61507109E3
:1001C000E617F707C8F53196F093AD04E093AC0459
:1001D0002EC0E332F10588F08FEF9FEF9093B104CA
:1001E0008093B0041092AD041092AC0482E080932E
:1001F000AF0408C0E332F10590F43196F093AD04FA
:10020000E093AC048091AA049091AB0489309105ED
:10021000F0F401969093AB048093AA040895109291
:10022000B1041092B0041092AD041092AC0483E0BB
:10023000DECF6115710511F681E090E09093B10475
:100240008093B0041092AD041092AC04D0CF2091F2
:10025000000230910102409102025091030260912C
:10026000A6047091A7048091A8049091A9042AD1B2
:10027000209104023091050240910602509107023C
:100280003FD2209108023091090240910A02509118
:100290000B0219D120E030E040EA51E413D120E014
:1002A00030E04FE753E42CD220E030EC49E853E44F
:1002B0006ED16093B2047093B3048093B4049093AE
:1002C000B5041092AB041092AA04089508950895FD
:1002D00026E030E040E855E260E070E090E080E049
:1002E00000C010922302109222028930910508F07A
:1002F00039C0FC018827E158FE4F8F4FCDC68801D9
:1003000091019A01A301AC01B301B601B901BF018A
:1003100081E090E0909323028093220280E392E0B8
:10032000C8C382E090E090932302809322028DEC78
:1003300092E0F6CF84E090E0909323028093220233
:100340008AE693E0EDCF88E090E0909323028093DB
:10035000220287E094E0E4CF80E190E090932302D2
:1003600080932202089580E290E0F8CF80E490E04C
:10037000F5CF80E890E09093230280932202809151
:100380002202909123029160E9CF1F920F920FB643
:100390000F9211240BB60F922F933F934F935F93BD
:1003A0006F937F938F939F93AF93BF93EF93FF933D
:1003B00086E997EE909325018093240134D0FF9134
:1003C000EF91BF91AF919F918F917F916F915F91CD
:1003D0004F913F912F910F900BBE0F900FBE0F903A
:1003E0001F90189586E997EE90932501809324013C
:1003F000A3E7B0E08C918E7F8C93E0E2F1E0808106
:100400008C7F8083E1E2F1E08081877E8083808140
:100410008460808380818C7F80838C9181608C93C9
:10042000089581E008958091240291E0980F9093BF
:100430002402882349F021E030E030932602209303
:10044000250280932402089578947FDEF8948091A9
:1004500024028150F6CFCF93DF931092B70410920D
:10046000B604FBD135DFC0910C02D0910D02198288
:1004700018822CDFF894B6DF2881398181E0232BA4
:1004800009F080E08093B604789478948091B60463
:10049000811107C01CDFF89490E080E0DF91CF91DC
:1004A00008952881398181E0232B09F480E080932D
:1004B000B7049091B70481E0911180E08093B60475
:1004C000B0DFE4CF5058BB27AA270ED0DFC0D0D072
:1004D00030F0D5D020F031F49F3F11F41EF4C5C0A8
:1004E0000EF4E095E7FBBBC0E92FE1D080F3BA172B
:1004F000620773078407950718F071F49EF5F9C039
:100500000EF4E0950B2EBA2FA02D0B01B90190012E
:100510000C01CA01A0011124FF27591B99F0593F72
:1005200050F4503E68F11A16F040A22F232F342FBA
:100530004427585FF3CF469537952795A795F04008
:100540005395C9F77EF41F16BA0B620B730B840B1D
:10055000BAF09150A1F0FF0FBB1F661F771F881FD5
:10056000C2F70EC0BA0F621F731F841F48F487952D
:1005700077956795B795F7959E3F08F0B3CF93951C
:10058000880F08F09927EE0F9795879508950CD05E
:100590007DC075D040F06CD030F021F45F3F19F091
:1005A0005EC05111A7C061C082D098F39923C9F3EE
:1005B0005523B1F3951B550BBB27AA276217730769
:1005C000840738F09F5F5F4F220F331F441FAA1F1D
:1005D000A9F333D00E2E3AF0E0E830D091505040DD
:1005E000E695001CCAF729D0FE2F27D0660F771F8B
:1005F000881FBB1F261737074807AB07B0E809F06D
:10060000BB0B802DBF01FF2793585F4F2AF09E3F01
:10061000510568F024C06EC05F3FECF3983EDCF3F8
:10062000869577956795B795F7959F5FC9F7880F7A
:10063000911D9695879597F90895E1E0660F771FCC
:10064000881FBB1F621773078407BA0720F0621B5D
:10065000730B840BBA0BEE1F88F7E095089597F99A
:100660009F6780E870E060E008959FEF80EC089558
:1006700000240A9416161706180609060895002481
:100680000A9412161306140605060895092E0394FB
:10069000000C11F4882352F0BB0F40F4BF2B11F46F
:1006A00060FF04C06F5F7F4F8F4F9F4F089557FDCE
:1006B0009058440F551F59F05F3F71F04795880FD0
:1006C00097FB991F61F09F3F79F087950895121667
:1006D00013061406551FF2CF4695F1DF08C0161613
:1006E00017061806991FF1CF8695710561050894C4
:1006F0000895E894BB2766277727CB0197F90895DB
:100700000BD0C4CFB5DF28F0BADF18F0952309F07D
:10071000A6CFABCF1124EECFCADFA0F3959FD1F3C4
:10072000950F50E0551F629FF001729FBB27F00D9F
:10073000B11D639FAA27F00DB11DAA1F649F6627F4
:10074000B00DA11D661F829F2227B00DA11D621F43
:10075000739FB00DA11D621F839FA00D611D221FFD
:10076000749F3327A00D611D231F849F600D211DE1
:10077000822F762F6A2F11249F5750408AF0E1F084
:1007800088234AF0EE0FFF1FBB1F661F771F881FCD
:1007900091505040A9F79E3F510570F060CFAACF0D
:1007A0005F3FECF3983EDCF3869577956795B795B8
:1007B000F795E7959F5FC1F7FE2B880F911D9695E2
:1007C000879597F908951F920F920FB60F921124F3
:1007D0002F933F938F939F93AF93BF938091280262
:1007E00090912902A0912A02B0912B023091270208
:1007F00023E0230F2D3758F50196A11DB11D20933D
:1008000027028093280290932902A0932A02B09392
:100810002B0280912C0290912D02A0912E02B0917A
:100820002F020196A11DB11D80932C0290932D02E1
:10083000A0932E02B0932F02BF91AF919F918F9101
:100840003F912F910F900FBE0F901F90189526E8A3
:10085000230F0296A11DB11DD2CF789484B582607A
:1008600084BD84B5816084BD85B5826085BD85B554
:10087000816085BDEEE6F0E0808181608083E1E803
:10088000F0E010828081826080838081816080833B
:10089000E0E8F0E0808181608083E1EBF0E080813E
:1008A00084608083E0EBF0E0808181608083E1E917
:1008B000F0E0808182608083808181608083E0E9D4
:1008C000F0E0808181608083E1EAF0E080818260F5
:1008D0008083808181608083E0EAF0E080818160B4
:1008E0008083E1E2F1E080818260808380818160A9
:1008F0008083E0E2F1E0808181608083EAE7F0E0DC
:100900008081846080838081826080838081816037
:1009100080838081806880831092C1000895FC01EB
:10092000918D228D892F90E0805C9F4F821B9109D1
:100930008F7399270895FC01918D828D981731F05E
:10094000828DE80FF11D858D90E008958FEF9FEF68
:100950000895FC01918D828D981761F0A28DAE0FE4
:10096000BF2FB11D5D968C91928D9F5F9F73928F6B
:1009700090E008958FEF9FEF0895FC01538D448D13
:10098000252F30E0842F90E0821B930B541710F03A
:10099000CF96089501970895FC01A48DA80FB92F53
:1009A000B11DA35ABF4F2C91848D90E001968F7397
:1009B0009927848FA689B7892C93A089B1898C91B6
:1009C000837080648C93938D848D981306C0028805
:1009D000F389E02D80818F7D80830895CF93DF930D
:1009E000EC01888D8823B1F0AA89BB89E889F9894F
:1009F0008C9185FD03C0808186FD0CC00FB607FC7D
:100A0000F7CF8C9185FFF2CF808185FFEDCFCE01AE
:100A1000C3DFEACFDF91CF910895EF92FF920F935A
:100A20001F93CF93DF93EC0181E0888F9B8D8C8D9A
:100A300098131AC0E889F989808185FF15C09FB78E
:100A4000F894EE89FF896083E889F9898081837051
:100A5000806480839FBF81E090E0DF91CF911F9100
:100A60000F91FF90EF900895F62E0B8D10E00F5F21
:100A70001F4F0F731127E02E8C8D8E110BC00FB6F8
:100A800007FCFACFE889F989808185FFF5CFCE018F
:100A900083DFF2CFEB8DEC0FFD2FF11DE35AFF4FFB
:100AA000F0829FB7F8940B8FEA89FB89808180627E
:100AB000D0CFCF92DF92EF92FF921F93CF93DF932D
:100AC000EC016A017B01122FE889F98982E08083B9
:100AD000C11481EED806E104F10499F060E079E0F8
:100AE0008DE390E0A7019601B5D22150310941096B
:100AF00051095695479537952795211580E1380777
:100B000090F0E889F989108260E874E88EE190E05D
:100B1000A70196019FD221503109410951095695EB
:100B2000479537952795EC85FD853083EE85FF85C4
:100B30002083188EEC89FD891083EA89FB898081E6
:100B400080618083EA89FB89808188608083EA896B
:100B5000FB89808180688083EA89FB8980818F7D21
:100B60008083DF91CF911F91FF90EF90DF90CF9026
:100B700008951F920F920FB60F9211240BB60F9289
:100B80002F938F939F93EF93FF93E0914002F09107
:100B900041028081E0914602F091470282FD1DC032
:100BA0009081809149028F5F8F7320914A02821752
:100BB00041F0E0914902F0E0E05DFD4F958F8093B8
:100BC0004902FF91EF919F918F912F910F900BBE52
:100BD0000F900FBE0F901F9018958081F2CF1F923B
:100BE0000F920FB60F9211240BB60F922F933F93D3
:100BF0004F935F936F937F938F939F93AF93BF9325
:100C0000EF93FF9380E392E0C7DEFF91EF91BF91F6
:100C1000AF919F918F917F916F915F914F913F9194
:100C20002F910F900BBE0F900FBE0F901F90189535
:100C3000E0E3F2E01382128288EE93E0A0E0B0E0FD
:100C400084839583A683B78382E192E09183808336
:100C500085EC90E09587848784EC90E09787868781
:100C600080EC90E0918B808B81EC90E0938B828B79
:100C700082EC90E0958B848B86EC90E0978B868B52
:100C8000118E128E138E148E08951F920F920FB62E
:100C90000F9211240BB60F922F938F939F93EF9384
:100CA000FF93E091DD02F091DE028081E091E302AA
:100CB000F091E40282FD1DC090818091E6028F5F79
:100CC0008F732091E702821741F0E091E602F0E095
:100CD000E353FD4F958F8093E602FF91EF919F9133
:100CE0008F912F910F900BBE0F900FBE0F901F9002
:100CF00018958081F2CF1F920F920FB60F92112498
:100D00000BB60F922F933F934F935F936F937F9305
:100D10008F939F93AF93BF93EF93FF938DEC92E0EC
:100D20003BDEFF91EF91BF91AF919F918F917F91AA
:100D30006F915F914F913F912F910F900BBE0F904C
:100D40000FBE0F901F901895EDECF2E01382128207
:100D500088EE93E0A0E0B0E084839583A683B78318
:100D600082E192E0918380838DEC90E09587848787
:100D70008CEC90E09787868788EC90E0918B808B55
:100D800089EC90E0938B828B8AEC90E0958B848B3E
:100D90008EEC90E0978B868B118E128E138E148EB4
:100DA00008951F920F920FB60F9211240BB60F9257
:100DB0002F938F939F93EF93FF93E0917A03F0919A
:100DC0007B038081E0918003F091810382FD1DC04F
:100DD0009081809183038F5F8F73209184038217AA
:100DE00041F0E0918303F0E0E659FC4F958F80934A
:100DF0008303FF91EF919F918F912F910F900BBEE5
:100E00000F900FBE0F901F9018958081F2CF1F9208
:100E10000F920FB60F9211240BB60F922F933F93A0
:100E20004F935F936F937F938F939F93AF93BF93F2
:100E3000EF93FF938AE693E0AFDDFF91EF91BF91CF
:100E4000AF919F918F917F916F915F914F913F9162
:100E50002F910F900BBE0F900FBE0F901F90189503
:100E6000EAE6F3E01382128288EE93E0A0E0B0E0BD
:100E700084839583A683B78382E192E09183808304
:100E800085ED90E09587848784ED90E0978786874D
:100E900080ED90E0918B808B81ED90E0938B828B45
:100EA00082ED90E0958B848B86ED90E0978B868B1E
:100EB000118E128E138E148E08951F920F920FB6FC
:100EC0000F9211240BB60F922F938F939F93EF9352
:100ED000FF93E0911704F09118048081E0911D04C4
:100EE000F0911E0482FD1DC09081809120048F5FCF
:100EF0008F7320912104821741F0E0912004F0E0EB
:100F0000E95FFB4F958F80932004FF91EF919F91B4
:100F10008F912F910F900BBE0F900FBE0F901F90CF
:100F200018958081F2CF1F920F920FB60F92112465
:100F30000BB60F922F933F934F935F936F937F93D3
:100F40008F939F93AF93BF93EF93FF9387E094E0CA
:100F500023DDFF91EF91BF91AF919F918F917F9191
:100F60006F915F914F913F912F910F900BBE0F901A
:100F70000FBE0F901F901895E7E0F4E013821282E5
:100F800088EE93E0A0E0B0E084839583A683B783E6
:100F900082E192E09183808385E391E09587848765
:100FA00084E391E09787868780E391E0918B808B43
:100FB00081E391E0938B828B82E391E0958B848B2C
:100FC00086E391E0978B868B118E128E138E148E92
:100FD0000895AF92BF92CF92DF92EF92FF920F935C
:100FE0001F93CF93DF936C017B018B01040F151FBF
:100FF000EB015E01AE18BF08C017D10759F0699127
:10100000D601ED91FC910190F081E02DC60119957A
:10101000892B79F7C501DF91CF911F910F91FF9037
:10102000EF90DF90CF90BF90AF900895AA1BBB1BAD
:1010300051E107C0AA1FBB1FA617B70710F0A61BD8
:10104000B70B881F991F5A95A9F780959095BC01F9
:10105000CD010895A1E21A2EAA1BBB1BFD010DC0F4
:10106000AA1FBB1FEE1FFF1FA217B307E407F50758
:1010700020F0A21BB30BE40BF50B661F771F881F34
:10108000991F1A9469F760957095809590959B01CA
:10109000AC01BD01CF010895EE0FFF1F881F8BBF6C
:1010A0000790F691E02D1994A29FB001B39FC00163
:1010B000A39F700D811D1124911DB29F700D811D84
:0A10C0001124911D0895F894FFCF4C
:1010CA000000A041DAF0F93E000020C22002000030
:1010DA0000000D05E907BD04EE048F04A9049B0472
:00000001FF
