:100000000C9457010C9488010C9488010C9488017D
:100010000C9488010C9488010C9488010C9488013C
:100020000C9488010C9488010C9488010C9488012C
:100030000C9488010C9488010C9488010C9488011C
:100040000C9488010C9473060C9488010C9488011C
:100050000C9488010C9488010C9488010C943F0541
:100060000C9488010C94B3050C9489050C948801B8
:100070000C9488010C9488010C9488010C948801DC
:100080000C9445060C9488010C9488010C9488010A
:100090000C9488010C9488010C9488010C948801BC
:1000A0000C9488010C9488010C9417060C94880118
:1000B0000C9488010C9488010C9488010C94E90537
:1000C0000C9488010C9488010C9488010C9488018C
:1000D0000C9488010C9488010C9488010C9488017C
:1000E0000C9488010C944F030C94D50B0C94C30B07
:1000F0000C943C0C0C942D030C941E030C94AF0B2D
:100100000C94E70B0C941E0C0C94D4030C94A50BCC
:100110000C945F020C942A020C9449020C94FB0B81
:100120000C94280C0C9443020C94140C0C94B90BF2
:100130000C9465020C94F10B0C9432020C94DD0BC0
:100140000C94CD0B0C94320C0C942E020C944103A5
:100150000C94A1060C94F1020C9451020C940A0C1C
:100160000C9439020C9464020C944D020C943F02DE
:100170000C9424020C94AA0B0C945B020C9457026E
:100180000C9487030C9469020C9436020000200042
:100190002300260029002C002F003200000100005F
:1001A00003010601090100002100240027002A00A4
:1001B0002D003000330001010000040107010A0195
:1001C00000002200250028002B002E003100340002
:1001D00002010000050108010B01050505050705E1
:1001E00008080808020202020A0A080804040404B3
:1001F00001010101010101010303030303030303DF
:10020000040707070C0C0C0C0C0C0C0C020202026D
:1002100006060606060606060B0B0B0B0B0B0B0B56
:100220000102102020080810204010204080020108
:1002300002010804020101020408102040808040ED
:1002400020100804020180040201804020100804EC
:10025000020108040201010204081020408001028A
:1002600004081020408000000A0B02090C0D0E0843
:10027000070304010000000000000000000000006F
:10028000000000000000000000000000000000006E
:10029000000012111000000000000000000000002B
:1002A000000000000000000000000000A106112472
:1002B0001FBECFEFD1E2DEBFCDBF00E00CBF12E02A
:1002C000A0E0B2E0ECEFFDE100E00BBF02C0079060
:1002D0000D92AE33B107D9F723E0AEE3B2E001C02F
:1002E0001D92A63AB207E1F711E0C7E5D1E000E0C0
:1002F00006C021970109802FFE010E94B10CC6356E
:10030000D10780E00807A9F70E94FE060C94FC0EB6
:100310000C940000CF92DF92EF92FF92DC01A032AA
:1003200082E0B807D4F5A53BB10514F0A4EBB0E02A
:100330004091A40328E830E0241B310947FD3395A0
:10034000220F331F220F331F6901330FEE08FF08FE
:100350004091A50328E532E0241B310947FD339580
:10036000220F331F220F331F032E000C440B550B9B
:100370002C193D094E095F09B7FF02C0B0E0A0E0AB
:100380000E946C0C24EB30E040E050E00E94420CF4
:10039000C20ED31EE41EF51ED601E091A303E03386
:1003A00080F52091A40388E890E0821B910927FD45
:1003B0009395880F991F880F991FA817B90784F084
:1003C0002091A50388E592E0821B910927FD939572
:1003D000880F991F880F991FA817B9070CF4CD0132
:1003E0000297880F991F4FB7F8942E2F30E0F9012C
:1003F000EE0FFF1FE20FF31FEE5EFC4F928381832F
:100400004FBFFF90EF90DF90CF90089581508231E1
:1004100008F05AC0E82FF0E08827EE5EFD4F8F4FBE
:100420000C94B10C3202360224022A022E0264021B
:1004300039023F02430249024D02510257025B0258
:1004400064025F0265026902809180008F77809369
:1004500080000895809180008F7DF9CF8091800089
:10046000877FF5CF84B58F7784BD089584B58F7D60
:10047000FBCF8091B0008F778093B000089580917A
:10048000B0008F7DF9CF809190008F77809390009E
:100490000895809190008F7DF9CF80919000877FA3
:1004A000F5CF8091A0008F778093A0000895809170
:1004B000A0008F7DF9CF8091A000877FF5CF80913C
:1004C00020018F77809320010895809120018F7DF6
:1004D000F9CF80912001877FF5CF1F93CF93DF93D2
:1004E000282F30E0F901EA59FD4F8491F901E05ECF
:1004F000FD4FD491F901E652FE4FC491CC23A9F0EF
:10050000162F81110E940602EC2FF0E0EE0FFF1F64
:10051000E054FE4FA591B4918FB7F894EC9111116E
:1005200008C0D095DE23DC938FBFDF91CF911F9160
:100530000895DE2BF8CFCF93DF9390E0FC01E05ECF
:10054000FD4F249186529E4FFC0184918823D1F067
:1005500090E0880F991FFC01EA55FE4FA591B491D8
:10056000FC01E054FE4FC591D49161110EC09FB7BC
:10057000F8948C91E22FE0958E238C932881E223CE
:10058000E8839FBFDF91CF9108958FB7F894EC91E6
:10059000E22BEC938FBFF6CF3FB7F89480917102B6
:1005A00090917202A0917302B091740226B5A89B3B
:1005B00005C02F3F19F00196A11DB11D3FBFBA2FF5
:1005C000A92F982F8827BC01CD01620F711D811DB5
:1005D000911D42E0660F771F881F991F4A95D1F73A
:1005E0000895AF92BF92CF92DF92EF92FF920F9356
:1005F0001F93CF93DF936C017B018B01040F151FB9
:10060000EB015E01AE18BF08C017D10759F0699120
:10061000D601ED91FC910190F081E02DC601199574
:10062000892B79F7C501DF91CF911F910F91FF9031
:10063000EF90DF90CF90BF90AF900895FC01538D65
:10064000448D252F30E0842F90E0821B930B5417AC
:1006500010F0CF96089501970895FC01918D828D39
:10066000981761F0A28DAE0FBF2FB11D5D968C91D2
:10067000928D9F5F9F73928F90E008958FEF9FEF11
:100680000895FC01918D828D981731F0828DE80FCD
:10069000F11D858D90E008958FEF9FEF0895FC0187
:1006A000918D228D892F90E0805C9F4F821B910954
:1006B0008F739927089585E792E00E944F0321E008
:1006C000892B09F420E0822F0895FC01A48DA80F46
:1006D000B92FB11DA35ABF4F2C91848D90E0019684
:1006E0008F739927848FA689B7892C93A089B189A4
:1006F0008C91837080648C93938D848D981306C045
:100700000288F389E02D80818F7D80830895EF92A8
:10071000FF920F931F93CF93DF93EC0181E0888FBB
:100720009B8D8C8D98131AC0E889F989808185FF8B
:1007300015C09FB7F894EE89FF896083E889F9892D
:1007400080818370806480839FBF81E090E0DF912F
:10075000CF911F910F91FF90EF900895F62E0B8D82
:1007600010E00F5F1F4F0F731127E02E8C8D8E113D
:100770000CC00FB607FCFACFE889F989808185FFA4
:10078000F5CFCE010E946503F1CFEB8DEC0FFD2F6D
:10079000F11DE35AFF4FF0829FB7F8940B8FEA895F
:1007A000FB8980818062CFCFCF93DF93EC01888D6E
:1007B0008823B9F0AA89BB89E889F9898C9185FDDC
:1007C00003C0808186FD0DC00FB607FCF7CF8C916A
:1007D00085FFF2CF808185FFEDCFCE010E946503BA
:1007E000E9CFDF91CF91089580E090E0892B29F047
:1007F0000E945B0381110E94000080E090E0892B41
:1008000049F080E090E0892B29F00E9400008111DE
:100810000E94000080E090E0892B49F080E090E0A9
:10082000892B29F00E94000081110E94000080E0C5
:1008300090E0892B49F080E090E0892B29F00E941C
:10084000000081110C9400000895AF92BF92CF92E6
:10085000DF92EF92FF920F931F93CF93DF936B0181
:100860007A01EC01C25CDD4F28813CE0389F8001B9
:10087000399F100D1124A090A203B12C27FF1FC097
:10088000FB011182108288818F5F888388819801A3
:10089000280F311D87FD3A95F6012A153B051CF4FA
:1008A00088818C30C4F180819181049680349C4988
:1008B00008F473C0F60180819181049670C088812C
:1008C0009801280F311D87FD3A952A153B05DCF666
:1008D0008881A801480F511D87FD5A95FA01EE0F36
:1008E000FF1FE40FF51FEE5EFC4F808186FFCBCF2C
:1008F0008881F801E80FF11D87FDFA95CF01EE0F11
:10090000FF1FE80FF91FEE5EFC4F808160E08F73E0
:100910000E946D02B8CF808191812881A801420F89
:10092000511D27FD5A959A01FA01EE0FFF1FE20FA4
:10093000F31FEE5EFC4F21813281820F931FF7017E
:100940009183808388819801280F311D87FD3A9516
:10095000F901EE0FFF1FE20FF31FEE5EFC4F8081E7
:1009600086FF22C08881080F111D87FD1A95F801A6
:10097000EE0FFF1FE00FF11FEE5EFC4F808161E084
:100980008F73DF91CF911F910F91FF90EF90DF90C8
:10099000CF90BF90AF900C946D0280E49CE9F7017A
:1009A000918380838FEF8883DF91CF911F910F9187
:1009B000FF90EF90DF90CF90BF90AF900895FC0133
:1009C00001900020E9F73197AF01481B590BBC019A
:1009D00085E792E00C94F1028F929F92AF92BF92C2
:1009E0000F931F93CF93DF93CDB7DEB7A1970FB6C9
:1009F000F894DEBF0FBECDBF19A2423008F44AE022
:100A00008E010F5D1F4F842E912CB12CA12CA501BE
:100A100094010E94740CE62FB901CA01EA30F4F483
:100A2000E05DD801EE938D01232B242B252B79F744
:100A300090E080E0109719F0CD010E94DF04A196AC
:100A40000FB6F894DEBF0FBECDBFDF91CF911F91DF
:100A50000F91BF90AF909F908F900895E95CE1CF88
:100A6000CF93DF934AE00E94EC04EC0186E192E030
:100A70000E94DF048C0F9D1FDF91CF9108951F927C
:100A80000F920FB60F9211242F933F938F939F9342
:100A9000AF93BF9380916D0290916E02A0916F020F
:100AA000B091700230916C0223E0230F2D3758F57E
:100AB0000196A11DB11D20936C0280936D0290934D
:100AC0006E02A0936F02B0937002809171029091B8
:100AD0007202A0917302B09174020196A11DB11D22
:100AE0008093710290937202A0937302B093740288
:100AF000BF91AF919F918F913F912F910F900FBE1A
:100B00000F901F90189526E8230F0296A11DB11D86
:100B1000D2CF1F920F920FB60F9211240BB60F92E5
:100B20002F933F934F935F936F937F938F939F93F5
:100B3000AF93BF93EF93FF9385E792E00E94650325
:100B4000FF91EF91BF91AF919F918F917F916F91A5
:100B50005F914F913F912F910F900BBE0F900FBE61
:100B60000F901F9018951F920F920FB60F9211249D
:100B70000BB60F922F938F939F93EF93FF93E09178
:100B80008502F09186028081E0918B02F0918C02C7
:100B900082FD1DC0908180918E028F5F8F732091A6
:100BA0008F02821741F0E0918E02F0E0EB58FD4F8A
:100BB000958F80938E02FF91EF919F918F912F914E
:100BC0000F900BBE0F900FBE0F901F901895808155
:100BD000F2CF1F920F920FB60F9211240BB60F9205
:100BE0002F933F934F935F936F937F938F939F9335
:100BF000AF93BF93EF93FF9348E251E064E271E05B
:100C000090E080E00E942504FF91EF91BF91AF91A9
:100C10009F918F917F916F915F914F913F912F9114
:100C20000F900BBE0F900FBE0F901F9018951F9244
:100C30000F920FB60F9211240BB60F922F933F9382
:100C40004F935F936F937F938F939F93AF93BF93D4
:100C5000EF93FF9348EA50E064EA70E083E090E0AD
:100C60000E942504FF91EF91BF91AF919F918F91C9
:100C70007F916F915F914F913F912F910F900BBE9C
:100C80000F900FBE0F901F9018951F920F920FB6E6
:100C90000F9211240BB60F922F933F934F935F93B4
:100CA0006F937F938F939F93AF93BF93EF93FF9334
:100CB00048E950E064E970E082E090E00E94250499
:100CC000FF91EF91BF91AF919F918F917F916F9124
:100CD0005F914F913F912F910F900BBE0F900FBEE0
:100CE0000F901F9018951F920F920FB60F9211241C
:100CF0000BB60F922F933F934F935F936F937F9316
:100D00008F939F93AF93BF93EF93FF9348E850E087
:100D100064E870E081E090E00E942504FF91EF918B
:100D2000BF91AF919F918F917F916F915F914F9103
:100D30003F912F910F900BBE0F900FBE0F901F9001
:100D40001895109278021092770288EE93E0A0E056
:100D5000B0E08093790290937A02A0937B02B093E3
:100D60007C0288E092E0909376028093750285EC95
:100D700090E0909382028093810284EC90E09093C3
:100D800084028093830280EC90E0909386028093AB
:100D9000850281EC90E0909388028093870282EC38
:100DA00090E090938A028093890286EC90E0909381
:100DB0008C0280938B0210928E0210928F021092FE
:100DC0009002109291028091A203803398F491E0F6
:100DD000980F9093A2038093A30390E0FC01EE0F81
:100DE000FF1FE80FF91FEE5EFC4F88EB9BE092833C
:100DF000818308958FEF8093A3030895CF93DF93AA
:100E000000D01F92CDB7DEB7789484B5826084BDE0
:100E100084B5816084BD85B5826085BD85B58160FE
:100E200085BD80916E00816080936E00109281007C
:100E30008091810082608093810080918100816037
:100E400080938100809180008160809380008091F8
:100E5000B10084608093B1008091B0008160809384
:100E6000B000809191008260809391008091910008
:100E700081608093910080919000816080939000C8
:100E80008091A10082608093A1008091A100816087
:100E90008093A1008091A00081608093A000809148
:100EA00021018260809321018091210181608093E2
:100EB00021018091200181608093200180917A003E
:100EC000846080937A0080917A00826080937A00B7
:100ED00080917A00816080937A0080917A008068A6
:100EE00080937A001092C10060E082E00E949B0231
:100EF00060E086E30E949B028091A303803308F0A8
:100F000052C061E088E00E949B028091A303282FD9
:100F100030E0F901EE0FFF1FE20FF31FEE5EFC4F12
:100F20009081907C986090831092A4031092A50306
:100F30002CE0622F0E94A50C829FB001112430E0AA
:100F400020E0AB01420F531FFA01EE0FFF1FE40F29
:100F5000F51FEE5EFC4F908196FD17C02F5F3F4F4F
:100F60002C30310571F7813009F0A0C1109280005A
:100F700082E0809381001092850010928400B19AE3
:100F800080916F00826080936F00E091A3038E2FA9
:100F900090E0FC01EE0FFF1FE80FF91FEE5EFC4F23
:100FA00080818064808361E089E00E949B0261E02F
:100FB0008AE00E949B0261E08BE00E949B0260E05D
:100FC00089E00E946D0261E08AE00E946D0261E0AA
:100FD0008BE00E949B0260E08BE00E946D0290E03B
:100FE00080E00E948A01E0918502F091860282E011
:100FF0008083E0918102F09182021082E09183026D
:10100000F09184028FEC808310928D02E09189022E
:10101000F0918A0286E08083E0918702F091880255
:10102000808180618083E0918702F09188028081D5
:1010300088608083E0918702F091880280818068D7
:101040008083E0918702F091880280818F7D808388
:1010500028E6222E22E0322E02E015E080917B006D
:10106000877F80937B0020E420937C0080917A002E
:10107000806480937A0080917A0086FDFCCF609135
:10108000780070917900072E000C880B990B0E9454
:10109000D50D4B015C018092640290926502A09292
:1010A0006602B0926702F1018491E2E2F2E0F4900C
:1010B000ECEDF1E0E49070E060E0EE2099F0811159
:1010C0000E940602EE2DF0E0EE0FFF1FE457FE4FE8
:1010D000A591B4918C91F82291E080E009F490E020
:1010E000692F782F072E000C880B990B0E94D50DC5
:1010F0002B013C01409268025092690260926A02A0
:1011000070926B020E94CC0269837A838B839C83EA
:1011100080914E028111F6C0F1E0F0934E0223E07F
:1011200020934F020E94CC026B017C0129813A81FD
:101130004B815C81C21AD30AE40AF50A609160020D
:101140007091610280916202909163026C0D7D1D2D
:101150008E1D9F1D609360027093610280936202F6
:101160009093630220915E0230915F022F5F3F4FA8
:1011700030935F0220935E0280905A0290905B024F
:10118000A0905C02B0905D028C149D04AE04BF047C
:1011900040F4C0925A02D0925B02E0925C02F0925C
:1011A0005D028090000290900102A0900202B09037
:1011B0000302C814D904EA04FB0440F4C0920002FC
:1011C000D0920102E0920202F0920302243631052D
:1011D00008F0DBC1B90190E080E04AE00E94EC0435
:1011E00089E192E00E94DF04C701B6010E94300548
:1011F0006091520270915302809154029091550275
:101200000E949D0D6115710591F0169FA001179F19
:10121000500D11242091500230915102CA01820FC9
:10122000931F90935102809350020E948A01609113
:1012300056027091570280915802909159020E9473
:101240009D0D4B017B0161E08BE00E949B028114AC
:10125000910409F053C260E08BE00E946D020E948D
:10126000CC026B017C0184E6882E912CA12CB12C40
:101270000E94CC026C197D098E099F09683E73405B
:1012800081059105A8F321E0821A9108A108B1080F
:1012900038EEC30E33E0D31EE11CF11C811491041F
:1012A000A104B10429F70E94F403D8CE823061F47E
:1012B00010929000809391001092950010929400EB
:1012C00088BB8093710061CE833069F41092A000D6
:1012D00082E08093A1001092A5001092A40089BB27
:1012E0008093720052CE811150CE1092200182E084
:1012F0008093210110922501109224018ABB8093D2
:10130000730043CEC0904602D0904702E09048025E
:10131000F090490280914F02813009F440C0823040
:1013200009F4AEC020E030E44CE955E4C301B20159
:101330000E948A0E9B01AC0160E070E48CE196E4AF
:101340000E94B90C20E030E048EC52E40E942B0DE2
:1013500020E030E040E85FE30E94B90C2B013C0143
:10136000A70196010E94260D18160CF4B1C080E06A
:1013700090E0A0E8BFE38093520290935302A093C1
:101380005402B093550210924602109247021092F6
:10139000480210924902A1E0A0934F0220C020E031
:1013A00030E04CE052E4C701B6010E94850E87FD93
:1013B0004CC080E090E0A0E8BFEB80935202909395
:1013C0005302A0935402B093550210924602109219
:1013D0004702109248021092490200934F0220E007
:1013E00030E048EC52E460914A0270914B028091E7
:1013F0004C0290914D020E942B0D20E030E040E81D
:101400005FE30E94B90C2B013C01C0904202D090D6
:101410004302E0904402F0904502A70196010E9429
:10142000850E18160CF071C020E030E040E85FE354
:10143000C701B6010E94BA0C609342027093430246
:1014400080934402909345026DCE20E030E04CE062
:1014500052E4C701B6010E94260D87FFC0CF20E0ED
:1014600030E040E85FE3C701B6010E94BA0C609328
:101470004602709347028093480290934902AFCF8F
:1014800020E030E04CE052E4C701B6010E94260D96
:1014900087FDE5CF20E030E04CE052E4C701B60123
:1014A0000E94850E87FD9BCF10925202109253022C
:1014B0001092540210925502109246021092470266
:1014C000109248021092490293E090934F0287CF06
:1014D000A7019601C301B2010E94850E18160CF0F7
:1014E0007ECF20E030E040E85FE3C701B6010E9414
:1014F000BA0C60934602709347028093480290931F
:101500004902B3E0B0934F026ACFA7019601C3012D
:10151000B2010E94260D18160CF404CE20E030E033
:1015200040EA51E4C501B4010E94B90C2AED30EF44
:1015300049EF5EE30E948A0E20E030E040E252E490
:101540000E94B90C20E030E040EA51E40E94B90C5E
:1015500020E030E04FE753E40E948A0E20E030ECB8
:1015600049E853E40E942B0D609356027093570292
:1015700080935802909359021092420210924302B3
:101580001092440210924502CDCD2436310509F067
:101590002FCE0E94D30D20E030E048EC52E40E94B0
:1015A0002B0D6B017C018CE192E00E94DF04A7010E
:1015B0009601C701B6010E94F70E882319F186E251
:1015C00092E00E94DF0486E192E00E94DF0482E361
:1015D00092E00E94DF04609100027091010280910C
:1015E0000202909103020E94300588E392E00E947B
:1015F000DF0460915A0270915B0280915C029091CD
:101600005D02F4CD2FEF3FEF4FE75FE7C701B60173
:101610000E94F70E81110DC02FEF3FEF4FE75FE7FC
:10162000C701B6010E94260D18161CF48AE292E04A
:10163000C8CF2FEF3FEF4FE75FE4C701B6010E942D
:10164000850E18161CF48EE292E0BBCF2FEF3FEF11
:101650004FE75FECC701B6010E94260D87FDF3CF6F
:101660002AE037ED43EA5BE3C701B6010E94BA0CFA
:101670004B015C010E94A40D6B017C010E94D30D03
:101680009B01AC01C501B4010E94B90C4B015C0186
:101690004AE0C701B6010E94EC046EE285E792E0E1
:1016A0000E94870320E030E040E251E4C501B4012C
:1016B0000E948A0E4B015C010E94A40D6B01F12C6B
:1016C000E12C4AE0C701B6010E94EC04C701B60153
:1016D0000E94D30D9B01AC01C501B4010E94B90C5D
:1016E00020E030E040E251E40E948A0E0E94A40D06
:1016F00090E080E04AE00E94EC0465CF3FEF831663
:10170000910411F461E0A8CDE1E7F2E08491EFEFFC
:10171000E80FE23108F0B0C0F0E08827ED56F44F52
:101720008F4F0C94B10CA50BAA0BAF0BB90BC30BCD
:101730003C0CCD0BD50BDD0BE70BF10BFB0B0A0CB7
:10174000140C3C0C1E0C280C320C84B5806884BD33
:1017500087BC85CD84B5806284BD88BC80CD8091F6
:101760008000806880938000909289008092880039
:1017700076CD8091800080628093800090928B0073
:1017800080928A006CCD8091800088608093800078
:1017900090928D0080928C0062CD8091B000806824
:1017A0008093B0008092B3005ACD8091B0008062E7
:1017B0008093B0008092B40052CD809190008068F8
:1017C00080939000909299008092980048CD8091EB
:1017D000900080628093900090929B0080929A008B
:1017E0003ECD8091900088608093900090929D0003
:1017F00080929C0034CD8091A00080688093A000EE
:101800008091A0008F7B8093A0009092A90080928D
:10181000A80025CD8091A00080628093A0009092C6
:10182000AB008092AA001BCD8091A00088608093BD
:10183000A0009092AD008092AC0011CD809120016B
:10184000806880932001909229018092280107CD21
:101850008091200180628093200190922B018092E0
:101860002A01FDCC80912001886080932001909214
:101870002D0180922C01F3CCF0E8EF16F1040CF06E
:1018800041CFE9CC052E97FB1EF400940E94590C21
:1018900057FD07D00E94740C07FC03D04EF40C9443
:1018A000590C50954095309521953F4F4F4F5F4FC4
:1018B000089590958095709561957F4F8F4F9F4FBC
:1018C00008950E94960CA59F900DB49F900DA49F23
:1018D000800D911D11240895B7FF0C94610C0E9496
:1018E000610C821B930B0895A1E21A2EAA1BBB1B4D
:1018F000FD010DC0AA1FBB1FEE1FFF1FA217B307DC
:10190000E407F50720F0A21BB30BE40BF50B661FF1
:10191000771F881F991F1A9469F7609570958095B5
:1019200090959B01AC01BD01CF010895A29FB0012C
:10193000B39FC001A39F700D811D1124911DB29F03
:10194000700D811D1124911D0895991B79E004C02B
:10195000991F961708F0961B881F7A95C9F78095EE
:101960000895EE0FFF1F881F8BBF0790F691E02DA3
:1019700019945058BB27AA270E94D10C0C944B0EE7
:101980000E943D0E38F00E94440E20F039F49F3F33
:1019900019F426F40C943A0E0EF4E095E7FB0C943F
:1019A000340EE92F0E945C0E58F3BA1762077307D2
:1019B0008407950720F079F4A6F50C947E0E0EF4BA
:1019C000E0950B2EBA2FA02D0B01B90190010C014F
:1019D000CA01A0011124FF27591B99F0593F50F467
:1019E000503E68F11A16F040A22F232F342F4427BF
:1019F000585FF3CF469537952795A795F0405395B7
:101A0000C9F77EF41F16BA0B620B730B840BBAF086
:101A10009150A1F0FF0FBB1F661F771F881FC2F7F1
:101A20000EC0BA0F621F731F841F48F48795779505
:101A30006795B795F7959E3F08F0B0CF9395880FBF
:101A400008F09927EE0F9795879508950E94100E3C
:101A500008F481E008950E943F0D0C944B0E0E9403
:101A6000440E58F00E943D0E40F029F45F3F29F0EB
:101A70000C94340E51110C947F0E0C943A0E0E946B
:101A80005C0E68F39923B1F3552391F3951B550B25
:101A9000BB27AA2762177307840738F09F5F5F4F41
:101AA000220F331F441FAA1FA9F335D00E2E3AF080
:101AB000E0E832D091505040E695001CCAF72BD098
:101AC000FE2F29D0660F771F881FBB1F26173707E9
:101AD0004807AB07B0E809F0BB0B802DBF01FF271B
:101AE00093585F4F3AF09E3F510578F00C94340EB6
:101AF0000C947F0E5F3FE4F3983ED4F38695779580
:101B00006795B795F7959F5FC9F7880F911D9695D3
:101B1000879597F90895E1E0660F771F881FBB1F2F
:101B2000621773078407BA0720F0621B730B840BDC
:101B3000BA0BEE1F88F7E09508950E94A40D6894F3
:101B4000B1110C947F0E08950E94640E88F09F5787
:101B500098F0B92F9927B751B0F0E1F0660F771FD1
:101B6000881F991F1AF0BA95C9F714C0B13091F0C7
:101B70000E947E0EB1E008950C947E0E672F782FA0
:101B80008827B85F39F0B93FCCF38695779567958C
:101B9000B395D9F73EF490958095709561957F4FF8
:101BA0008F4F9F4F0895E89409C097FB3EF490959E
:101BB0008095709561957F4F8F4F9F4F9923A9F026
:101BC000F92F96E9BB279395F695879577956795B5
:101BD000B795F111F8CFFAF4BB0F11F460FF1BC0F9
:101BE0006F5F7F4F8F4F9F4F16C0882311F096E98C
:101BF00011C0772321F09EE8872F762F05C066233A
:101C000071F096E8862F70E060E02AF09A95660FF2
:101C1000771F881FDAF7880F9695879597F90895AB
:101C2000990F0008550FAA0BE0E8FEEF16161706ED
:101C3000E807F907C0F012161306E407F50798F055
:101C4000621B730B840B950B39F40A2661F0232B6E
:101C5000242B252B21F408950A2609F4A140A695EA
:101C60008FEF811D811D089597F99F6780E870E0CF
:101C700060E008959FEF80EC089500240A94161602
:101C8000170618060906089500240A94121613066A
:101C9000140605060895092E0394000C11F48823F8
:101CA00052F0BB0F40F4BF2B11F460FF04C06F5F14
:101CB0007F4F8F4F9F4F089557FD9058440F551FEA
:101CC00059F05F3F71F04795880F97FB991F61F0BE
:101CD0009F3F79F087950895121613061406551F35
:101CE000F2CF4695F1DF08C0161617061806991FA1
:101CF000F1CF86957105610508940895E894BB2796
:101D000066277727CB0197F908950E94100E08F4F3
:101D10008FEF08950E949D0E0C944B0E0E943D0E75
:101D200038F00E94440E20F0952311F00C94340EEC
:101D30000C943A0E11240C947F0E0E945C0E70F3EA
:101D4000959FC1F3950F50E0551F629FF001729F60
:101D5000BB27F00DB11D639FAA27F00DB11DAA1F6F
:101D6000649F6627B00DA11D661F829F2227B00DBC
:101D7000A11D621F739FB00DA11D621F839FA00D47
:101D8000611D221F749F3327A00D611D231F849F97
:101D9000600D211D822F762F6A2F11249F575040EE
:101DA0009AF0F1F088234AF0EE0FFF1FBB1F661F69
:101DB000771F881F91505040A9F79E3F510580F032
:101DC0000C94340E0C947F0E5F3FE4F3983ED4F3F2
:101DD000869577956795B795F795E7959F5FC1F7D6
:101DE000FE2B880F911D9695879597F908950E946F
:0C1DF000100E880B990B0895F894FFCF9B
:101DFC00FFFF0000000000008703F1021E03D40364
:101E0C004F032D0341030D0A003A20004176657201
:101E1C006167653D20006E616E00696E66006F76CD
:0E1E2C0066004D696E3D20004D61783D20003E
:00000001FF
