:100000000C9479010C94AA010C94AA010C94AA01F5
:100010000C94AA010C94AA010C94AA010C94AA01B4
:100020000C94AA010C94AA010C94AA010C94AA01A4
:100030000C94AA010C94AA010C94AA010C94AA0194
:100040000C94AA010C94CC070C94AA010C94AA015C
:100050000C94AA010C94AA010C94AA010C94AD046E
:100060000C94AA010C9437050C94F7040C94AA0183
:100070000C94AA010C94AA010C94AA010C94AA0154
:100080000C94FF060C94AA010C94AA010C94AA01EA
:100090000C94AA010C94AA010C94AA010C94AA0134
:1000A0000C94AA010C94AA010C9432060C94AA0197
:1000B0000C94AA010C94AA010C94AA010C946D054D
:1000C0000C94AA010C94AA010C94AA010C94AA0104
:1000D0000C94AA010C94AA010C94AA010C94AA01F4
:1000E0000C94AA010C9490020C94A8020C94BA02ED
:1000F0000C94B4020C94ED0F0C946A0F0C94ED0167
:100100000C94920F0C9499080C94E6020C94F6014E
:100110000C94C90F0C94BF0F0C9455020C94FC0165
:100120000C94A8030C9496020C94D10F0C943202F8
:100130000C947A040C9438020C949C0F0C949C023E
:100140000C948A020C94D90F0C94E2020C94F70FD1
:100150000C94740F0C94C0020C9408020C943E048E
:100160000C94D8020C9420020C94E8010C94A20286
:100170000C94AE020C94B50F0C947E0F0C94CC0230
:100180000C94F2010C94880F0C94E30F0C94540B14
:100190000C94AB0F0C949F040C94C6020C94DE02DA
:1001A0000C94EE010C940E020C943E020C9402028C
:1001B0000C941A020C9414020C948B040C942602D6
:1001C0000C942C020C94D2020C94FC0F0C9443035C
:1001D000000020002300260029002C002F00320000
:1001E0000001000003010601090100000A0B0209D9
:1001F0000C0D0E08070304010000000000000000C1
:1002000000000000000000000000000000000000EE
:1002100000000000000012111000000000000000AB
:1002200000000000000000000000000000000000CE
:1002300000002200250028002B002E003100340091
:1002400002010000050108010B010000210024004B
:1002500027002A002D0030003300010100000401B6
:1002600007010A0105050505070508080808020237
:1002700002020A0A08080404040401010101010140
:1002800001010303030303030303040707070C0C23
:100290000C0C0C0C0C0C02020202060606060606EA
:1002A00006060B0B0B0B0B0B0B0B0102102020088F
:1002B00008102040102040800201020108040201C1
:1002C0000102040810204080804020100804020130
:1002D0008004020180402010080402010804020189
:1002E0000102040810204080010204081020408010
:1002F000990811241FBECFEFD1E2DEBFCDBF00E0D1
:100300000CBF12E0A0E0B2E0EEECF7E300E00BBFC0
:1003100002C007900D92AE33B107D9F723E0AEE3E8
:10032000B2E001C01D92AA39B207E1F711E0C9E7B6
:10033000D1E000E006C021970109802FFE010E9454
:100340009A19C837D10780E00807A9F70E94F60874
:100350000C94E51B0C94000090E0FC01E655FD4F69
:1003600024918C599D4FFC018491882399F090E051
:10037000880F991FFC01E65BFD4FA591B491FC012C
:10038000E05DFD4F859194918FB7F894EC91E22B4D
:10039000EC938FBF089581508231F8F4E82FF0E09C
:1003A0008827EA52FE4F8F4F0C949A19EE01F20102
:1003B000F601FC010202ED0108020E0214021A020B
:1003C000200226022C023202ED0138023E02E80130
:1003D00080912001877F80932001089584B58F77D5
:1003E00084BD089584B58F7D84BD0895809180007B
:1003F0008F77809380000895809180008F7D809317
:100400008000089580918000877F80938000089508
:100410008091B0008F778093B00008958091B000F4
:100420008F7D8093B0000895809190008F778093A6
:1004300090000895809190008F7D809390000895A2
:1004400080919000877F8093900008958091A00014
:100450008F778093A00008958091A0008F7D809376
:10046000A00008958091A000877F8093A000089548
:10047000809120018F778093200108958091200141
:100480008F7D80932001089590E0FC01E651FE4F9E
:100490002491FC01E655FD4F34918C599D4FFC0190
:1004A00094919923A1F0211118C0E92FF0E0EE0FEB
:1004B000FF1FE05DFD4FA591B4918FB7F8946111D6
:1004C00007C09C91E32FE095E923EC938FBF08953B
:1004D000EC91E32BEC938FBFFACF2150223128F718
:1004E000E22FF0E08827E858FD4F8F4F0C949A19BF
:1004F000E202DE02D802D202CC025502C602C002DB
:10050000BA02B402AE02A802A2029C0255029602EE
:1005100090028A0280912001877F80932001C5CFBD
:10052000809120018F7D80932001BFCF8091200199
:100530008F7780932001B9CF8091A000877F80932F
:10054000A000B3CF8091A0008F7D8093A000ADCF9D
:100550008091A0008F778093A000A7CF809190001A
:10056000877F80939000A1CF809190008F7D8093B2
:1005700090009BCF809190008F778093900095CFD3
:100580008091B0008F7D8093B0008FCF8091B000BC
:100590008F778093B00089CF80918000877F809390
:1005A000800083CF809180008F7D809380007DCFFD
:1005B000809180008F778093800077CF84B58F7D86
:1005C00084BD73CF84B58F7784BD6FCFFC01918DCF
:1005D000228D892F90E0805C9F4F821B91098F7341
:1005E00099270895209182028091830230E0205C57
:1005F0003F4F281B31092F73332781E0232B09F448
:1006000080E0089580E090E0892B69F0809182027B
:100610002091830290E0805C9F4F821B91098F7331
:100620009927892B29F580E090E0892B41F080E023
:1006300090E0892B21F00E94000081111EC080E013
:1006400090E0892B41F080E090E0892B21F00E941E
:100650000000811115C080E090E0892B41F080E01E
:1006600090E0892B21F00E940000811104C00895C0
:100670000E940000D8CF0C9400000E940000DFCF41
:100680000E940000E8CFFC0181E0808F938D848D73
:10069000981709F448C0238D30E02F5F3F4F2F7328
:1006A0003327822F03C00FB607FE17C0948D98170B
:1006B000D1F3A38DAE0FBF2FB11DA35ABF4F6C93C3
:1006C0009FB7F894238F0288F389E02D80818062A0
:1006D00080839FBF81E090E00895A089B1899C91BB
:1006E00095FFE4CFA48DAE0FBF2FB11DA35ABF4F0E
:1006F0009C91448D50E04F5F5F4F4F735527448F5F
:10070000A689B7899C93A089B1899C9193709064C4
:100710009C93438D948D4913C9CFA289B3899C9131
:100720009F7D9C93C3CFA089B1898C9185FFB3CF66
:100730009FB7F894A689B7896C930088F189E02D5A
:1007400080818370806480839FBF81E090E0089502
:10075000BF92CF92DF92EF92FF920F931F93CF93AE
:10076000DF934115510509F486C06A01EC017B0154
:1007700010E000E0BB24B394E881F9810190F0819E
:10078000E02DD7016D917D01B3E0E334FB0709F063
:100790006CC0B88E9B8D8C8D981709F454C02B8D2E
:1007A00030E02F5F3F4F2F733327822F03C00FB6E8
:1007B00007FE23C09C8D8917D1F3EB8DEC0FFD2F25
:1007C000F11DE35AFF4F60839FB7F8942B8FEA899E
:1007D000FB898081806280839FBF0F5F1F4FC0169F
:1007E000D10651F6C801DF91CF911F910F91FF9073
:1007F000EF90DF90CF90BF900895E889F9899081BC
:1008000095FFD8CFEC8DEC0FFD2FF11DE35AFF4F74
:1008100090814C8D50E04F5F5F4F4F7355274C8F49
:10082000EE89FF899083E889F989908193709064BB
:1008300090834B8D9C8D4913BDCFEA89FB899081B4
:100840009F7D9083B7CFE889F989808185FFA7CF05
:100850009FB7F894EE89FF896083E889F9898081E0
:100860008370806480839FBFB8CFCE011995892B98
:1008700009F4B8CFB2CF10E000E0B4CFCF93DF934C
:10088000EC01888D882399F1EA89FB89A889B989C7
:10089000908195FD03C09C9196FD29C00FB607FC81
:1008A000F7CF808185FFF4CF8C9185FFF1CFEC8D60
:1008B000EC0FFD2FF11DE35AFF4F20818C8D90E04E
:1008C00001968F7399278C8FEE89FF892083E889A1
:1008D000F98980818370806480839B8D8C8D9813CF
:1008E000D3CFEA89FB8980818F7D8083CDCFDF9153
:1008F000CF910895FC01938D848D981720F4891B66
:10090000990B019708952FE330E0291B3109820FDD
:10091000932F911D0895FC01918D828D981761F0A0
:10092000A28DAE0FBF2FB11D5D968C91928D9F5FF2
:100930009F73928F90E008958FEF9FEF0895FC01D1
:10094000918D828D981731F0828DE80FF11D858D84
:1009500090E008958FEF9FEF08951F920F920FB6CA
:100960000F9211242F933F938F939F93AF93BF9335
:100970008091650290916602A0916702B091680231
:100980003091640223E0230F2D3768F126E8230F0E
:100990000296A11DB11D209364028093650290937D
:1009A0006602A0936702B093680280916002909102
:1009B0006102A0916202B09163020196A11DB11D76
:1009C0008093600290936102A0936202B0936302ED
:1009D000BF91AF919F918F913F912F910F900FBE3B
:1009E0000F901F9018950196A11DB11DD4CF1F9295
:1009F0000F920FB60F9211240BB60F922F938F9375
:100A00009F93EF93FF93E0918502F0E0EA53FD4F4F
:100A100020818091850290E001968F7399278093C1
:100A20008502E0917F02F09180022083E0917902BB
:100A3000F0917A0280818370806480839091840237
:100A400080918502981307C0E0917B02F0917C02AF
:100A500080818F7D8083FF91EF919F918F912F9166
:100A60000F900BBE0F900FBE0F901F9018951F9206
:100A70000F920FB60F9211240BB60F922F938F93F4
:100A80009F93EF93FF93E0917902F0917A02808136
:100A9000E0917F02F091800282FF0DC08081FF9182
:100AA000EF919F918F912F910F900BBE0F900FBEE2
:100AB0000F901F9018952081809182028F5F8F7315
:100AC00090918302891759F3E0918202F0E0E7598F
:100AD000FD4F258F80938202E2CF1F920F920FB6B7
:100AE0000F9211240BB60F922F933F934F935F9366
:100AF0006F937F938F939F93AF93BF93CF93DF9326
:100B0000EF93FF9380913E02C0919603D0E087FD62
:100B1000A4C080913E02082E000C990B8C179D07F3
:100B20000CF47AC080913E028F5F80933E028091E8
:100B30003E02082E000C990B8C179D07ECF5809156
:100B40003E028C30CCF52091240130912501E091BA
:100B50003E028E2FEE0F990BFC01EE0FFF1FE80FE8
:100B6000F91FEA5FFC4F81819281820F931F90935E
:100B7000290180932801E0913E028E2FEE0F990B00
:100B8000FC01EE0FFF1FE80FF91FEA5FFC4F8081A9
:100B900086FF26C0E0913E028E2FEE0F990BFC01DE
:100BA000EE0FFF1FE80FF91FEA5FFC4F808161E045
:100BB0008F730E94440214C08091240190912501FA
:100BC000049680349C4908F180912401909125017C
:100BD000049690932901809328018FEF80933E0221
:100BE000FF91EF91DF91CF91BF91AF919F918F9145
:100BF0007F916F915F914F913F912F910F900BBE1D
:100C00000F900FBE0F901F90189580E49CE9909371
:100C1000290180932801E1CFE0913E028E2FEE0F53
:100C2000990BFC01EE0FFF1FE80FF91FEA5FFC4F65
:100C3000808186FF77CFE0913E028E2FEE0F990BD9
:100C4000FC01EE0FFF1FE80FF91FEA5FFC4F8081E8
:100C500060E08F730E94440265CF109225011092CC
:100C6000240160CF1F920F920FB60F9211240BB682
:100C70000F922F933F934F935F936F937F938F9335
:100C80009F93AF93BF93CF93DF93EF93FF938091A5
:100C90004102C0919603D0E087FDACC08091410233
:100CA000082E000C990B84968C179D070CF47FC0BE
:100CB000809141028F5F8093410280914102082E12
:100CC000000C990B84968C179D070CF040C0809106
:100CD00041028C30E4F52091A4003091A500809170
:100CE0004102082E000C990B8496FC01EE0FFF1FA9
:100CF000E80FF91FEA5FFC4F81819281820F931FF9
:100D00009093A9008093A80080914102082E000CC6
:100D1000990B8496FC01EE0FFF1FE80FF91FEA5FA5
:100D2000FC4F808186FF27C080914102082E000C75
:100D3000990B8496FC01EE0FFF1FE80FF91FEA5F85
:100D4000FC4F808161E08F730E94440214C0809147
:100D5000A4009091A500049680349C4908F18091EC
:100D6000A4009091A50004969093A9008093A800F8
:100D70008FEF80934102FF91EF91DF91CF91BF916F
:100D8000AF919F918F917F916F915F914F913F9123
:100D90002F910F900BBE0F900FBE0F901F901895C4
:100DA00080E49CE99093A9008093A800E1CF809112
:100DB0004102082E000C990B8496FC01EE0FFF1FD8
:100DC000E80FF91FEA5FFC4F808186FF71CF8091A9
:100DD0004102082E000C990B8496FC01EE0FFF1FB8
:100DE000E80FF91FEA5FFC4F808160E08F730E947B
:100DF00044025ECF1092A5001092A40059CF1F921A
:100E00000F920FB60F9211240BB60F922F933F93B0
:100E10004F935F936F937F938F939F93AF93BF9302
:100E2000CF93DF93EF93FF9380914002C09196039D
:100E3000D0E087FDACC080914002082E000C990BD9
:100E400048968C179D070CF47FC0809140028F5FFD
:100E50008093400280914002082E000C990B489626
:100E60008C179D070CF040C0809140028C30E4F557
:100E7000209194003091950080914002082E000C42
:100E8000990B4896FC01EE0FFF1FE80FF91FEA5F70
:100E9000FC4F81819281820F931F909399008093E0
:100EA000980080914002082E000C990B4896FC0196
:100EB000EE0FFF1FE80FF91FEA5FFC4F808186FFEE
:100EC00027C080914002082E000C990B4896FC0127
:100ED000EE0FFF1FE80FF91FEA5FFC4F808161E012
:100EE0008F730E94440214C08091940090919500E9
:100EF000049680349C4908F180919400909195006B
:100F0000049690939900809398008FEF809340020D
:100F1000FF91EF91DF91CF91BF91AF919F918F9111
:100F20007F916F915F914F913F912F910F900BBEE9
:100F30000F900FBE0F901F90189580E49CE990933E
:100F4000990080939800E1CF80914002082E000C18
:100F5000990B4896FC01EE0FFF1FE80FF91FEA5F9F
:100F6000FC4F808186FF71CF80914002082E000CDB
:100F7000990B4896FC01EE0FFF1FE80FF91FEA5F7F
:100F8000FC4F808160E08F730E9444025ECF10921C
:100F900095001092940059CF1F920F920FB60F92A6
:100FA00011240BB60F922F933F934F935F936F9340
:100FB0007F938F939F93AF93BF93CF93DF93EF93E1
:100FC000FF9380913F02C0919603D0E087FDACC0B3
:100FD00080913F02082E000C990B0C968C179D07F0
:100FE0000CF47FC080913F028F5F80933F0280911D
:100FF0003F02082E000C990B0C968C179D070CF0E5
:1010000040C080913F028C30E4F520918400309103
:10101000850080913F02082E000C990B0C96FC0174
:10102000EE0FFF1FE80FF91FEA5FFC4F81819281ED
:10103000820F931F909389008093880080913F02D4
:10104000082E000C990B0C96FC01EE0FFF1FE80F09
:10105000F91FEA5FFC4F808186FF27C080913F0225
:10106000082E000C990B0C96FC01EE0FFF1FE80FE9
:10107000F91FEA5FFC4F808161E08F730E94440298
:1010800014C08091840090918500049680349C491E
:1010900008F18091840090918500049690938900D6
:1010A000809388008FEF80933F02FF91EF91DF9153
:1010B000CF91BF91AF919F918F917F916F915F91F0
:1010C0004F913F912F910F900BBE0F900FBE0F903D
:1010D0001F90189580E49CE9909389008093880084
:1010E000E1CF80913F02082E000C990B0C96FC0179
:1010F000EE0FFF1FE80FF91FEA5FFC4F808186FFAC
:1011000071CF80913F02082E000C990B0C96FC01C8
:10111000EE0FFF1FE80FF91FEA5FFC4F808160E0D0
:101120008F730E9444025ECF10928500109284005B
:1011300059CF10926C0210926B0288EE93E0A0E0FF
:10114000B0E080936D0290936E02A0936F02B09313
:10115000700288E092E090936A028093690285ECC5
:1011600090E0909376028093750284EC90E09093E7
:1011700078028093770280EC90E090937A028093DB
:10118000790281EC90E090937C0280937B0282EC68
:1011900090E090937E0280937D0286EC90E09093A5
:1011A000800280937F02109282021092830210923A
:1011B00084021092850280919603803320F08FEF95
:1011C00080939703089591E0980F909396038093EE
:1011D000970390E0FC01EE0FFF1FE80FF91FEA5F95
:1011E000FC4F88EB9BE0928381830895CF93DF933C
:1011F000CDB7DEB7A5970FB6F894DEBF0FBECDBF53
:10120000789484B5826084BD84B5816084BD85B5E1
:10121000826085BD85B5816085BD80916E008160ED
:1012200080936E0010928100809181008260809393
:101230008100809181008160809381008091800095
:101240008160809380008091B10084608093B100C0
:101250008091B00081608093B000809191008260A5
:1012600080939100809191008160809391008091A2
:1012700090008160809390008091A10082608093B3
:10128000A1008091A10081608093A1008091A000C5
:1012900081608093A0008091210182608093210170
:1012A00080912101816080932101809120018160E2
:1012B0008093200180917A00846080937A008091ED
:1012C0007A00826080937A0080917A0081608093B6
:1012D0007A0080917A00806880937A001092C10031
:1012E000ECEAF2E02491E6E6F2E084918823C9F08A
:1012F00090E0880F991FFC01E65BFD4FA591B4912A
:10130000805D9D4FFC01459154913FB7F8949C91AD
:10131000822F809598239C93DA019C9189238C934A
:101320003FBFE0EEF2E02491EAE9F2E08491882305
:10133000C9F090E0880F991FFC01E65BFD4FA59175
:10134000B491805D9D4FFC01459154913FB7F89455
:101350009C91822F809598239C93FA0190818923F8
:1013600080833FBF80919703803310F40C9438182A
:1013700089E00E94AC018AE00E94AC018BE00E94EF
:10138000AC0160E089E00E94440261E08AE00E94D2
:1013900044028BE00E94AC0160E08BE00E944402BA
:1013A0002091980388E890E0821B910927FD93958E
:1013B000880F991F880F991F20919703203380F47D
:1013C0000297880F991F4FB7F89430E0F901EE0F9C
:1013D000FF1FE20FF31FEA5FFC4F928381834FBF31
:1013E000E0917902F0917A0282E08083E0917502C7
:1013F000F09176021082E0917702F09178028FEC02
:10140000808310928102E0917D02F0917E0286E05D
:101410008083E0917B02F0917C02808180618083F7
:10142000E0917B02F0917C02808188608083E09172
:101430007B02F0917C02808180688083E0917B0256
:10144000F0917C0280818F7D808320E4222E3324E2
:1014500033943AE0C32ED12CE12CF12C80917B0007
:10146000877F80937B0020927C0080917A0080644B
:1014700080937A0080917A0086FDFCCF609178009D
:1014800070917900072E000C880B990B0E94BE1AF0
:1014900060935C0270935D0280935E0290935F02A2
:1014A000ECEEF1E08491ECEAF2E00491E6E6F2E0A1
:1014B0001491112309F4B8C18111A6C5E12FF0E000
:1014C000EE0FFF1FE053FE4FA591B4918C910823BE
:1014D00091E080E009F490E090935A0280935B02DF
:1014E0009FB7F89440906002509061026090620251
:1014F0007090630286B5A89B07C08F3F29F0FFEF6D
:101500004F1A5F0A6F0A7F0A9FBF762C652C542CF6
:101510004424480E511C611C711C440C551C661C53
:10152000771C440C551C661C771C80915802811155
:1015300005C23092580283E0809359029FB7F89415
:101540008090600290906102A0906202B09063026D
:1015500086B5A89B07C08F3F29F02FEF821A920A09
:10156000A20AB20A9FBFBA2CA92C982C8824880EF4
:10157000911CA11CB11C880C991CAA1CBB1C880CBA
:10158000991CAA1CBB1C84189508A608B708609172
:101590005002709151028091520290915302680D55
:1015A000791D8A1D9B1D6093500270935102809398
:1015B00052029093530220914E0230914F022F5FBE
:1015C0003F4F30934F0220934E0240904A0250907A
:1015D0004B0260904C0270904D02481459046A040A
:1015E0007B0440F480924A0290924B02A0924C02FB
:1015F000B0924D02409000025090010260900202B1
:101600007090030284149504A604B70440F48092F9
:10161000000290920102A0920202B09203022436CC
:10162000310508F4EAC12436310509F4F6C4809185
:10163000440290914502009709F0F9C0609146027A
:101640007091470280914802909149020E94861A47
:10165000AB019B01E5EBF2E01491EFE6F2E084913F
:10166000882399F090E0880F991FFC01E65BFD4FFD
:10167000A591B491FC01E05DFD4F859194918FB7E8
:10168000F8949C91192B1C938FBFE5EFF1E0211585
:10169000310509F4EAC32F3F310569F08491EFEF7A
:1016A000E80FE23108F4FDC3E5EFF1E02038310541
:1016B00014F40C9418188491E5EBF2E00491EFE631
:1016C000F2E01491112389F081110E94CB01E12FE6
:1016D000F0E0EE0FFF1FE05DFD4FA591B4918FB7D5
:1016E000F8949C91092B0C938FBF9FB7F89440916D
:1016F000600250916102609162027091630286B54E
:10170000A89B06C08F3F21F04F5F5F4F6F4F7F4F09
:101710009FBF762F652F542F4427480F511D611D01
:10172000711D440F551F661F771F440F551F661FFD
:10173000771F04E610E020E030E0FFB7F8948091D6
:10174000600290916102A0916202B0916302E6B5DD
:10175000A89B05C0EF3F19F00196A11DB11DFFBF69
:10176000BA2FA92F982F88278E0F911DA11DB11D6B
:10177000880F991FAA1FBB1F880F991FAA1FBB1F85
:10178000841B950BA60BB70B883E9340A105B105B2
:10179000A0F2015011092109310948515C4F6F4FE6
:1017A0007F4F011511052105310539F620E030E0A4
:1017B000232B71F0809182022091830290E0805C63
:1017C0009F4F821B91098F739927892B09F019C4A8
:1017D00040E050E0452B49F080E090E0892B29F073
:1017E0000E94000081110C94C715A0E0B0E0AB2B63
:1017F00049F0E0E0F0E0EF2B29F00E9400008111B9
:101800000C94CB1520E030E0232B09F427CE40E0E8
:1018100050E0452B09F422CE0E940000882309F4F1
:101820001DCE0E9400001ACE90E080E055CEDC0173
:10183000AA0FBB1FAA0FBB1FA80FB91F20914202FE
:1018400030914302A20FB31FB0934302A093420210
:10185000A032E2E0BE07DCF58091980398E8892E7B
:10186000912C881A910887FD9394880C991C880CF8
:10187000991C092C000CAA08BB088091990328E543
:1018800032E0281B310987FD3395220F331F220FC9
:10189000331F032E000C440B550B281939094A0934
:1018A0005B09A53BB10514F0A4EBB0E0B7FF02C0A3
:1018B000B0E0A0E00E94611924EB30E040E050E08D
:1018C0000E943719820E931EA41EB51ED4012091CA
:1018D0009703203308F0B2CE8091980348E850E097
:1018E000481B510987FD5395CA01880F991F880F1E
:1018F000991FA817B9078CF080919903E8E5F2E0E9
:10190000E81BF10987FDF395CF01880F991F880F18
:10191000991FA817B9070CF4CD010297880F991FDA
:101920004FB7F89430E0F901EE0FFF1FE20FF31FFD
:10193000EA5FFC4F928381834FBF80CE8091590232
:10194000813011F40C941816823011F00C94D615D5
:1019500080915602909157028332910510F40C94B5
:10196000CF15109245021092440210925702109225
:10197000560283E08093590280915402909155025F
:101980008930910508F443C320E030E040EA51E497
:1019900060915C0270915D0280915E0290915F02A5
:1019A0000E94A2192AED30EF49EF5EE30E94731BFB
:1019B00020E030E040E252E40E94A21920E030E052
:1019C00040EA51E40E94A21920E030E04FE753E4DE
:1019D0000E94731B20E030EC49E853E40E94141A83
:1019E00060934602709347028093480290934902A5
:1019F0001092550210925402A1CD50E040E019A27D
:101A00008E010F5D1F4FCA01B901A70196010E9407
:101A10006919605DD8016E938D012115310541056D
:101A2000510589F7E0917902F0917A021097E9F176
:101A30000D900020E9F7BD01D80161507109A6178A
:101A4000B70799F14D913092810290918402809173
:101A50008502981709F492C02091840230E02F5F2C
:101A60003F4F2F733327922F03C00FB607FE56C088
:101A7000809185029817C9F3E0918402F0E0EA535F
:101A8000FD4F40839FB7F89420938402E0917B023E
:101A9000F0917C028081806280839FBFE091790217
:101AA000F0917A02A617B70769F6A6E1B2E04D9168
:101AB000309281029091840280918502981709F4F6
:101AC000A2C02091840230E02F5F3F4F2F73332755
:101AD000922F03C00FB607FE65C08091850298174C
:101AE000C9F3E0918402F0E0EA53FD4F40839FB7D1
:101AF000F89420938402E0917B02F0917C02808133
:101B0000806280839FBFE8E1F2E0EA17FB0709F4F7
:101B100093C0E0917902F0917A02C9CF808185FF6C
:101B2000A7CFE0918502F0E0EA53FD4F8081E0917C
:101B30008502F0E03196EF73FF27E0938502E09194
:101B40007F02F09180028083E0917902F0917A0225
:101B500080818370806480835091840280918502AB
:101B6000581307C0E0917B02F0917C0280818F7D49
:101B70008083E0917902F0917A027ACF808185FFAB
:101B80006BCF9FB7F894E0917F02F0918002408381
:101B9000E0917902F0917A02808183708064808381
:101BA0009FBF7CCF808185FF98CFE0918502F0E0D8
:101BB000EA53FD4F80816091850270E06F5F7F4F37
:101BC0006F73772760938502E0917F02F091800226
:101BD0008083E0917902F0917A0280818370806441
:101BE00080835091840280918502581307C0E09150
:101BF0007B02F0917C0280818F7D8083E09179026D
:101C0000F0917A026ACF808185FF5BCF9FB7F8940D
:101C1000E0917F02F09180024083E0917902F0919F
:101C20007A0280818370806480839FBFE8E1F2E064
:101C3000EA17FB0709F06DCF19A28E010F5D1F4F48
:101C4000C501B401A70196010E94691949015A0111
:101C5000605DD8016E938D0181149104A104B104DB
:101C600079F7E0917902F0917A021097E9F10D90FD
:101C70000020E9F7AD01D80141505109A417B5077B
:101C800099F16D9130928102909184028091850248
:101C9000981709F491C02091840230E02F5F3F4FE4
:101CA0002F733327922F03C00FB607FE55C08091C4
:101CB00085029817C9F3E0918402F0E0EA53FD4FE2
:101CC00060839FB7F89420938402E0917B02F091A7
:101CD0007C028081806280839FBFE0917902F091D5
:101CE0007A02A417B50769F6A9E1B2E04D913092E6
:101CF00081029091840280918502981709F4A1C015
:101D00002091840230E02F5F3F4F2F733327922FB3
:101D100003C00FB607FE64C0809185029817C9F30F
:101D2000E0918402F0E0EA53FD4F40839FB7F894BE
:101D300020938402E0917B02F0917C02808180629A
:101D400080839FBFE2E0AB31BE0709F470CCE09125
:101D50007902F0917A02CACF808185FFA8CFE09105
:101D60008502F0E0EA53FD4F8081E0918502F0E0CA
:101D70003196EF73FF27E0938502E0917F02F091A7
:101D800080028083E0917902F0917A0280818370F1
:101D9000806480837091840280918502781307C0EB
:101DA000E0917B02F0917C0280818F7D8083E091C5
:101DB0007902F0917A027BCF808185FF6CCF9FB74B
:101DC000F894E0917F02F09180026083E0917902C3
:101DD000F0917A0280818370806480839FBF7DCF81
:101DE000808185FF99CFE0918502F0E0EA53FD4FB5
:101DF00080816091850270E06F5F7F4F6F737727FE
:101E000060938502E0917F02F09180028083E091EF
:101E10007902F0917A02808183708064808350918E
:101E2000840280918502581307C0E0917B02F091F3
:101E30007C0280818F7D8083E0917902F0917A022B
:101E40006BCF808185FF5CCF9FB7F894E0917F02D4
:101E5000F09180024083E0917902F0917A028081D2
:101E60008370806480839FBF6DCF8491E5EBF2E047
:101E70000491EFE6F2E01491112309F436CC8111BC
:101E800016C7E12FF0E0EE0FFF1FE05DFD4FA591BB
:101E9000B4918FB7F8949C91009509230C938FBF50
:101EA00024CCF0E08827E85AF04F8F4F0C949A1911
:101EB000FC0FF70FED0FE30FD90F540BD10FC90F24
:101EC000BF0FB50FAB0F9C0F920F880F540B7E0FF7
:101ED000740F6A0F809120018860809320015093D5
:101EE0002D0140932C0101CC8091200180628093D0
:101EF000200150932B0140932A01F7CB80912001C0
:101F00008068809320015093290140932801EDCBF4
:101F10008091A00088608093A0005093AD00409312
:101F2000AC00E3CB8091A00080628093A00050932E
:101F3000AB004093AA00D9CB8091A0008068809329
:101F4000A0008091A0008F7B8093A0005093A900F7
:101F50004093A800CACB8091900088608093900045
:101F600050939D0040939C00C0CB80919000806274
:101F70008093900050939B0040939A00B6CB809141
:101F8000900080688093900050939900409398004F
:101F9000ACCB8091B00080628093B0004093B400DD
:101FA000A4CB8091B00080688093B0004093B300D0
:101FB0009CCB8091800088608093800050938D003E
:101FC00040938C0092CB809180008062809380004F
:101FD00050938B0040938A0088CB8091800080686A
:101FE0008093800050938900409388007ECB84B515
:101FF000806284BD48BD79CB84B5806884BD47BD0F
:1020000074CB0E940000E4CB0E94CB0157CA01961A
:10201000909355028093540291CA0E94BC1A20E00A
:1020200030E048EC52E40E94141A4B015C01ACE130
:10203000B2E04D91309281029091840280918502AC
:10204000E0917902F0917A02981709F46AC320911D
:10205000840230E02F5F3F4F2F733327922F03C04E
:102060000FB607FE2EC2809185029817C9F3E09142
:102070008402F0E0EA53FD4F40839FB7F894209329
:102080008402E0917B02F0917C02808180628083F7
:102090009FBF25E232E02A173B0759F6A5019401BC
:1020A000C501B4010E94E01B06E212E081111EC1CD
:1020B0002FEF3FEF4FE75FE7C501B4010E94E01B40
:1020C00081110BC02FEF3FEF4FE75FE7C501B40170
:1020D0000E940F1A18160CF434C62FEF3FEF4FE78B
:1020E0005FE4C501B4010E946E1B18160CF4A6C66D
:1020F0002FEF3FEF4FE75FECC501B4010E940F1ACD
:1021000087FD19C72AE037ED43EA5BE3C501B40157
:102110000E94A3194B015C010E948D1A2B013C0106
:102120000E94BC1A9B01AC01C501B4010E94A21916
:102130004B015C0119A28E010F5D1F4FC301B2015B
:10214000A70196010E94691929013A01605DD80131
:102150006E938D01411451046104710479F7109755
:1021600009F43EC0FD0101900020E9F7BF01FD0127
:10217000615071096E177F0799F141913092810288
:102180009091840280918502A0917902B0917A02A7
:10219000981709F478C52091840230E02F5F3F4FF3
:1021A0002F733327922F03C00FB607FEC0C4809150
:1021B00085029817C9F3A0918402B0E0AA53BD4FDD
:1021C0004C939FB7F89420938402A0917B02B09126
:1021D0007C028C9180628C939FBF6E177F0769F69B
:1021E0006EE289E692E00E9443036090790270906B
:1021F0007A02E2E05E2E20E030E040E251E4C501E8
:10220000B4010E94731B4B015C010E948D1A9B015B
:1022100050E040E02AA33BA34CA35DA319A28E018A
:102220000F5D1F4FCA01B901A70196010E946919EC
:10223000605DD8016E938D01211531054105510571
:1022400089F7109709F43EC0FD0101900020E9F7DD
:102250008F01015011090A171B07A1F14D91E1E00F
:10226000E09381029091840280918502981709F48D
:1022700053C52091840230E02F5F3F4F2F733327E7
:10228000922F03C00FB607FE15C5809185029817DF
:10229000C9F3E0918402F0E0EA53FD4F40839FB719
:1022A000F89420938402E0917B02F0917C0280817B
:1022B000806280839FBF6090790270907A020A17D3
:1022C0001B0761F66AA17BA18CA19DA10E94BC1A8B
:1022D0009B01AC01C501B4010E94A2194B015C0134
:1022E000F1E05F16A9F05524539485CFD8016D9184
:1022F0008D0189E692E00E944303892B29F049E28F
:1023000052E04017510791F76090790270907A027D
:1023100079E1A72E72E0B72E8501D8014D918D018C
:10232000309281029091840280918502981709F47D
:10233000E3C12091840230E02F5F3F4F2F7333279A
:10234000922F03C00FB607FE8AC0809185029817AE
:10235000C9F3E0918402F0E0EA53FD4F40839FB758
:10236000F89420938402E0917B02F0917C028081BA
:10237000806280839FBF6090790270907A022BE127
:1023800032E02017310749F6A2E3B2E04D913092D6
:1023900081029091840280918502981709F4C2C04D
:1023A0002091840230E02F5F3F4F2F733327922F0D
:1023B00003C00FB607FE21C0809185029817C9F3AC
:1023C000E0918402F0E0EA53FD4F40839FB7F89418
:1023D00020938402E0917B02F0917C0280818062F4
:1023E00080839FBFE7E3F2E0EA17FB0709F4B4C07C
:1023F0006090790270907A02C9CFF301808185FFE5
:10240000DBCFE0918502F0E0EA53FD4F80816091DF
:10241000850270E06F5F7F4F6F737727609385024F
:10242000E0917F02F09180028083E0917902F09147
:102430007A028081837080648083509184028091CD
:102440008502581307C0E0917B02F0917C028081E5
:102450008F7D80836090790270907A02ADCFD30136
:102460008C9185FF72CFE0918502F0E0EA53FD4F39
:1024700080816091850270E06F5F7F4F6F73772777
:1024800060938502E0917F02F09180028083E09169
:102490007902F0917A028081837080648083509108
:1024A000840280918502581307C0E0917B02F0916D
:1024B0007C0280818F7D80836090790270907A02A7
:1024C00044CF808185FFCFCDE0918502F0E0EA53D3
:1024D000FD4F80816091850270E06F5F7F4F6F7369
:1024E000772760938502E0917F02F09180028083DC
:1024F000E0917902F0917A02808183708064808318
:102500005091840280918502581307C0E0917B02AC
:10251000F0917C0280818F7D8083E0917902F0913F
:102520007A02A1CDF301808185FF3ACF9FB7F8945D
:10253000E0917F02F09180024083E0917902F09176
:102540007A0280818370806480839FBFE7E3F2E03A
:10255000EA17FB0709F04CCF2091000230910102ED
:10256000409102025091030219A2CE0181964C01C2
:10257000CA01B901A70196010E946919605DD401E1
:102580006E934D01211531054105510589F7E09103
:102590007902F0917A021097E9F10D900020E9F7A5
:1025A000AD01D401415051094A175B0799F16D9172
:1025B000309281029091840280918502981709F4EB
:1025C000F4C02091840230E02F5F3F4F2F733327F8
:1025D000922F03C00FB607FEB8C0809185029817EE
:1025E000C9F3E0918402F0E0EA53FD4F60839FB7A6
:1025F000F89420938402E0917B02F0917C02808128
:10260000806280839FBFE0917902F0917A024A173D
:102610005B0769F669E1862E62E0962ED4014D9142
:102620004D01309281029091840280918502981729
:1026300009F431C12091840230E02F5F3F4F2F73A6
:102640003327922F03C00FB607FEF4C08091850296
:102650009817C9F3E0918402F0E0EA53FD4F4083FC
:102660009FB7F89420938402E0917B02F0917C0262
:102670008081806280839FBFE0917902F0917A022D
:102680000815190559F6A8E3B2E04D913092810280
:102690009091840280918502981709F410C12091CD
:1026A000840230E02F5F3F4F2F733327922F03C0F8
:1026B0000FB607FE8EC0809185029817C9F3E0918E
:1026C0008402F0E0EA53FD4F40839FB7F8942093D3
:1026D0008402E0917B02F0917C02808180628083A1
:1026E0009FBFEDE3F2E0EA17FB0709F401C1E091B7
:1026F0007902F0917A02C9CFF301808185FF19CE6A
:102700009FB7F894E0917F02F09180024083E091BE
:102710007902F0917A0280818370806480839FBF08
:102720002ACE808185FF93CC9FB7F894E0917F02F9
:10273000F09180024083E0917902F0917A028081E9
:102740008370806480839FBFA4CC808185FF45CF48
:10275000E0918502F0E0EA53FD4F8081E09185022F
:10276000F0E03196EF73FF27E0938502E0917F025E
:10277000F09180028083E0917902F0917A02808169
:1027800083708064808370918402809185027813C5
:1027900007C0E0917B02F0917C0280818F7D808375
:1027A000E0917902F0917A0218CF808185FF09CFFC
:1027B0009FB7F894E0917F02F09180026083E091EE
:1027C0007902F0917A0280818370806480839FBF58
:1027D0001ACF808185FF6FCFE0918502F0E0EA5348
:1027E000FD4F80816091850270E06F5F7F4F6F7356
:1027F000772760938502E0917F02F09180028083C9
:10280000E0917902F0917A02808183708064808304
:102810005091840280918502581307C0E0917B0299
:10282000F0917C0280818F7D8083E0917902F0912C
:102830007A0241CF808185FF09CFE0918502F0E0E7
:10284000EA53FD4F80816091850270E06F5F7F4F9A
:102850006F73772760938502E0917F02F091800289
:102860008083E0917902F0917A02808183708064A4
:1028700080835091840280918502581307C0E091B3
:102880007B02F0917C0280818F7D8083E0917902D0
:10289000F0917A02DBCE808185FFCCCE9FB7F89491
:1028A000E0917F02F09180024083E0917902F09103
:1028B0007A0280818370806480839FBFDDCE8081B7
:1028C00085FFEDCE9FB7F894E0917F02F0918002F2
:1028D0004083E0917902F0917A0280818370806474
:1028E00080839FBFEDE3F2E0EA17FB0709F0FFCE1C
:1028F00020914A0230914B0240914C0250914D027E
:1029000019A28E010F5D1F4FCA01B901A7019601DF
:102910000E946919605DD8016E938D012115310502
:102920004105510589F7E0917902F0917A021097FB
:10293000E9F10D900020E9F7AD01D80141505109AE
:102940004A175B0799F16D91309281029091840250
:1029500080918502981709F4D6C02091840230E056
:102960002F5F3F4F2F733327922F03C00FB607FE01
:1029700086C0809185029817C9F3E0918402F0E047
:10298000EA53FD4F60839FB7F89420938402E0914F
:102990007B02F0917C028081806280839FBFE09106
:1029A0007902F0917A024A175B0769F6D5014D91D9
:1029B0005D01309281029091840280918502981786
:1029C00009F48DC02091840230E02F5F3F4F2F73B8
:1029D0003327922F03C00FB607FE20C080918502D7
:1029E0009817C9F3E0918402F0E0EA53FD4F408369
:1029F0009FB7F89420938402E0917B02F0917C02CF
:102A00008081806280839FBF8A149B0411F40C94A0
:102A1000170BE0917902F0917A02C8CF808185FF8F
:102A2000DDCFE0918502F0E0EA53FD4F80816091B7
:102A3000850270E06F5F7F4F6F7377276093850229
:102A4000E0917F02F09180028083E0917902F09121
:102A50007A028081837080648083509184028091A7
:102A60008502581307C0E0917B02F0917C028081BF
:102A70008F7D8083E0917902F0917A02AFCF8081DF
:102A800085FF77CFE0918502F0E0EA53FD4F80812A
:102A9000E0918502F0E03196EF73FF27E093850225
:102AA000E0917F02F09180028083E0917902F091C1
:102AB0007A02808183708064808370918402809127
:102AC0008502781307C0E0917B02F0917C0280813F
:102AD0008F7D8083E0917902F0917A024ACF8081E4
:102AE00085FF70CF9FB7F894E0917F02F09180024C
:102AF0004083E0917902F0917A0280818370806452
:102B000080839FBF81CF808185FF27CF9FB7F894B7
:102B1000E0917F02F09180026083E0917902F09170
:102B20007A0280818370806480839FBF38CF8C91CC
:102B300085FF3DCBA0918502B0E0AA53BD4F8C919B
:102B4000A0918502B0E01196AF73BB27A0938502D8
:102B5000A0917F02B09180028C93A0917902B091F4
:102B60007A028C91837080648C935091840280915E
:102B70008502581307C0A0917B02B0917C028C9112
:102B80008F7D8C93A0917902B0917A0210CB0E9434
:102B900000000C94F50B0E9400000C94020C0196AE
:102BA00090935702809356020C94BC0C20915A02C9
:102BB00030915B02A8E8B3E10E948B1961157105A1
:102BC00031E08307910508F050C040E157E2461B11
:102BD000570B6131774208F048C09A013695279526
:102BE00036952795ABE7B4E10E948B1996958795AA
:102BF00064E6689F9001699F300D1124421B530BBE
:102C00004233510560F12091560230915702281746
:102C1000390758F52F3F320711F02F5F3F4F3093A0
:102C200057022093560283E0809359020C94BC0C07
:102C300080915602909157028332910508F4AFCFEC
:102C40002FEF3FEF3093450220934402109257023A
:102C50001092560282E0809359020C94BC0C9C01A5
:102C600021503109892B09F0CEC2E1E0F0E0F09368
:102C70004502E0934402109257021092560230929D
:102C800059020C94BC0C8C9185FF85CA9FB7F894AF
:102C9000A0917F02B09180024C93A0917902B091F3
:102CA0007A028C91837080648C939FBF63CA0E9468
:102CB000CB01E7C8F301808185FFE7CAE091850277
:102CC000F0E0EA53FD4F80816091850270E06F5F14
:102CD0007F4F6F73772760938502E0917F02F091B9
:102CE00080028083E0917902F0917A028081837082
:102CF000806480835091840280918502581307C0BC
:102D0000E0917B02F0917C0280818F7D80836090D6
:102D1000790270907A02B9CAF301808185FFA9CA4D
:102D20009FB7F894E0917F02F09180024083E09198
:102D30007902F0917A0280818370806480839FBFE2
:102D4000BACAAAE2B2E04D91309281029091840217
:102D500080918502E0917902F0917A02981709F446
:102D600059C02091840230E02F5F3F4F2F733327EB
:102D7000922F03C00FB607FE1CC0809185029817E2
:102D8000C9F3E0918402F0E0EA53FD4F40839FB71E
:102D9000F89420938402E0917B02F0917C02808180
:102DA000806280839FBFEDE2F2E0EA17FB0759F6ED
:102DB000ABCA808185FFE1CFE0918502F0E0EA5364
:102DC000FD4F80816091850270E06F5F7F4F6F7370
:102DD000772760938502E0917F02F09180028083E3
:102DE000E0917902F0917A0280818370806480831F
:102DF0005091840280918502581307C0E0917B02B4
:102E0000F0917C0280818F7D8083E0917902F09146
:102E10007A02B3CF808185FFA4CF9FB7F894E09169
:102E20007F02F09180024083E0917902F0917A0272
:102E300080818370806480839FBFB5CFAEE2B2E0B3
:102E40004D91309281029091840280918502E091AF
:102E50007902F0917A02981709F459C020918402FE
:102E600030E02F5F3F4F2F733327922F03C00FB6F1
:102E700007FE1CC0809185029817C9F3E091840277
:102E8000F0E0EA53FD4F40839FB7F894209384020B
:102E9000E0917B02F0917C028081806280839FBF01
:102EA00021E332E02A173B0759F62ECA808185FFBD
:102EB000E1CFE0918502F0E0EA53FD4F808160911F
:102EC000850270E06F5F7F4F6F7377276093850295
:102ED000E0917F02F09180028083E0917902F0918D
:102EE0007A02808183708064808350918402809113
:102EF0008502581307C0E0917B02F0917C0280812B
:102F00008F7D8083E0917902F0917A02B3CF808146
:102F100085FFA4CF9FB7F894E0917F02F0918002E3
:102F20004083E0917902F0917A028081837080641D
:102F300080839FBFB5CFAEE2B2E06D913092810247
:102F40009091840280918502E0917902F0917A0259
:102F5000981709F459C02091840230E02F5F3F4F49
:102F60002F733327922F03C00FB607FE1CC080912A
:102F700085029817C9F3E0918402F0E0EA53FD4F0F
:102F800060839FB7F89420938402E0917B02F091D4
:102F90007C028081806280839FBF41E352E04A17B8
:102FA0005B0759F6B1C9808185FFE1CFE0918502C9
:102FB000F0E0EA53FD4F80814091850250E04F5F81
:102FC0005F4F4F73552740938502E0917F02F09148
:102FD00080028083E0917902F0917A02808183708F
:102FE000806480834091840280918502481307C0E9
:102FF000E0917B02F0917C0280818F7D8083E09163
:103000007902F0917A02B3CF808185FFA4CF9FB778
:10301000F894E0917F02F09180026083E091790260
:10302000F0917A0280818370806480839FBFB5CFE6
:103030008491E5EBF2E00491EFE6F2E014911123C4
:1030400011F40C94750B81110E94CB01E12FF0E07B
:10305000EE0FFF1FE05DFD4FA591B4919FB7F8946F
:103060002C91802F809582238C939FBF0C94750B9D
:1030700088E00E94AC0150919703252F30E0B90100
:10308000660F771FFB01E20FF31FEA5FFC4F8081A1
:10309000807C8860808310929803109299034BEA99
:1030A000549F412D1124469546954695FCE04F9F2F
:1030B000C0011124FC01EE0FFF1FE80FF91FEA5FAA
:1030C000FC4FE081E6FD95C0DC011196FD01EE0F9D
:1030D000FF1FEA0FFB1FEA5FFC4FE081E6FD89C09E
:1030E0001196FD01EE0FFF1FEA0FFB1FEA5FFC4F79
:1030F000E081E6FD7EC01196FD01EE0FFF1FEA0F95
:10310000FB1FEA5FFC4FE081E6FD73C01196FD01F5
:10311000EE0FFF1FEA0FFB1FEA5FFC4FE081E6FDA9
:1031200068C01196FD01EE0FFF1FEA0FFB1FEA5F5B
:10313000FC4FE081E6FD5DC01196FD01EE0FFF1F23
:10314000EA0FFB1FEA5FFC4FE081E6FD52C01196DB
:10315000FD01EE0FFF1FEA0FFB1FEA5FFC4FE0814E
:10316000E6FD47C01196FD01EE0FFF1FEA0FFB1FA2
:10317000EA5FFC4FE081E6FD3CC01196FD01EE0FD9
:10318000FF1FEA0FFB1FEA5FFC4FE081E6FD31C045
:103190001196FD01EE0FFF1FEA0FFB1FEA5FFC4FC8
:1031A000E081E6FD26C00B96FC01EE0FFF1FE80F45
:1031B000F91FEA5FFC4F808186FD1BC0413029F179
:1031C000423009F446C04330B9F141112FC010928A
:1031D000200182E0809321011092250110922401A8
:1031E0008ABB809373002091970330E0B901660F8A
:1031F000771F260F371FF901EA5FFC4F808180643B
:1032000080830C94B809C901FECC1092800082E042
:10321000809381001092850010928400B19A809171
:103220006F00826080936F0050919703252F30E0EC
:10323000B901660F771FDDCF1092A00082E0809366
:10324000A1001092A5001092A40089BB8093720087
:10325000CACF109290004093910010929500109266
:10326000940048BB4093710050919703DFCF052E27
:1032700097FB1EF400940E944E1957FD07D00E9440
:10328000691907FC03D04EF40C944E1950954095E3
:10329000309521953F4F4F4F5F4F08959095809502
:1032A000709561957F4F8F4F9F4F08950E948B19A6
:1032B000A59F900DB49F900DA49F800D911D11248A
:1032C0000895B7FF0C9456190E945619821B930B50
:1032D0000895A1E21A2EAA1BBB1BFD010DC0AA1F57
:1032E000BB1FEE1FFF1FA217B307E407F50720F06F
:1032F000A21BB30BE40BF50B661F771F881F991FEA
:103300001A9469F760957095809590959B01AC0132
:10331000BD01CF010895A29FB001B39FC001A39F3B
:10332000700D811D1124911DB29F700D811D1124FE
:10333000911D0895EE0FFF1F881F8BBF0790F69118
:10334000E02D19945058BB27AA270E94BA190C9453
:10335000341B0E94261B38F00E942D1B20F039F4EC
:103360009F3F19F426F40C94231B0EF4E095E7FB21
:103370000C941D1BE92F0E94451B58F3BA176207D6
:1033800073078407950720F079F4A6F50C94671B62
:103390000EF4E0950B2EBA2FA02D0B01B901900170
:1033A0000C01CA01A0011124FF27591B99F0593FB4
:1033B00050F4503E68F11A16F040A22F232F342FFC
:1033C0004427585FF3CF469537952795A795F0404A
:1033D0005395C9F77EF41F16BA0B620B730B840B5F
:1033E000BAF09150A1F0FF0FBB1F661F771F881F17
:1033F000C2F70EC0BA0F621F731F841F48F487956F
:1034000077956795B795F7959E3F08F0B0CF939560
:10341000880F08F09927EE0F9795879508950E94D9
:10342000F91A08F481E008950E94281A0C94341BBC
:103430000E942D1B58F00E94261B40F029F45F3F8C
:1034400029F00C941D1B51110C94681B0C94231B28
:103450000E94451B68F39923B1F3552391F3951B03
:10346000550BBB27AA2762177307840738F09F5FA5
:103470005F4F220F331F441FAA1FA9F335D00E2E12
:103480003AF0E0E832D091505040E695001CCAF77F
:103490002BD0FE2F29D0660F771F881FBB1F261742
:1034A00037074807AB07B0E809F0BB0B802DBF0119
:1034B000FF2793585F4F3AF09E3F510578F00C94E8
:1034C0001D1B0C94681B5F3FE4F3983ED4F3869574
:1034D00077956795B795F7959F5FC9F7880F911D09
:1034E0009695879597F90895E1E0660F771F881FF5
:1034F000BB1F621773078407BA0720F0621B730BA8
:10350000840BBA0BEE1F88F7E09508950E948D1A80
:103510006894B1110C94681B08950E944D1B88F0AB
:103520009F5798F0B92F9927B751B0F0E1F0660F87
:10353000771F881F991F1AF0BA95C9F714C0B130C8
:1035400091F00E94671BB1E008950C94671B672FF0
:10355000782F8827B85F39F0B93FCCF386957795F7
:103560006795B395D9F73EF49095809570956195E0
:103570007F4F8F4F9F4F0895E89409C097FB3EF40B
:1035800090958095709561957F4F8F4F9F4F9923B0
:10359000A9F0F92F96E9BB279395F695879577952E
:1035A0006795B795F111F8CFFAF4BB0F11F460FFEE
:1035B0001BC06F5F7F4F8F4F9F4F16C0882311F046
:1035C00096E911C0772321F09EE8872F762F05C05A
:1035D000662371F096E8862F70E060E02AF09A95F5
:1035E000660F771F881FDAF7880F9695879597F9EA
:1035F0000895990F0008550FAA0BE0E8FEEF161684
:103600001706E807F907C0F012161306E407F507D6
:1036100098F0621B730B840B950B39F40A2661F04A
:10362000232B242B252B21F408950A2609F4A140ED
:10363000A6958FEF811D811D089597F99F6780E8FA
:1036400070E060E008959FEF80EC089500240A94F4
:103650001616170618060906089500240A9412166D
:103660001306140605060895092E0394000C11F4A0
:10367000882352F0BB0F40F4BF2B11F460FF04C04D
:103680006F5F7F4F8F4F9F4F089557FD9058440FA6
:10369000551F59F05F3F71F04795880F97FB991FB1
:1036A00061F09F3F79F0879508951216130614066E
:1036B000551FF2CF4695F1DF08C0161617061806FB
:1036C000991FF1CF86957105610508940895E894D6
:1036D000BB2766277727CB0197F908950E94F91A2F
:1036E00008F48FEF08950E94861B0C94341B0E94EF
:1036F000261B38F00E942D1B20F0952311F00C940E
:103700001D1B0C94231B11240C94681B0E94451B49
:1037100070F3959FC1F3950F50E0551F629FF00124
:10372000729FBB27F00DB11D639FAA27F00DB11D3D
:10373000AA1F649F6627B00DA11D661F829F2227C6
:10374000B00DA11D621F739FB00DA11D621F839F4D
:10375000A00D611D221F749F3327A00D611D231F23
:10376000849F600D211D822F762F6A2F11249F5771
:1037700050409AF0F1F088234AF0EE0FFF1FBB1F74
:10378000661F771F881F91505040A9F79E3F510533
:1037900080F00C941D1B0C94681B5F3FE4F3983E73
:1037A000D4F3869577956795B795F795E7959F5FDD
:1037B000C1F7FE2B880F911D9695879597F908956F
:0E37C0000E94F91A880B990B0895F894FFCF18
:1037CE00FFFFFFFF000000004303A8037A043E043E
:1037DE00E6028B049F043A20000D0A0041766572C2
:1037EE006167653D20006E616E00696E66006F76E2
:0E37FE0066004D696E3D20004D61783D200053
:00000001FF
