:100000000C9479010C94AA010C94AA010C94AA01F5
:100010000C94AA010C94AA010C94AA010C94AA01B4
:100020000C94AA010C94AA010C94AA010C94AA01A4
:100030000C94AA010C94AA010C94AA010C94AA0194
:100040000C94AA010C94CC070C94AA010C94AA015C
:100050000C94AA010C94AA010C94AA010C94AD046E
:100060000C94AA010C9437050C94F7040C94AA0183
:100070000C94AA010C94AA010C94AA010C94AA0154
:100080000C94FF060C94AA010C94AA010C94AA01EA
:100090000C94AA010C94AA010C94AA010C94AA0134
:1000A0000C94AA010C94AA010C9432060C94AA0197
:1000B0000C94AA010C94AA010C94AA010C946D054D
:1000C0000C94AA010C94AA010C94AA010C94AA0104
:1000D0000C94AA010C94AA010C94AA010C94AA01F4
:1000E0000C94AA010C9438020C9490020C94E60F24
:1000F0000C94E8010C94B40F0C943E040C944E0B39
:100100000C9443030C94A8030C94AE020C941402B8
:100110000C94C6020C94C80F0C9409100C947A0429
:100120000C9408020C9496020C94B4020C942C02C9
:100130000C9402020C94E6020C94D2020C94D802A5
:100140000C941A020C949F040C94F6010C94ED018B
:100150000C94FF0F0C94E2020C94D20F0C94260224
:100160000C9437100C9499080C941B100C940E02EC
:100170000C94F2010C9420020C94DC0F0C94DE021F
:100180000C9413100C948B040C94A2020C94F50F95
:100190000C9423100C942D100C94C0020C94550256
:1001A0000C94BE0F0C94BA020C9432020C943E02D2
:1001B0000C94A8020C949C020C94FC010C94461024
:1001C0000C94EE010C9441100C94CC020C948A0215
:1001D000000020002300260029002C002F00320000
:1001E0000001000003010601090100000A0B0209D9
:1001F0000C0D0E08070304010000000000000000C1
:1002000000000000000000000000000000000000EE
:1002100000000000000012111000000000000000AB
:1002200000000000000000000000000000000000CE
:1002300000002200250028002B002E003100340091
:1002400002010000050108010B010000210024004B
:1002500027002A002D0030003300010100000401B6
:1002600007010A0105050505070508080808020237
:1002700002020A0A08080404040401010101010140
:1002800001010303030303030303040707070C0C23
:100290000C0C0C0C0C0C02020202060606060606EA
:1002A00006060B0B0B0B0B0B0B0B0102102020088F
:1002B00008102040102040800201020108040201C1
:1002C0000102040810204080804020100804020130
:1002D0008004020180402010080402010804020189
:1002E0000102040810204080010204081020408010
:1002F000990811241FBECFEFD1E2DEBFCDBF00E0D1
:100300000CBF12E0A0E0B2E0E2EBFAE300E00BBFCA
:1003100002C007900D92AE33B107D9F723E0AEE3E8
:10032000B2E001C01D92A839B207E1F711E0C9E7B8
:10033000D1E000E006C021970109802FFE010E9454
:100340009D1AC837D10780E00807A9F70E94F60870
:100350000C94571D0C94000090E0FC01E655FD4FF5
:1003600024918C599D4FFC018491882399F090E051
:10037000880F991FFC01E65BFD4FA591B491FC012C
:10038000E05DFD4F859194918FB7F894EC91E22B4D
:10039000EC938FBF089581508231F8F4E82FF0E09C
:1003A0008827EA52FE4F8F4F0C949D1AEE01F201FE
:1003B000F601FC010202ED0108020E0214021A020B
:1003C000200226022C023202ED0138023E02E80130
:1003D00080912001877F80932001089584B58F77D5
:1003E00084BD089584B58F7D84BD0895809180007B
:1003F0008F77809380000895809180008F7D809317
:100400008000089580918000877F80938000089508
:100410008091B0008F778093B00008958091B000F4
:100420008F7D8093B0000895809190008F778093A6
:1004300090000895809190008F7D809390000895A2
:1004400080919000877F8093900008958091A00014
:100450008F778093A00008958091A0008F7D809376
:10046000A00008958091A000877F8093A000089548
:10047000809120018F778093200108958091200141
:100480008F7D80932001089590E0FC01E651FE4F9E
:100490002491FC01E655FD4F34918C599D4FFC0190
:1004A00094919923A1F0211118C0E92FF0E0EE0FEB
:1004B000FF1FE05DFD4FA591B4918FB7F8946111D6
:1004C00007C09C91E32FE095E923EC938FBF08953B
:1004D000EC91E32BEC938FBFFACF2150223128F718
:1004E000E22FF0E08827E858FD4F8F4F0C949D1ABB
:1004F000E202DE02D802D202CC025502C602C002DB
:10050000BA02B402AE02A802A2029C0255029602EE
:1005100090028A0280912001877F80932001C5CFBD
:10052000809120018F7D80932001BFCF8091200199
:100530008F7780932001B9CF8091A000877F80932F
:10054000A000B3CF8091A0008F7D8093A000ADCF9D
:100550008091A0008F778093A000A7CF809190001A
:10056000877F80939000A1CF809190008F7D8093B2
:1005700090009BCF809190008F778093900095CFD3
:100580008091B0008F7D8093B0008FCF8091B000BC
:100590008F778093B00089CF80918000877F809390
:1005A000800083CF809180008F7D809380007DCFFD
:1005B000809180008F778093800077CF84B58F7D86
:1005C00084BD73CF84B58F7784BD6FCFFC01918DCF
:1005D000228D892F90E0805C9F4F821B91098F7341
:1005E00099270895209180028091810230E0205C5B
:1005F0003F4F281B31092F73332781E0232B09F448
:1006000080E0089580E090E0892B69F0809180027D
:100610002091810290E0805C9F4F821B91098F7333
:100620009927892B29F580E090E0892B41F080E023
:1006300090E0892B21F00E94000081111EC080E013
:1006400090E0892B41F080E090E0892B21F00E941E
:100650000000811115C080E090E0892B41F080E01E
:1006600090E0892B21F00E940000811104C00895C0
:100670000E940000D8CF0C9400000E940000DFCF41
:100680000E940000E8CFFC0181E0808F938D848D73
:10069000981709F448C0238D30E02F5F3F4F2F7328
:1006A0003327822F03C00FB607FE17C0948D98170B
:1006B000D1F3A38DAE0FBF2FB11DA35ABF4F6C93C3
:1006C0009FB7F894238F0288F389E02D80818062A0
:1006D00080839FBF81E090E00895A089B1899C91BB
:1006E00095FFE4CFA48DAE0FBF2FB11DA35ABF4F0E
:1006F0009C91448D50E04F5F5F4F4F735527448F5F
:10070000A689B7899C93A089B1899C9193709064C4
:100710009C93438D948D4913C9CFA289B3899C9131
:100720009F7D9C93C3CFA089B1898C9185FFB3CF66
:100730009FB7F894A689B7896C930088F189E02D5A
:1007400080818370806480839FBF81E090E0089502
:10075000BF92CF92DF92EF92FF920F931F93CF93AE
:10076000DF934115510509F486C06A01EC017B0154
:1007700010E000E0BB24B394E881F9810190F0819E
:10078000E02DD7016D917D01B3E0E334FB0709F063
:100790006CC0B88E9B8D8C8D981709F454C02B8D2E
:1007A00030E02F5F3F4F2F733327822F03C00FB6E8
:1007B00007FE23C09C8D8917D1F3EB8DEC0FFD2F25
:1007C000F11DE35AFF4F60839FB7F8942B8FEA899E
:1007D000FB898081806280839FBF0F5F1F4FC0169F
:1007E000D10651F6C801DF91CF911F910F91FF9073
:1007F000EF90DF90CF90BF900895E889F9899081BC
:1008000095FFD8CFEC8DEC0FFD2FF11DE35AFF4F74
:1008100090814C8D50E04F5F5F4F4F7355274C8F49
:10082000EE89FF899083E889F989908193709064BB
:1008300090834B8D9C8D4913BDCFEA89FB899081B4
:100840009F7D9083B7CFE889F989808185FFA7CF05
:100850009FB7F894EE89FF896083E889F9898081E0
:100860008370806480839FBFB8CFCE011995892B98
:1008700009F4B8CFB2CF10E000E0B4CFCF93DF934C
:10088000EC01888D882399F1EA89FB89A889B989C7
:10089000908195FD03C09C9196FD29C00FB607FC81
:1008A000F7CF808185FFF4CF8C9185FFF1CFEC8D60
:1008B000EC0FFD2FF11DE35AFF4F20818C8D90E04E
:1008C00001968F7399278C8FEE89FF892083E889A1
:1008D000F98980818370806480839B8D8C8D9813CF
:1008E000D3CFEA89FB8980818F7D8083CDCFDF9153
:1008F000CF910895FC01938D848D981720F4891B66
:10090000990B019708952FE330E0291B3109820FDD
:10091000932F911D0895FC01918D828D981761F0A0
:10092000A28DAE0FBF2FB11D5D968C91928D9F5FF2
:100930009F73928F90E008958FEF9FEF0895FC01D1
:10094000918D828D981731F0828DE80FF11D858D84
:1009500090E008958FEF9FEF08951F920F920FB6CA
:100960000F9211242F933F938F939F93AF93BF9335
:100970008091630290916402A0916502B091660239
:100980003091620223E0230F2D3768F126E8230F10
:100990000296A11DB11D2093620280936302909381
:1009A0006402A0936502B093660280915E0290910A
:1009B0005F02A0916002B09161020196A11DB11D7C
:1009C00080935E0290935F02A0936002B0936102F5
:1009D000BF91AF919F918F913F912F910F900FBE3B
:1009E0000F901F9018950196A11DB11DD4CF1F9295
:1009F0000F920FB60F9211240BB60F922F938F9375
:100A00009F93EF93FF93E0918302F0E0EC53FD4F4F
:100A100020818091830290E001968F7399278093C3
:100A20008302E0917D02F0917E022083E0917702C3
:100A3000F09178028081837080648083909182023B
:100A400080918302981307C0E0917902F0917A02B5
:100A500080818F7D8083FF91EF919F918F912F9166
:100A60000F900BBE0F900FBE0F901F9018951F9206
:100A70000F920FB60F9211240BB60F922F938F93F4
:100A80009F93EF93FF93E0917702F091780280813A
:100A9000E0917D02F0917E0282FF0DC08081FF9186
:100AA000EF919F918F912F910F900BBE0F900FBEE2
:100AB0000F901F9018952081809180028F5F8F7317
:100AC00090918102891759F3E0918002F0E0E95991
:100AD000FD4F258F80938002E2CF1F920F920FB6B9
:100AE0000F9211240BB60F922F933F934F935F9366
:100AF0006F937F938F939F93AF93BF93CF93DF9326
:100B0000EF93FF9380913E02C0919403D0E087FD64
:100B1000A4C080913E02082E000C990B8C179D07F3
:100B20000CF47AC080913E028F5F80933E028091E8
:100B30003E02082E000C990B8C179D07ECF5809156
:100B40003E028C30CCF52091240130912501E091BA
:100B50003E028E2FEE0F990BFC01EE0FFF1FE80FE8
:100B6000F91FEC5FFC4F81819281820F931F90935C
:100B7000290180932801E0913E028E2FEE0F990B00
:100B8000FC01EE0FFF1FE80FF91FEC5FFC4F8081A7
:100B900086FF26C0E0913E028E2FEE0F990BFC01DE
:100BA000EE0FFF1FE80FF91FEC5FFC4F808161E043
:100BB0008F730E94440214C08091240190912501FA
:100BC000049680349C4908F180912401909125017C
:100BD000049690932901809328018FEF80933E0221
:100BE000FF91EF91DF91CF91BF91AF919F918F9145
:100BF0007F916F915F914F913F912F910F900BBE1D
:100C00000F900FBE0F901F90189580E49CE9909371
:100C1000290180932801E1CFE0913E028E2FEE0F53
:100C2000990BFC01EE0FFF1FE80FF91FEC5FFC4F63
:100C3000808186FF77CFE0913E028E2FEE0F990BD9
:100C4000FC01EE0FFF1FE80FF91FEC5FFC4F8081E6
:100C500060E08F730E94440265CF109225011092CC
:100C6000240160CF1F920F920FB60F9211240BB682
:100C70000F922F933F934F935F936F937F938F9335
:100C80009F93AF93BF93CF93DF93EF93FF938091A5
:100C90004102C0919403D0E087FDACC08091410235
:100CA000082E000C990B84968C179D070CF47FC0BE
:100CB000809141028F5F8093410280914102082E12
:100CC000000C990B84968C179D070CF040C0809106
:100CD00041028C30E4F52091A4003091A500809170
:100CE0004102082E000C990B8496FC01EE0FFF1FA9
:100CF000E80FF91FEC5FFC4F81819281820F931FF7
:100D00009093A9008093A80080914102082E000CC6
:100D1000990B8496FC01EE0FFF1FE80FF91FEC5FA3
:100D2000FC4F808186FF27C080914102082E000C75
:100D3000990B8496FC01EE0FFF1FE80FF91FEC5F83
:100D4000FC4F808161E08F730E94440214C0809147
:100D5000A4009091A500049680349C4908F18091EC
:100D6000A4009091A50004969093A9008093A800F8
:100D70008FEF80934102FF91EF91DF91CF91BF916F
:100D8000AF919F918F917F916F915F914F913F9123
:100D90002F910F900BBE0F900FBE0F901F901895C4
:100DA00080E49CE99093A9008093A800E1CF809112
:100DB0004102082E000C990B8496FC01EE0FFF1FD8
:100DC000E80FF91FEC5FFC4F808186FF71CF8091A7
:100DD0004102082E000C990B8496FC01EE0FFF1FB8
:100DE000E80FF91FEC5FFC4F808160E08F730E9479
:100DF00044025ECF1092A5001092A40059CF1F921A
:100E00000F920FB60F9211240BB60F922F933F93B0
:100E10004F935F936F937F938F939F93AF93BF9302
:100E2000CF93DF93EF93FF9380914002C09194039F
:100E3000D0E087FDACC080914002082E000C990BD9
:100E400048968C179D070CF47FC0809140028F5FFD
:100E50008093400280914002082E000C990B489626
:100E60008C179D070CF040C0809140028C30E4F557
:100E7000209194003091950080914002082E000C42
:100E8000990B4896FC01EE0FFF1FE80FF91FEC5F6E
:100E9000FC4F81819281820F931F909399008093E0
:100EA000980080914002082E000C990B4896FC0196
:100EB000EE0FFF1FE80FF91FEC5FFC4F808186FFEC
:100EC00027C080914002082E000C990B4896FC0127
:100ED000EE0FFF1FE80FF91FEC5FFC4F808161E010
:100EE0008F730E94440214C08091940090919500E9
:100EF000049680349C4908F180919400909195006B
:100F0000049690939900809398008FEF809340020D
:100F1000FF91EF91DF91CF91BF91AF919F918F9111
:100F20007F916F915F914F913F912F910F900BBEE9
:100F30000F900FBE0F901F90189580E49CE990933E
:100F4000990080939800E1CF80914002082E000C18
:100F5000990B4896FC01EE0FFF1FE80FF91FEC5F9D
:100F6000FC4F808186FF71CF80914002082E000CDB
:100F7000990B4896FC01EE0FFF1FE80FF91FEC5F7D
:100F8000FC4F808160E08F730E9444025ECF10921C
:100F900095001092940059CF1F920F920FB60F92A6
:100FA00011240BB60F922F933F934F935F936F9340
:100FB0007F938F939F93AF93BF93CF93DF93EF93E1
:100FC000FF9380913F02C0919403D0E087FDACC0B5
:100FD00080913F02082E000C990B0C968C179D07F0
:100FE0000CF47FC080913F028F5F80933F0280911D
:100FF0003F02082E000C990B0C968C179D070CF0E5
:1010000040C080913F028C30E4F520918400309103
:10101000850080913F02082E000C990B0C96FC0174
:10102000EE0FFF1FE80FF91FEC5FFC4F81819281EB
:10103000820F931F909389008093880080913F02D4
:10104000082E000C990B0C96FC01EE0FFF1FE80F09
:10105000F91FEC5FFC4F808186FF27C080913F0223
:10106000082E000C990B0C96FC01EE0FFF1FE80FE9
:10107000F91FEC5FFC4F808161E08F730E94440296
:1010800014C08091840090918500049680349C491E
:1010900008F18091840090918500049690938900D6
:1010A000809388008FEF80933F02FF91EF91DF9153
:1010B000CF91BF91AF919F918F917F916F915F91F0
:1010C0004F913F912F910F900BBE0F900FBE0F903D
:1010D0001F90189580E49CE9909389008093880084
:1010E000E1CF80913F02082E000C990B0C96FC0179
:1010F000EE0FFF1FE80FF91FEC5FFC4F808186FFAA
:1011000071CF80913F02082E000C990B0C96FC01C8
:10111000EE0FFF1FE80FF91FEC5FFC4F808160E0CE
:101120008F730E9444025ECF10928500109284005B
:1011300059CF10926A021092690288EE93E0A0E003
:10114000B0E080936B0290936C02A0936D02B09319
:101150006E0288E092E0909368028093670285ECCB
:1011600090E0909374028093730284EC90E09093EB
:1011700076028093750280EC90E0909378028093E1
:10118000770281EC90E090937A028093790282EC6E
:1011900090E090937C0280937B0286EC90E09093A9
:1011A0007E0280937D021092800210928102109242
:1011B00082021092830280919403803320F08FEF9B
:1011C00080939503089591E0980F909394038093F2
:1011D000950390E0FC01EE0FFF1FE80FF91FEC5F95
:1011E000FC4F88EB9BE0928381830895CF93DF933C
:1011F000CDB7DEB7A5970FB6F894DEBF0FBECDBF53
:10120000789484B5826084BD84B5816084BD85B5E1
:10121000826085BD85B5816085BD80916E008160ED
:1012200080936E0010928100809181008260809393
:101230008100809181008160809381008091800095
:101240008160809380008091B10084608093B100C0
:101250008091B00081608093B000809191008260A5
:1012600080939100809191008160809391008091A2
:1012700090008160809390008091A10082608093B3
:10128000A1008091A10081608093A1008091A000C5
:1012900081608093A0008091210182608093210170
:1012A00080912101816080932101809120018160E2
:1012B0008093200180917A00846080937A008091ED
:1012C0007A00826080937A0080917A0081608093B6
:1012D0007A0080917A00806880937A001092C10031
:1012E000ECEAF2E02491E6E6F2E084918823C9F08A
:1012F00090E0880F991FFC01E65BFD4FA591B4912A
:10130000805D9D4FFC01459154913FB7F8949C91AD
:10131000822F809598239C93DA019C9189238C934A
:101320003FBFE0EEF2E02491EAE9F2E08491882305
:10133000C9F090E0880F991FFC01E65BFD4FA59175
:10134000B491805D9D4FFC01459154913FB7F89455
:101350009C91822F809598239C93FA0190818923F8
:1013600080833FBF80919503803310F40C943D1926
:1013700089E00E94AC018AE00E94AC018BE00E94EF
:10138000AC0160E089E00E94440261E08AE00E94D2
:1013900044028BE00E94AC0160E08BE00E944402BA
:1013A0002091960388E890E0821B910927FD939590
:1013B000880F991F880F991F20919503203380F47F
:1013C0000297880F991F4FB7F89430E0F901EE0F9C
:1013D000FF1FE20FF31FEC5FFC4F928381834FBF2F
:1013E000E0917702F091780282E08083E0917302CD
:1013F000F09174021082E0917502F09176028FEC08
:10140000808310927F02E0917B02F0917C0286E063
:101410008083E0917902F0917A02808180618083FB
:10142000E0917902F0917A02808188608083E09176
:101430007902F0917A02808180688083E09179025C
:10144000F0917A0280818F7D808333243394BAE0D7
:10145000CB2ED12CE12CF12C2224239480917B00E3
:10146000877F80937B0080E480937C0080917A006A
:10147000806480937A0080917A0086FDFCCF809111
:1014800078009091790090935D0280935C02ECEE7D
:10149000F1E08491ECEAF2E00491E6E6F2E01491E6
:1014A000112309F4BBC18111F6C5E12FF0E0EE0F65
:1014B000FF1FE053FE4FA591B4918C91082361E08A
:1014C00070E011F470E060E0072E000C880B990BBF
:1014D0000E94D81B609358027093590280935A025D
:1014E00090935B029FB7F89440905E0250905F0229
:1014F000609060027090610286B5A89B07C08F3F24
:1015000029F0FFEF4F1A5F0A6F0A7F0A9FBF762C00
:10151000652C542C4424480E511C611C711C440C35
:10152000551C661C771C440C551C661C771C80914E
:1015300056028111FDC13092560283E0809357021A
:101540009FB7F89480905E0290905F02A090600236
:10155000B090610286B5A89B07C08F3F29F02FEF9E
:10156000821A920AA20AB20A9FBFBA2CA92C982CFE
:101570008824880E911CA11CB11C880C991CAA1CE3
:10158000BB1C880C991CAA1CBB1C84189508A608B7
:10159000B70860914E0270914F0280915002909175
:1015A0005102680D791D8A1D9B1D60934E02709338
:1015B0004F02809350029093510220914C0230913F
:1015C0004D022F5F3F4F30934D0220934C024090CD
:1015D00048025090490260904A0270904B024814B1
:1015E00059046A047B0440F48092480290924902B4
:1015F000A0924A02B0924B02409000025090010229
:10160000609002027090030284149504A604B7044B
:1016100040F48092000290920102A0920202B092E5
:1016200003022436310508F432C22436310509F4A8
:101630003EC58091440290914502009709F0F2C0A6
:101640002091460230914702E5EBF2E04491EFE64B
:10165000F2E08491882399F090E0880F991FFC01B3
:10166000E65BFD4FA591B491FC01E05DFD4F8591D6
:1016700094918FB7F8949C91492B4C938FBFE5EFD1
:10168000F1E02115310509F43AC42F3F310569F025
:101690008491EFEFE80FE23108F44DC4E5EFF1E09B
:1016A0002038310514F40C9411198491E5EBF2E023
:1016B0000491EFE6F2E01491112389F081110E9468
:1016C000CB01E12FF0E0EE0FFF1FE05DFD4FA59194
:1016D000B4918FB7F8949C91092B0C938FBF9FB74F
:1016E000F89440915E0250915F02609160027091A7
:1016F000610286B5A89B06C08F3F21F04F5F5F4F08
:101700006F4F7F4F9FBF762F652F542F4427480F71
:10171000511D611D711D440F551F661F771F440F1A
:10172000551F661F771F04E610E020E030E0FFB78A
:10173000F89480915E0290915F02A0916002B09156
:101740006102E6B5A89B05C0EF3F19F00196A11D07
:10175000B11DFFBFBA2FA92F982F88278E0F911D7B
:10176000A11DB11D880F991FAA1FBB1F880F991FAC
:10177000AA1FBB1F841B950BA60BB70B883E93407B
:10178000A105B105A0F20150110921093109485103
:101790005C4F6F4F7F4F011511052105310539F65B
:1017A00020E030E0232B71F08091800220918102B3
:1017B00090E0805C9F4F821B91098F739927892B42
:1017C00009F06CC440E050E0452B49F080E090E027
:1017D000892B29F00E94000081110C940F16A0E0C3
:1017E000B0E0AB2B49F0E0E0F0E0EF2B29F00E94F5
:1017F000000081110C94131620E030E0232B09F433
:101800002DCE40E050E0452B09F428CE0E94000088
:10181000882309F423CE0E94000020CE60E070E00F
:10182000CB0158CEDC01AA0FBB1FAA0FBB1FA80F0C
:10183000B91F2091420230914302A20FB31FB0930F
:101840004302A0934202A032E2E0BE07DCF58091A1
:10185000960318E8812E912C881A910887FD93949D
:10186000880C991C880C991C092C000CAA08BB0830
:101870008091970328E532E0281B310987FD3395D5
:10188000220F331F220F331F032E000C440B550B66
:10189000281939094A095B09A53BB10514F0A4EBE5
:1018A000B0E0B7FF02C0B0E0A0E00E94641A24EBF1
:1018B00030E040E050E00E943A1A820E931EA41ECF
:1018C000B51ED40120919503203308F0B9CE809144
:1018D000960348E850E0481B510987FD5395CA011B
:1018E000880F991F880F991FA817B90784F03091A6
:1018F000970388E592E0831B910937FD9395880F44
:10190000991F880F991FA817B9070CF4CD010297EA
:10191000880F991F4FB7F89430E0F901EE0FFF1FC1
:10192000E20FF31FEC5FFC4F928381834FBF88CEA1
:1019300080915702813011F40C94CC16823011F052
:101940000C941716809154029091550281319105A3
:1019500010F40C94E2161092450210924402109278
:1019600055021092540283E08093570280915202F4
:10197000909153028930910508F493C320915C0241
:1019800030915D023A50A1EFB9EF0E948E1ABC016E
:101990007695679590E080E00E94D61B20E030E0CD
:1019A00040EA55E40E94A51A20E030E040E05CE304
:1019B0000E94E51C20E030E040EA51E40E94A51AB4
:1019C00020E030E04FE753E40E94E51C4B015C014E
:1019D0009F7720E030E040E859E50E94291B87FF0F
:1019E00024C020E030E040E05FE3C501B4010E9484
:1019F000E01C87FD02C00C945F1720E030E040E05F
:101A00005FEBC501B4010E94E01C181614F40C949D
:101A1000741820E030E040E05FE3C501B4010E94AB
:101A2000A51A0E94121B4B015C01C501B4010E9462
:101A3000A01B4B015C01B7FE02C00C94E9169B0190
:101A40003695279536952795ADE5BBE30E948E1A0E
:101A5000929582958F7089279F708927E4E1F1E044
:101A60008E9F90018F9F300D9E9F300D1124821A02
:101A7000930AFAE88F16910408F0019690934702B2
:101A800080934602109253021092520259CD50E0B8
:101A900040E019A28E010F5D1F4FCA01B901A701D5
:101AA00096010E946C1A605DD8016E938D0121151C
:101AB00031054105510589F7E0917702F0917802EF
:101AC0001097E9F10D900020E9F7BD01D8016150B0
:101AD0007109A617B70799F14D9130927F02909145
:101AE000820280918302981709F492C020918202A9
:101AF00030E02F5F3F4F2F733327922F03C00FB675
:101B000007FE56C0809183029817C9F3E0918202C4
:101B1000F0E0EC53FD4F40839FB7F894209382028E
:101B2000E0917902F0917A028081806280839FBF88
:101B3000E0917702F0917802A617B70769F6A6E15F
:101B4000B2E04D9130927F029091820280918302A7
:101B5000981709F4A2C02091820230E02F5F3F4F16
:101B60002F733327922F03C00FB607FE65C08091F5
:101B700083029817C9F3E0918202F0E0EC53FD4F25
:101B800040839FB7F89420938202E0917902F0910C
:101B90007A028081806280839FBFE8E1F2E0EA17E9
:101BA000FB0709F493C0E0917702F0917802C9CF66
:101BB000808185FFA7CFE0918302F0E0EC53FD4FD9
:101BC0008081E0918302F0E03196EF73FF27E0938C
:101BD0008302E0917D02F0917E028083E0917702A2
:101BE000F0917802808183708064808350918202BA
:101BF00080918302581307C0E0917902F0917A0234
:101C000080818F7D8083E0917702F09178027ACF96
:101C1000808185FF6BCF9FB7F894E0917D02F091B2
:101C20007E024083E0917702F09178028081837098
:101C3000806480839FBF7CCF808185FF98CFE091B7
:101C40008302F0E0EC53FD4F80816091830270E0ED
:101C50006F5F7F4F6F73772760938302E0917D0200
:101C6000F0917E028083E0917702F091780280818A
:101C70008370806480835091820280918302581324
:101C800007C0E0917902F0917A0280818F7D808394
:101C9000E0917702F09178026ACF808185FF5BCF77
:101CA0009FB7F894E0917D02F0917E024083E0912D
:101CB0007702F091780280818370806480839FBF77
:101CC000E8E1F2E0EA17FB0709F06DCF19A28E01F7
:101CD0000F5D1F4FC501B401A70196010E946C1A48
:101CE00049015A01605DD8016E938D018114910400
:101CF000A104B10479F7E0917702F091780210978E
:101D0000E9F10D900020E9F7AD01D80141505109EA
:101D1000A417B50799F16D9130927F0290918202DC
:101D200080918302981709F491C02091820230E0DB
:101D30002F5F3F4F2F733327922F03C00FB607FE3D
:101D400055C0809183029817C9F3E0918202F0E0B8
:101D5000EC53FD4F60839FB7F89420938202E0918B
:101D60007902F0917A028081806280839FBFE09146
:101D70007702F0917802A417B50769F6A9E1B2E0FD
:101D80004D9130927F029091820280918302981748
:101D900009F4A1C02091820230E02F5F3F4F2F73E2
:101DA0003327922F03C00FB607FE64C080918302D1
:101DB0009817C9F3E0918202F0E0EC53FD4F4083A5
:101DC0009FB7F89420938202E0917902F0917A0211
:101DD0008081806280839FBFE2E0AB31BE0709F45F
:101DE00028CCE0917702F0917802CACF808185FFFC
:101DF000A8CFE0918302F0E0EC53FD4F8081E091A9
:101E00008302F0E03196EF73FF27E0938302E091C5
:101E10007D02F0917E028083E0917702F09178025A
:101E200080818370806480837091820280918302BC
:101E3000781307C0E0917902F0917A0280818F7D5A
:101E40008083E0917702F09178027BCF808185FFDB
:101E50006CCF9FB7F894E0917D02F0917E02608391
:101E6000E0917702F09178028081837080648083B2
:101E70009FBF7DCF808185FF99CFE0918302F0E005
:101E8000EC53FD4F80816091830270E06F5F7F4F64
:101E90006F73772760938302E0917D02F0917E0259
:101EA0008083E0917702F091780280818370806472
:101EB00080835091820280918302581307C0E09181
:101EC0007902F0917A0280818F7D8083E0917702A0
:101ED000F09178026BCF808185FF5CCF9FB7F8943B
:101EE000E0917D02F0917E024083E0917702F091D3
:101EF000780280818370806480839FBF6DCF8491DE
:101F0000E5EBF2E00491EFE6F2E01491112309F41D
:101F1000E6CB81118AC7E12FF0E0EE0FFF1FE05DF5
:101F2000FD4FA591B4918FB7F8949C91009509232A
:101F30000C938FBFD4CBF0E08827EE55F04F8F4F36
:101F40000C949D1A4610411037102D1023104E0B83
:101F50001B1013100910FF0FF50FE60FDC0FD20F47
:101F60004E0BC80FBE0FB40F809120018860809384
:101F7000200130932D0120932C01B1CB80912001C1
:101F800080628093200130932B0120932A01A7CBFC
:101F90008091200180688093200130932901209353
:101FA00028019DCB8091A00088608093A000309391
:101FB000AD002093AC0093CB8091A0008062809311
:101FC000A0003093AB002093AA0089CB8091A000A1
:101FD00080688093A0008091A0008F7B8093A000F8
:101FE0003093A9002093A8007ACB8091900088605C
:101FF0008093900030939D0020939C0070CB809143
:10200000900080628093900030939B0020939A0010
:1020100066CB809190008068809390003093990007
:10202000209398005CCB8091B00080628093B000D8
:102030002093B40054CB8091B00080688093B000AE
:102040002093B3004CCB8091800088608093800007
:1020500030938D0020938C0042CB80918000806271
:102060008093800030938B0020938A0038CB80913E
:1020700080008068809380003093890020938800DE
:102080002ECB84B5806284BD28BD29CB84B5806801
:1020900084BD27BD24CB0E94CB0107CA0E9400004B
:1020A00091CB0196909353028093520249CA0E94A9
:1020B000D61B20E030E048EC52E40E942E1B4B017E
:1020C0005C01ACE1B2E04D9130927F0290918202CE
:1020D00080918302E0917702F0917802981709F4D9
:1020E00053C32091820230E02F5F3F4F2F7333277D
:1020F000922F03C00FB607FE2CC28091830298175F
:10210000C9F3E0918202F0E0EC53FD4F40839FB7AA
:10211000F89420938202E0917902F0917A02808112
:10212000806280839FBF25E232E02A173B0759F681
:10213000A5019401C501B4010E94521D06E212E0FE
:1021400081111CC12FEF3FEF4FE75FE7C501B401DD
:102150000E94521D81110BC02FEF3FEF4FE75FE749
:10216000C501B4010E94291B18160CF4B6C62FEF46
:102170003FEF4FE75FE4C501B4010E94E01C181671
:102180000CF435C72FEF3FEF4FE75FECC501B4010B
:102190000E94291B87FDB3C72AE037ED43EA5BE3C2
:1021A000C501B4010E94A61A4B015C010E94A71B45
:1021B0002B013C010E94D61B9B01AC01C501B4015F
:1021C0000E94A51A4B015C0119A28E010F5D1F4FE1
:1021D000C301B201A70196010E946C1A29013A01BC
:1021E000605DD8016E938D01411451046104710446
:1021F00079F7109709F43EC0FD0101900020E9F73E
:10220000BF01FD01615071096E177F0799F141917E
:1022100030927F029091820280918302A091770296
:10222000B0917802981709F4D8C52091820230E065
:102230002F5F3F4F2F733327922F03C00FB607FE38
:10224000BEC4809183029817C9F3A0918202B0E0C6
:10225000AC53BD4F4C939FB7F89420938202A0914A
:102260007902B0917A028C9180628C939FBF6E1735
:102270007F0769F66EE287E692E00E944303609072
:1022800077027090780252E0552E20E030E040E274
:1022900051E4C501B4010E94E51C4B015C010E94A0
:1022A000A71B9B0150E040E02AA33BA34CA35DA3E6
:1022B00019A28E010F5D1F4FCA01B901A701960136
:1022C0000E946C1A605DD8016E938D012115310555
:1022D0004105510589F71097E9F1FD0101900020B2
:1022E000E9F78F01015011090A171B0799F14D9168
:1022F00020927F029091820280918302981709F4C4
:10230000C9C52091820230E02F5F3F4F2F733327E2
:10231000922F03C00FB607FE8BC5809183029817DA
:10232000C9F3E0918202F0E0EC53FD4F40839FB788
:10233000F89420938202E0917902F0917A028081F0
:10234000806280839FBF60907702709078020A1746
:102350001B0769F66AA17BA18CA19DA10E94D61BD7
:102360009B01AC01C501B4010E94A51A4B015C019F
:10237000F1E05F16A9F05524539487CFD8016D91F1
:102380008D0187E692E00E944303892B29F049E200
:1023900052E04017510791F76090770270907802F1
:1023A00049E1A42E42E0B42E8501D8014D918D0162
:1023B00030927F029091820280918302981709F4F3
:1023C000F7C12091820230E02F5F3F4F2F733327F8
:1023D000922F03C00FB607FE8AC080918302981720
:1023E000C9F3E0918202F0E0EC53FD4F40839FB7C8
:1023F000F89420938202E0917902F0917A02808130
:10240000806280839FBF60907702709078022BE19A
:1024100032E02017310749F6A2E3B2E04D91309245
:102420007F029091820280918302981709F4C2C0C2
:102430002091820230E02F5F3F4F2F733327922F7E
:1024400003C00FB607FE21C0809183029817C9F31D
:10245000E0918202F0E0EC53FD4F40839FB7F89487
:1024600020938202E0917902F0917A028081806269
:1024700080839FBFE7E3F2E0EA17FB0709F4B4C0EB
:102480006090770270907802C9CFF301808185FF58
:10249000DBCFE0918302F0E0EC53FD4F808160914F
:1024A000830270E06F5F7F4F6F73772760938302C3
:1024B000E0917D02F0917E028083E0917702F091BD
:1024C0007802808183708064808350918202809141
:1024D0008302581307C0E0917902F0917A0280815B
:1024E0008F7D80836090770270907802ADCFD301AA
:1024F0008C9185FF72CFE0918302F0E0EC53FD4FA9
:1025000080816091830270E06F5F7F4F6F737727E8
:1025100060938302E0917D02F0917E028083E091DE
:102520007702F0917802808183708064808350917B
:10253000820280918302581307C0E0917902F091E2
:102540007A0280818F7D808360907702709078021C
:1025500044CF808185FFD1CDE0918302F0E0EC5340
:10256000FD4F80816091830270E06F5F7F4F6F73DA
:10257000772760938302E0917D02F0917E02808351
:10258000E0917702F091780280818370806480838B
:102590005091820280918302581307C0E091790222
:1025A000F0917A0280818F7D8083E0917702F091B3
:1025B0007802A3CDF301808185FF3ACF9FB7F894CD
:1025C000E0917D02F0917E024083E0917702F091EC
:1025D000780280818370806480839FBFE7E3F2E0AC
:1025E000EA17FB0709F04CCF20910002309101025D
:1025F000409102025091030219A2CE0181964C0132
:10260000CA01B901A70196010E946C1A605DD4014C
:102610006E934D01211531054105510589F7E09172
:102620007702F09178021097E9F10D900020E9F718
:10263000AD01D401415051094A175B0799F16D91E1
:1026400030927F029091820280918302981709F460
:10265000F4C02091820230E02F5F3F4F2F73332769
:10266000922F03C00FB607FEB8C08091830298175F
:10267000C9F3E0918202F0E0EC53FD4F60839FB715
:10268000F89420938202E0917902F0917A0280819D
:10269000806280839FBFE0917702F09178024A17B1
:1026A0005B0769F639E1832E32E0932ED4014D9118
:1026B0004D0130927F02909182028091830298179F
:1026C00009F4E0C12091820230E02F5F3F4F2F7369
:1026D0003327922F03C00FB607FEC3C08091830239
:1026E0009817C9F3E0918202F0E0EC53FD4F40836C
:1026F0009FB7F89420938202E0917902F0917A02D8
:102700008081806280839FBFE0917702F0917802A0
:102710000815190559F6A8E3B2E04D9130927F02F1
:102720009091820280918302981709F4FCC0209155
:10273000820230E02F5F3F4F2F733327922F03C069
:102740000FB607FEBFC0809183029817C9F3E091CE
:102750008202F0E0EC53FD4F40839FB7F894209342
:102760008202E0917902F0917A0280818062808316
:102770009FBFEDE3F2E0EA17FB0709F4EDC0E0913B
:102780007702F0917802C9CF808185FFAACC9FB7EC
:10279000F894E0917D02F0917E024083E09177020F
:1027A000F091780280818370806480839FBFBBCC6E
:1027B000F301808185FF05CE9FB7F894E0917D02FB
:1027C000F0917E024083E0917702F091780280815F
:1027D0008370806480839FBF16CE808185FF45CF44
:1027E000E0918302F0E0EC53FD4F8081E0918302A1
:1027F000F0E03196EF73FF27E0938302E0917D02D2
:10280000F0917E028083E0917702F09178028081DE
:102810008370806480837091820280918302781338
:1028200007C0E0917902F0917A0280818F7D8083E8
:10283000E0917702F091780218CF808185FF09CF6F
:102840009FB7F894E0917D02F0917E026083E09161
:102850007702F091780280818370806480839FBFCB
:102860001ACF808185FF3ACFE0918302F0E0EC53EC
:10287000FD4F80816091830270E06F5F7F4F6F73C7
:10288000772760938302E0917D02F0917E0280833E
:10289000E0917702F0917802808183708064808378
:1028A0005091820280918302581307C0E09179020F
:1028B000F0917A0280818F7D8083E0917702F091A0
:1028C00078020CCF808185FF3ECFE0918302F0E05B
:1028D000EC53FD4F80816091830270E06F5F7F4F0A
:1028E0006F73772760938302E0917D02F0917E02FF
:1028F0008083E0917702F091780280818370806418
:1029000080835091820280918302581307C0E09126
:102910007902F0917A0280818F7D8083E091770245
:10292000F091780210CF808185FF01CF9FB7F89496
:10293000E0917D02F0917E024083E0917702F09178
:10294000780280818370806480839FBFEDE3F2E032
:10295000EA17FB0709F013CF209148023091490292
:1029600040914A0250914B0219A28E010F5D1F4FF8
:10297000CA01B901A70196010E946C1A605DD801D5
:102980006E938D01211531054105510589F7E091BF
:102990007702F09178021097E9F10D900020E9F7A5
:1029A000AD01D801415051094A175B0799F16D916A
:1029B00030927F029091820280918302981709F4ED
:1029C000EAC02091820230E02F5F3F4F2F73332700
:1029D000922F03C00FB607FE9AC08091830298170A
:1029E000C9F3E0918202F0E0EC53FD4F60839FB7A2
:1029F000F89420938202E0917902F0917A0280812A
:102A0000806280839FBFE0917702F09178024A173D
:102A10005B0769F6D5014D915D0130927F0290917F
:102A2000820280918302981709F4A1C0209182024A
:102A300030E02F5F3F4F2F733327922F03C00FB625
:102A400007FE34C0809183029817C9F3E091820297
:102A5000F0E0EC53FD4F40839FB7F894209382023F
:102A6000E0917902F0917A028081806280839FBF39
:102A70008A149B0411F40C94190BE0917702F091E5
:102A80007802C8CF808185FF1DCE9FB7F894E09172
:102A90007D02F0917E024083E0917702F09178020E
:102AA00080818370806480839FBF2ECE808185FF6C
:102AB000C9CFE0918302F0E0EC53FD4F808160913B
:102AC000830270E06F5F7F4F6F737727609383029D
:102AD000E0917D02F0917E028083E0917702F09197
:102AE000780280818370806480835091820280911B
:102AF0008302581307C0E0917902F0917A02808135
:102B00008F7D8083E0917702F09178029BCF808166
:102B100085FF63CFE0918302F0E0EC53FD4F8081AD
:102B2000E0918302F0E03196EF73FF27E093830298
:102B3000E0917D02F0917E028083E0917702F09136
:102B4000780280818370806480837091820280919A
:102B50008302781307C0E0917902F0917A028081B4
:102B60008F7D8083E0917702F091780236CF80816B
:102B700085FF5CCF9FB7F894E0917D02F0917E02D3
:102B80004083E0917702F0917802808183708064C5
:102B900080839FBF6DCF808185FF13CF9FB7F8944F
:102BA000E0917D02F0917E026083E0917702F091E6
:102BB000780280818370806480839FBF24CF8C9152
:102BC00085FF3FCBA0918302B0E0AC53BD4F8C9109
:102BD000A0918302B0E01196AF73BB27A09383024C
:102BE000A0917D02B0917E028C93A0917702B0916A
:102BF00078028C91837080648C93509182028091D2
:102C00008302581307C0A0917902B0917A028C9187
:102C10008F7D8C93A0917702B091780212CB0E94A5
:102C200000000C94EF0B0E9400000C94FC0B20E0C1
:102C300030E44CE955E4609158027091590280915A
:102C40005A0290915B020E94E51C4B015C019F7748
:102C500020E030E040E859E50E94291B87FF21C0B1
:102C600020E030E040E05FE3C501B4010E94E01CD9
:102C700087FFB0C120E030E040E05FEBC501B40168
:102C80000E94E01C18160CF4C2C220E030E040E0C4
:102C90005FE3C501B4010E94A51A0E94121B4B01FB
:102CA0005C0120E030E040E857E4C501B4010E9437
:102CB000291B87FFACC020E030E0A901C501B401A9
:102CC0000E94E01C87FD98C2C501B4010E94A71BA9
:102CD00040E157E2461B570B6131774208F097C03D
:102CE0009A013695279536952795ABE7B4E10E9472
:102CF0008E1A9695879564E6689F9001699F300DBE
:102D00001124421B530B4233510508F47AC0009141
:102D10005402109155020817190708F078C020E0F6
:102D200030E0A901C501B4010E94E01C87FD99C2F1
:102D3000C501B4010E94A71B40E157E2461B570B97
:102D40006131774210F00C94B60C9A0136952795B4
:102D500036952795ABE7B4E10E948E1A9695879534
:102D600064E6689F9001699F300D1124421B530B4C
:102D70004233510508F478C20817190710F00C9473
:102D8000B60C0F5F1F4F109355020093540283E05F
:102D9000809357020C94B60C809154029091550286
:102DA0008131910578F02FEF3FEF3093450220936A
:102DB0004402109255021092540282E0809357020E
:102DC0000C94B60C019690935502809354020C9487
:102DD000B60C90E080E00C943E0D8C9185FF25CAE6
:102DE0009FB7F894A0917D02B0917E024C93A09180
:102DF0007702B09178028C91837080648C939FBF2E
:102E000003CA9C0121503109892B09F0F7C141E027
:102E100050E05093450240934402109255021092A4
:102E20005402309257020C94B60C0E94CB0173C826
:102E3000F301808185FF71CAE0918302F0E0EC53D9
:102E4000FD4F80816091830270E06F5F7F4F6F73F1
:102E5000772760938302E0917D02F0917E02808368
:102E6000E0917702F09178028081837080648083A2
:102E70005091820280918302581307C0E091790239
:102E8000F0917A0280818F7D8083609077027090CC
:102E9000780243CAF301808185FF33CA9FB7F89453
:102EA000E0917D02F0917E024083E0917702F09103
:102EB000780280818370806480839FBF44CA20E051
:102EC00030E040E05FE3C501B4010E94A61A0E9411
:102ED000131C4B015C010C94150DAAE2B2E04D915C
:102EE00030927F029091820280918302E09177027A
:102EF000F0917802981709F459C02091820230E0CD
:102F00002F5F3F4F2F733327922F03C00FB607FE5B
:102F10001CC0809183029817C9F3E0918202F0E00F
:102F2000EC53FD4F40839FB7F89420938202E091C9
:102F30007902F0917A028081806280839FBFEDE206
:102F4000F2E0EA17FB0759F627CA808185FFE1CF37
:102F5000E0918302F0E0EC53FD4F808160918302A9
:102F600070E06F5F7F4F6F73772760938302E0910C
:102F70007D02F0917E028083E0917702F0917802E9
:102F8000808183708064808350918202809183026B
:102F9000581307C0E0917902F0917A0280818F7D09
:102FA0008083E0917702F0917802B3CF808185FF32
:102FB000A4CF9FB7F894E0917D02F0917E02408308
:102FC000E0917702F0917802808183708064808341
:102FD0009FBFB5CF20E030E040E05FE3C501B40122
:102FE0000E94A61A0E94131C4B015C015ACEAEE24D
:102FF000B2E04D9130927F029091820280918302E3
:10300000E0917702F0917802981709F459C0209165
:10301000820230E02F5F3F4F2F733327922F03C080
:103020000FB607FE1CC0809183029817C9F3E09188
:103030008202F0E0EC53FD4F40839FB7F894209359
:103040008202E0917902F0917A028081806280832D
:103050009FBF21E332E02A173B0759F69DC98081C3
:1030600085FFE1CFE0918302F0E0EC53FD4F8081DA
:103070006091830270E06F5F7F4F6F73772760937B
:103080008302E0917D02F0917E028083E0917702DD
:10309000F0917802808183708064808350918202F5
:1030A00080918302581307C0E0917902F0917A026F
:1030B00080818F7D8083E0917702F0917802B3CF99
:1030C000808185FFA4CF9FB7F894E0917D02F091B5
:1030D0007E024083E0917702F091780280818370D4
:1030E000806480839FBFB5CF20E030E0A901C50197
:1030F000B4010E94E51C4B015C010C94150DAEE27D
:10310000B2E06D9130927F029091820280918302B1
:10311000E0917702F0917802981709F459C0209154
:10312000820230E02F5F3F4F2F733327922F03C06F
:103130000FB607FE1CC0809183029817C9F3E09177
:103140008202F0E0EC53FD4F60839FB7F894209328
:103150008202E0917902F0917A028081806280831C
:103160009FBF41E352E04A175B0759F615C98081BA
:1031700085FFE1CFE0918302F0E0EC53FD4F8081C9
:103180004091830250E04F5F5F4F4F73552740934C
:103190008302E0917D02F0917E028083E0917702CC
:1031A000F0917802808183708064808340918202F4
:1031B00080918302481307C0E0917902F0917A026E
:1031C00080818F7D8083E0917702F0917802B3CF88
:1031D000808185FFA4CF9FB7F894E0917D02F091A4
:1031E0007E026083E0917702F091780280818370A3
:1031F000806480839FBFB5CF23E630E00091540206
:10320000109155020217130708F489CD00CE20E073
:1032100030E0A901C501B4010E94E51C4B015C012D
:1032200040CD8491E5EBF2E00491EFE6F2E01491F9
:10323000112311F40C946F0B81110E94CB01E12F2B
:10324000F0E0EE0FFF1FE05DFD4FA591B4919FB739
:10325000F8942C91802F809582238C939FBF0C949F
:103260006F0B83E690E088CD9C0121503109892BBA
:1032700011F40C94B60CC9017FCD88E00E94AC011A
:1032800050919503252F30E0B901660F771FFB01A0
:10329000E20FF31FEC5FFC4F8081807C88608083AD
:1032A00010929603109297034BEA549F412D1124DC
:1032B000469546954695FCE04F9FC0011124FC01C0
:1032C000EE0FFF1FE80FF91FEC5FFC4FE081E6FDFA
:1032D00095C0DC011196FD01EE0FFF1FEA0FFB1FE9
:1032E000EC5FFC4FE081E6FD89C01196FD01EE0F19
:1032F000FF1FEA0FFB1FEC5FFC4FE081E6FD7EC085
:103300001196FD01EE0FFF1FEA0FFB1FEC5FFC4F54
:10331000E081E6FD73C01196FD01EE0FFF1FEA0F7D
:10332000FB1FEC5FFC4FE081E6FD68C01196FD01DC
:10333000EE0FFF1FEA0FFB1FEC5FFC4FE081E6FD85
:103340005DC01196FD01EE0FFF1FEA0FFB1FEC5F42
:10335000FC4FE081E6FD52C01196FD01EE0FFF1F0C
:10336000EA0FFB1FEC5FFC4FE081E6FD47C01196C2
:10337000FD01EE0FFF1FEA0FFB1FEC5FFC4FE0812A
:10338000E6FD3CC01196FD01EE0FFF1FEA0FFB1F8B
:10339000EC5FFC4FE081E6FD31C01196FD01EE0FC0
:1033A000FF1FEA0FFB1FEC5FFC4FE081E6FD26C02C
:1033B0000B96FC01EE0FFF1FE80FF91FEC5FFC4FAF
:1033C000808186FD1BC0413019F1423009F444C0B0
:1033D0004330A9F141112DC01092200182E0809369
:1033E000210110922501109224018ABB8093730061
:1033F0002091950330E0B901660F771F260F371F24
:10340000F901EC5FFC4F8081806480830C94B809E3
:103410001092800082E080938100109285001092CB
:103420008400B19A80916F00826080936F00509108
:103430009503252F30E0B901660F771FDFCF10927B
:10344000A00082E08093A1001092A5001092A40039
:1034500089BB80937200CCCF109290004093910072
:10346000109295001092940048BB409371005091C7
:103470009503DFCF052E97FB1EF400940E94511A8E
:1034800057FD07D00E946C1A07FC03D04EF40C9431
:10349000511A50954095309521953F4F4F4F5F4FB2
:1034A000089590958095709561957F4F8F4F9F4FB0
:1034B00008950E948E1AA59F900DB49F900DA49F11
:1034C000800D911D11240895B7FF0C94591A0E9484
:1034D000591A821B930B0895A1E21A2EAA1BBB1B3B
:1034E000FD010DC0AA1FBB1FEE1FFF1FA217B307D0
:1034F000E407F50720F0A21BB30BE40BF50B661FE6
:10350000771F881F991F1A9469F7609570958095A9
:1035100090959B01AC01BD01CF010895A29FB00120
:10352000B39FC001A39F700D811D1124911DB29FF7
:10353000700D811D1124911D0895EE0FFF1F881F2E
:103540008BBF0790F691E02D19945058BB27AA27FE
:103550000E94BD1A0C948E1C0E94801C38F00E94A0
:10356000871C20F039F49F3F19F426F40C947D1C3D
:103570000EF4E095E7FB0C944E1CE92F0E949F1C73
:1035800058F3BA17620773078407950720F079F498
:10359000A6F50C94D91C0EF4E0950B2EBA2FA02D95
:1035A0000B01B90190010C01CA01A0011124FF27F0
:1035B000591B99F0593F50F4503E68F11A16F040EB
:1035C000A22F232F342F4427585FF3CF46953795EA
:1035D0002795A795F0405395C9F77EF41F16BA0BAF
:1035E000620B730B840BBAF09150A1F0FF0FBB1F5D
:1035F000661F771F881FC2F70EC0BA0F621F731FA6
:10360000841F48F4879577956795B795F7959E3F02
:1036100008F0B0CF9395880F08F09927EE0F979593
:10362000879508950E94C11C90F09F3748F491112E
:1036300016F40C94DA1C60E070E080E89FE30895D3
:1036400026F01B16611D711D811D0C94541C0C94D9
:103650006F1C0E942A1C08F481E008950E94421BFE
:103660000C948E1C0E94871C58F00E94801C40F015
:1036700029F45F3F29F00C944E1C51110C94DA1C74
:103680000C947D1C0E949F1C68F39923B1F3552371
:1036900091F3951B550BBB27AA2762177307840765
:1036A00038F09F5F5F4F220F331F441FAA1FA9F3FB
:1036B00035D00E2E3AF0E0E832D091505040E695E9
:1036C000001CCAF72BD0FE2F29D0660F771F881F4A
:1036D000BB1F261737074807AB07B0E809F0BB0B3D
:1036E000802DBF01FF2793585F4F3AF09E3F510551
:1036F00078F00C944E1C0C94DA1C5F3FE4F3983E77
:10370000D4F3869577956795B795F7959F5FC9F739
:10371000880F911D9695879597F90895E1E0660FBA
:10372000771F881FBB1F621773078407BA0720F033
:10373000621B730B840BBA0BEE1F88F7E09508959C
:103740000E94A71B6894B1110C94DA1C08950E9482
:10375000A71C88F09F5798F0B92F9927B751B0F060
:10376000E1F0660F771F881F991F1AF0BA95C9F705
:1037700014C0B13091F00E94D91CB1E008950C94AE
:10378000D91C672F782F8827B85F39F0B93FCCF361
:10379000869577956795B395D9F73EF49095809582
:1037A000709561957F4F8F4F9F4F0895E89409C0A2
:1037B00097FB3EF490958095709561957F4F8F4F64
:1037C0009F4F9923A9F0F92F96E9BB279395F6957A
:1037D000879577956795B795F111F8CFFAF4BB0FF8
:1037E00011F460FF1BC06F5F7F4F8F4F9F4F16C05C
:1037F000882311F096E911C0772321F09EE8872FE6
:10380000762F05C0662371F096E8862F70E060E0A1
:103810002AF09A95660F771F881FDAF7880F96951A
:10382000879597F908950E94C11C90F09F3748F43E
:10383000911116F00C94DA1C60E070E080E89FEBC8
:10384000089526F41B16611D711D811D0C94541CD6
:103850000C946F1C990F0008550FAA0BE0E8FEEFBF
:1038600016161706E807F907C0F012161306E40744
:10387000F50798F0621B730B840B950B39F40A263D
:1038800061F0232B242B252B21F408950A2609F41B
:10389000A140A6958FEF811D811D089597F99F671F
:1038A00080E870E060E00895882371F4772321F0C8
:1038B0009850872B762F07C0662311F499270DC0E7
:1038C0009051862B70E060E02AF09A95660F771F82
:1038D000881FDAF7880F9695879597F908959F3F87
:1038E00031F0915020F4879577956795B795880FBB
:1038F000911D9695879597F908959FEF80EC08950F
:1039000000240A94161617061806090608950024BE
:103910000A9412161306140605060895092E039438
:10392000000C11F4882352F0BB0F40F4BF2B11F4AC
:1039300060FF04C06F5F7F4F8F4F9F4F089557FD0B
:103940009058440F551F59F05F3F71F04795880F0D
:1039500097FB991F61F09F3F79F0879508951216A4
:1039600013061406551FF2CF4695F1DF08C0161650
:1039700017061806991FF1CF869571056105089401
:1039800008950E94A71CA0F0BEE7B91788F4BB27D2
:103990009F3860F41616B11D672F782F8827985F1F
:1039A000F7CF869577956795B11D93959639C8F3AE
:1039B0000895E894BB2766277727CB0197F90895E8
:1039C0000E942A1C08F48FEF08950E94F81C0C94A2
:1039D0008E1C0E94801C38F00E94871C20F09523CA
:1039E00011F00C944E1C0C947D1C11240C94DA1CC8
:1039F0000E949F1C70F3959FC1F3950F50E0551FD7
:103A0000629FF001729FBB27F00DB11D639FAA2733
:103A1000F00DB11DAA1F649F6627B00DA11D661F82
:103A2000829F2227B00DA11D621F739FB00DA11DA3
:103A3000621F839FA00D611D221F749F3327A00D5D
:103A4000611D231F849F600D211D822F762F6A2FF9
:103A500011249F5750409AF0F1F088234AF0EE0F5E
:103A6000FF1FBB1F661F771F881F91505040A9F78B
:103A70009E3F510580F00C944E1C0C94DA1C5F3F65
:103A8000E4F3983ED4F3869577956795B795F795C7
:103A9000E7959F5FC1F7FE2B880F911D969587953F
:103AA00097F908950E942A1C880B990B0895F894A1
:023AB000FFCF46
:103AB200FFFFFFFF000000004303A8037A043E0457
:103AC200E6028B049F043A20000D0A0041766572DB
:103AD2006167653D20006E616E00696E66006F76FB
:0E3AE20066004D696E3D20004D61783D20006C
:00000001FF
